{
  "_format": "hh-sol-artifact-1",
  "contractName": "EHR",
  "sourceName": "contracts/EHR.sol",
  "abi": [
    {
      "inputs": [],
      "stateMutability": "nonpayable",
      "type": "constructor"
    },
    {
      "inputs": [
        {
          "internalType": "address",
          "name": "userAdd",
          "type": "address"
        },
        {
          "internalType": "string",
          "name": "docName",
          "type": "string"
        },
        {
          "internalType": "string",
          "name": "recordHash",
          "type": "string"
        },
        {
          "internalType": "string",
          "name": "recordName",
          "type": "string"
        },
        {
          "internalType": "uint256",
          "name": "issueDate",
          "type": "uint256"
        },
        {
          "internalType": "string",
          "name": "testSuggested",
          "type": "string"
        }
      ],
      "name": "createNewRecord",
      "outputs": [],
      "stateMutability": "nonpayable",
      "type": "function"
    },
    {
      "inputs": [
        {
          "internalType": "string",
          "name": "name",
          "type": "string"
        },
        {
          "internalType": "string",
          "name": "description",
          "type": "string"
        },
        {
          "internalType": "string",
          "name": "cid",
          "type": "string"
        }
      ],
      "name": "createNewResearch",
      "outputs": [],
      "stateMutability": "nonpayable",
      "type": "function"
    },
    {
      "inputs": [],
      "name": "fetchAllHospitals",
      "outputs": [
        {
          "components": [
            {
              "internalType": "address",
              "name": "hosAdd",
              "type": "address"
            },
            {
              "internalType": "string",
              "name": "name",
              "type": "string"
            },
            {
              "internalType": "string",
              "name": "personalAdd",
              "type": "string"
            },
            {
              "internalType": "string",
              "name": "emailId",
              "type": "string"
            },
            {
              "internalType": "string",
              "name": "contactNo",
              "type": "string"
            }
          ],
          "internalType": "struct EHR.Hospital[]",
          "name": "",
          "type": "tuple[]"
        }
      ],
      "stateMutability": "view",
      "type": "function"
    },
    {
      "inputs": [
        {
          "internalType": "uint256",
          "name": "researchId",
          "type": "uint256"
        }
      ],
      "name": "fetchAllUsersForResearch",
      "outputs": [
        {
          "components": [
            {
              "internalType": "address",
              "name": "userAdd",
              "type": "address"
            },
            {
              "internalType": "string",
              "name": "name",
              "type": "string"
            },
            {
              "internalType": "string",
              "name": "personalAdd",
              "type": "string"
            },
            {
              "internalType": "string",
              "name": "emailId",
              "type": "string"
            },
            {
              "internalType": "string",
              "name": "mobileNo",
              "type": "string"
            },
            {
              "internalType": "uint256",
              "name": "gender",
              "type": "uint256"
            },
            {
              "internalType": "string",
              "name": "dob",
              "type": "string"
            }
          ],
          "internalType": "struct EHR.User[]",
          "name": "",
          "type": "tuple[]"
        }
      ],
      "stateMutability": "view",
      "type": "function"
    },
    {
      "inputs": [],
      "name": "fetchMyDocuments",
      "outputs": [
        {
          "components": [
            {
              "internalType": "address",
              "name": "userAdd",
              "type": "address"
            },
            {
              "internalType": "address",
              "name": "hosAdd",
              "type": "address"
            },
            {
              "internalType": "string",
              "name": "docName",
              "type": "string"
            },
            {
              "internalType": "string",
              "name": "recordHash",
              "type": "string"
            },
            {
              "internalType": "string",
              "name": "recordName",
              "type": "string"
            },
            {
              "internalType": "uint256",
              "name": "issueDate",
              "type": "uint256"
            },
            {
              "internalType": "string",
              "name": "testSuggested",
              "type": "string"
            }
          ],
          "internalType": "struct EHR.Record[]",
          "name": "",
          "type": "tuple[]"
        }
      ],
      "stateMutability": "view",
      "type": "function"
    },
    {
      "inputs": [],
      "name": "fetchMyHospitalAccessList",
      "outputs": [
        {
          "components": [
            {
              "internalType": "address",
              "name": "hosAdd",
              "type": "address"
            },
            {
              "internalType": "string",
              "name": "name",
              "type": "string"
            },
            {
              "internalType": "string",
              "name": "personalAdd",
              "type": "string"
            },
            {
              "internalType": "string",
              "name": "emailId",
              "type": "string"
            },
            {
              "internalType": "string",
              "name": "contactNo",
              "type": "string"
            }
          ],
          "internalType": "struct EHR.Hospital[]",
          "name": "",
          "type": "tuple[]"
        }
      ],
      "stateMutability": "view",
      "type": "function"
    },
    {
      "inputs": [],
      "name": "fetchMyResearchAccessList",
      "outputs": [
        {
          "components": [
            {
              "internalType": "address",
              "name": "orgAdd",
              "type": "address"
            },
            {
              "internalType": "string",
              "name": "name",
              "type": "string"
            },
            {
              "internalType": "string",
              "name": "description",
              "type": "string"
            },
            {
              "internalType": "string",
              "name": "cid",
              "type": "string"
            }
          ],
          "internalType": "struct EHR.Research[]",
          "name": "",
          "type": "tuple[]"
        }
      ],
      "stateMutability": "view",
      "type": "function"
    },
    {
      "inputs": [],
      "name": "fetchMyResearchs",
      "outputs": [
        {
          "components": [
            {
              "internalType": "address",
              "name": "orgAdd",
              "type": "address"
            },
            {
              "internalType": "string",
              "name": "name",
              "type": "string"
            },
            {
              "internalType": "string",
              "name": "description",
              "type": "string"
            },
            {
              "internalType": "string",
              "name": "cid",
              "type": "string"
            }
          ],
          "internalType": "struct EHR.Research[]",
          "name": "",
          "type": "tuple[]"
        }
      ],
      "stateMutability": "view",
      "type": "function"
    },
    {
      "inputs": [
        {
          "internalType": "address",
          "name": "userAddress",
          "type": "address"
        }
      ],
      "name": "fetchUserByAddress",
      "outputs": [
        {
          "components": [
            {
              "internalType": "address",
              "name": "userAdd",
              "type": "address"
            },
            {
              "internalType": "string",
              "name": "name",
              "type": "string"
            },
            {
              "internalType": "string",
              "name": "personalAdd",
              "type": "string"
            },
            {
              "internalType": "string",
              "name": "emailId",
              "type": "string"
            },
            {
              "internalType": "string",
              "name": "mobileNo",
              "type": "string"
            },
            {
              "internalType": "uint256",
              "name": "gender",
              "type": "uint256"
            },
            {
              "internalType": "string",
              "name": "dob",
              "type": "string"
            }
          ],
          "internalType": "struct EHR.User",
          "name": "",
          "type": "tuple"
        }
      ],
      "stateMutability": "view",
      "type": "function"
    },
    {
      "inputs": [
        {
          "internalType": "address",
          "name": "userAddress",
          "type": "address"
        }
      ],
      "name": "fetchUserDocumentsForHospital",
      "outputs": [
        {
          "components": [
            {
              "internalType": "address",
              "name": "userAdd",
              "type": "address"
            },
            {
              "internalType": "address",
              "name": "hosAdd",
              "type": "address"
            },
            {
              "internalType": "string",
              "name": "docName",
              "type": "string"
            },
            {
              "internalType": "string",
              "name": "recordHash",
              "type": "string"
            },
            {
              "internalType": "string",
              "name": "recordName",
              "type": "string"
            },
            {
              "internalType": "uint256",
              "name": "issueDate",
              "type": "uint256"
            },
            {
              "internalType": "string",
              "name": "testSuggested",
              "type": "string"
            }
          ],
          "internalType": "struct EHR.Record[]",
          "name": "",
          "type": "tuple[]"
        }
      ],
      "stateMutability": "view",
      "type": "function"
    },
    {
      "inputs": [
        {
          "internalType": "address",
          "name": "userAddress",
          "type": "address"
        },
        {
          "internalType": "uint256",
          "name": "researchId",
          "type": "uint256"
        }
      ],
      "name": "fetchUserDocumentsForResearch",
      "outputs": [
        {
          "components": [
            {
              "internalType": "address",
              "name": "userAdd",
              "type": "address"
            },
            {
              "internalType": "address",
              "name": "hosAdd",
              "type": "address"
            },
            {
              "internalType": "string",
              "name": "docName",
              "type": "string"
            },
            {
              "internalType": "string",
              "name": "recordHash",
              "type": "string"
            },
            {
              "internalType": "string",
              "name": "recordName",
              "type": "string"
            },
            {
              "internalType": "uint256",
              "name": "issueDate",
              "type": "uint256"
            },
            {
              "internalType": "string",
              "name": "testSuggested",
              "type": "string"
            }
          ],
          "internalType": "struct EHR.Record[]",
          "name": "",
          "type": "tuple[]"
        }
      ],
      "stateMutability": "view",
      "type": "function"
    },
    {
      "inputs": [],
      "name": "getAllHospitalRecords",
      "outputs": [
        {
          "components": [
            {
              "internalType": "address",
              "name": "userAdd",
              "type": "address"
            },
            {
              "internalType": "address",
              "name": "hosAdd",
              "type": "address"
            },
            {
              "internalType": "string",
              "name": "docName",
              "type": "string"
            },
            {
              "internalType": "string",
              "name": "recordHash",
              "type": "string"
            },
            {
              "internalType": "string",
              "name": "recordName",
              "type": "string"
            },
            {
              "internalType": "uint256",
              "name": "issueDate",
              "type": "uint256"
            },
            {
              "internalType": "string",
              "name": "testSuggested",
              "type": "string"
            }
          ],
          "internalType": "struct EHR.Record[]",
          "name": "",
          "type": "tuple[]"
        }
      ],
      "stateMutability": "view",
      "type": "function"
    },
    {
      "inputs": [
        {
          "internalType": "address",
          "name": "hospitalAddress",
          "type": "address"
        }
      ],
      "name": "grantAccessToHospital",
      "outputs": [],
      "stateMutability": "nonpayable",
      "type": "function"
    },
    {
      "inputs": [
        {
          "internalType": "uint256",
          "name": "researchId",
          "type": "uint256"
        }
      ],
      "name": "grantAccessToResearch",
      "outputs": [],
      "stateMutability": "nonpayable",
      "type": "function"
    },
    {
      "inputs": [
        {
          "internalType": "string",
          "name": "name",
          "type": "string"
        },
        {
          "internalType": "string",
          "name": "personalAdd",
          "type": "string"
        },
        {
          "internalType": "string",
          "name": "emailId",
          "type": "string"
        },
        {
          "internalType": "string",
          "name": "mobileNo",
          "type": "string"
        }
      ],
      "name": "registerHospital",
      "outputs": [],
      "stateMutability": "nonpayable",
      "type": "function"
    },
    {
      "inputs": [
        {
          "internalType": "string",
          "name": "name",
          "type": "string"
        },
        {
          "internalType": "string",
          "name": "emailId",
          "type": "string"
        },
        {
          "internalType": "string",
          "name": "mobileNo",
          "type": "string"
        }
      ],
      "name": "registerResearchOrg",
      "outputs": [],
      "stateMutability": "nonpayable",
      "type": "function"
    },
    {
      "inputs": [
        {
          "internalType": "string",
          "name": "name",
          "type": "string"
        },
        {
          "internalType": "string",
          "name": "personalAdd",
          "type": "string"
        },
        {
          "internalType": "string",
          "name": "emailId",
          "type": "string"
        },
        {
          "internalType": "string",
          "name": "mobileNo",
          "type": "string"
        },
        {
          "internalType": "uint256",
          "name": "gender",
          "type": "uint256"
        },
        {
          "internalType": "string",
          "name": "dob",
          "type": "string"
        }
      ],
      "name": "registerUser",
      "outputs": [],
      "stateMutability": "nonpayable",
      "type": "function"
    },
    {
      "inputs": [
        {
          "internalType": "address",
          "name": "hospitalAddress",
          "type": "address"
        }
      ],
      "name": "removeAccessFromHospital",
      "outputs": [],
      "stateMutability": "nonpayable",
      "type": "function"
    },
    {
      "inputs": [
        {
          "internalType": "uint256",
          "name": "researchId",
          "type": "uint256"
        }
      ],
      "name": "removeAccessFromResearch",
      "outputs": [],
      "stateMutability": "nonpayable",
      "type": "function"
    }
  ],
  "bytecode": "0x608060405234801561001057600080fd5b50336000806101000a81548173ffffffffffffffffffffffffffffffffffffffff021916908373ffffffffffffffffffffffffffffffffffffffff1602179055506150d9806100606000396000f3fe608060405234801561001057600080fd5b50600436106101215760003560e01c80638280c16c116100ad578063c444411d11610071578063c444411d146102e0578063c83de7c014610310578063da8da7311461032c578063edf9e00a1461035c578063f95ad8fd1461037857610121565b80638280c16c14610228578063849326f2146102445780638aeab380146102745780639f900a1814610292578063baa719dc146102c257610121565b806341bd117c116100f457806341bd117c1461019a5780634630d73b146101b65780634df6f28d146101d257806354053ea8146101ee578063684217a61461020c57610121565b8063166fb618146101265780631be8530e14610142578063223a6d3414610160578063245e7f951461017c575b600080fd5b610140600480360381019061013b9190613fed565b610396565b005b61014a610523565b60405161015791906142f9565b60405180910390f35b61017a6004803603810190610175919061431b565b610910565b005b610184610a53565b6040516101919190614544565b60405180910390f35b6101b460048036038101906101af9190614566565b610f34565b005b6101d060048036038101906101cb91906145bf565b611029565b005b6101ec60048036038101906101e791906145ec565b611164565b005b6101f66112c4565b60405161020391906142f9565b60405180910390f35b61022660048036038101906102219190614566565b611632565b005b610242600480360381019061023d919061431b565b6117a4565b005b61025e600480360381019061025991906145bf565b611895565b60405161026b9190614544565b60405180910390f35b61027c611dc8565b6040516102899190614810565b60405180910390f35b6102ac60048036038101906102a791906145bf565b6121c8565b6040516102b991906148ea565b60405180910390f35b6102ca61256e565b6040516102d79190614810565b60405180910390f35b6102fa60048036038101906102f5919061490c565b6128d2565b6040516103079190614544565b60405180910390f35b61032a6004803603810190610325919061494c565b612e06565b005b61034660048036038101906103419190614566565b612f89565b6040516103539190614bc3565b60405180910390f35b610376600480360381019061037191906145bf565b6134b2565b005b610380613669565b60405161038d9190614544565b60405180910390f35b6040518060e001604052803373ffffffffffffffffffffffffffffffffffffffff1681526020018781526020018681526020018581526020018481526020018381526020018281525060066000600160008154809291906103f690614c14565b91905055815260200190815260200160002060008201518160000160006101000a81548173ffffffffffffffffffffffffffffffffffffffff021916908373ffffffffffffffffffffffffffffffffffffffff16021790555060208201518160010190816104649190614e68565b50604082015181600201908161047a9190614e68565b5060608201518160030190816104909190614e68565b5060808201518160040190816104a69190614e68565b5060a0820151816005015560c08201518160060190816104c69190614e68565b50905050600180546104d89190614f3a565b600b60003373ffffffffffffffffffffffffffffffffffffffff1673ffffffffffffffffffffffffffffffffffffffff16815260200190815260200160002081905550505050505050565b6060600080600090505b6005548110156105c3573373ffffffffffffffffffffffffffffffffffffffff16600a600083815260200190815260200160002060000160009054906101000a900473ffffffffffffffffffffffffffffffffffffffff1673ffffffffffffffffffffffffffffffffffffffff16036105b0576001826105ad9190614f6e565b91505b80806105bb90614c14565b91505061052d565b5060008167ffffffffffffffff8111156105e0576105df613e8c565b5b60405190808252806020026020018201604052801561061957816020015b610606613d1e565b8152602001906001900390816105fe5790505b5090506000915060005b600554811015610907573373ffffffffffffffffffffffffffffffffffffffff16600a600083815260200190815260200160002060000160009054906101000a900473ffffffffffffffffffffffffffffffffffffffff1673ffffffffffffffffffffffffffffffffffffffff16036108f4576000600a60008381526020019081526020016000209050806040518060800160405290816000820160009054906101000a900473ffffffffffffffffffffffffffffffffffffffff1673ffffffffffffffffffffffffffffffffffffffff1673ffffffffffffffffffffffffffffffffffffffff16815260200160018201805461071f90614c8b565b80601f016020809104026020016040519081016040528092919081815260200182805461074b90614c8b565b80156107985780601f1061076d57610100808354040283529160200191610798565b820191906000526020600020905b81548152906001019060200180831161077b57829003601f168201915b505050505081526020016002820180546107b190614c8b565b80601f01602080910402602001604051908101604052809291908181526020018280546107dd90614c8b565b801561082a5780601f106107ff5761010080835404028352916020019161082a565b820191906000526020600020905b81548152906001019060200180831161080d57829003601f168201915b5050505050815260200160038201805461084390614c8b565b80601f016020809104026020016040519081016040528092919081815260200182805461086f90614c8b565b80156108bc5780601f10610891576101008083540402835291602001916108bc565b820191906000526020600020905b81548152906001019060200180831161089f57829003601f168201915b5050505050815250508385815181106108d8576108d7614fa2565b5b60200260200101819052506001846108f09190614f6e565b9350505b80806108ff90614c14565b915050610623565b50809250505090565b60405180608001604052803373ffffffffffffffffffffffffffffffffffffffff16815260200184815260200183815260200182815250600960006004600081548092919061095e90614c14565b91905055815260200190815260200160002060008201518160000160006101000a81548173ffffffffffffffffffffffffffffffffffffffff021916908373ffffffffffffffffffffffffffffffffffffffff16021790555060208201518160010190816109cc9190614e68565b5060408201518160020190816109e29190614e68565b5060608201518160030190816109f89190614e68565b509050506001600454610a0b9190614f3a565b600d60003373ffffffffffffffffffffffffffffffffffffffff1673ffffffffffffffffffffffffffffffffffffffff16815260200190815260200160002081905550505050565b6060600080600090505b600354811015610af3573373ffffffffffffffffffffffffffffffffffffffff166008600083815260200190815260200160002060010160009054906101000a900473ffffffffffffffffffffffffffffffffffffffff1673ffffffffffffffffffffffffffffffffffffffff1603610ae057600182610add9190614f6e565b91505b8080610aeb90614c14565b915050610a5d565b5060008167ffffffffffffffff811115610b1057610b0f613e8c565b5b604051908082528060200260200182016040528015610b4957816020015b610b36613d5c565b815260200190600190039081610b2e5790505b50905060005b600354811015610f2b573373ffffffffffffffffffffffffffffffffffffffff166008600083815260200190815260200160002060010160009054906101000a900473ffffffffffffffffffffffffffffffffffffffff1673ffffffffffffffffffffffffffffffffffffffff1603610f185760008190506000600860008381526020019081526020016000209050806040518060e00160405290816000820160009054906101000a900473ffffffffffffffffffffffffffffffffffffffff1673ffffffffffffffffffffffffffffffffffffffff1673ffffffffffffffffffffffffffffffffffffffff1681526020016001820160009054906101000a900473ffffffffffffffffffffffffffffffffffffffff1673ffffffffffffffffffffffffffffffffffffffff1673ffffffffffffffffffffffffffffffffffffffff168152602001600282018054610ca690614c8b565b80601f0160208091040260200160405190810160405280929190818152602001828054610cd290614c8b565b8015610d1f5780601f10610cf457610100808354040283529160200191610d1f565b820191906000526020600020905b815481529060010190602001808311610d0257829003601f168201915b50505050508152602001600382018054610d3890614c8b565b80601f0160208091040260200160405190810160405280929190818152602001828054610d6490614c8b565b8015610db15780601f10610d8657610100808354040283529160200191610db1565b820191906000526020600020905b815481529060010190602001808311610d9457829003601f168201915b50505050508152602001600482018054610dca90614c8b565b80601f0160208091040260200160405190810160405280929190818152602001828054610df690614c8b565b8015610e435780601f10610e1857610100808354040283529160200191610e43565b820191906000526020600020905b815481529060010190602001808311610e2657829003601f168201915b5050505050815260200160058201548152602001600682018054610e6690614c8b565b80601f0160208091040260200160405190810160405280929190818152602001828054610e9290614c8b565b8015610edf5780601f10610eb457610100808354040283529160200191610edf565b820191906000526020600020905b815481529060010190602001808311610ec257829003601f168201915b505050505081525050848381518110610efb57610efa614fa2565b5b6020026020010181905250600182610f139190614f6e565b915050505b8080610f2390614c14565b915050610b4f565b50809250505090565b6000600b60003373ffffffffffffffffffffffffffffffffffffffff1673ffffffffffffffffffffffffffffffffffffffff16815260200190815260200160002054905060005b600f600083815260200190815260200160002080549050811015610fe95782600f60008481526020019081526020016000208281548110610fbf57610fbe614fa2565b5b906000526020600020015403610fd6575050611026565b8080610fe190614c14565b915050610f7b565b50600f6000828152602001908152602001600020829080600181540180825580915050600190039060005260206000200160009091909190915055505b50565b6000600c60008373ffffffffffffffffffffffffffffffffffffffff1673ffffffffffffffffffffffffffffffffffffffff1681526020019081526020016000205490506000600b60003373ffffffffffffffffffffffffffffffffffffffff1673ffffffffffffffffffffffffffffffffffffffff16815260200190815260200160002054905060005b600e6000838152602001908152602001600020805490508110156111235782600e600084815260200190815260200160002082815481106110f8576110f7614fa2565b5b90600052602060002001540361111057505050611161565b808061111b90614c14565b9150506110b4565b50600e600082815260200190815260200160002082908060018154018082558091505060019003906000526020600020016000909190919091505550505b50565b6040518060a001604052803373ffffffffffffffffffffffffffffffffffffffff1681526020018581526020018481526020018381526020018281525060076000600260008154809291906111b890614c14565b91905055815260200190815260200160002060008201518160000160006101000a81548173ffffffffffffffffffffffffffffffffffffffff021916908373ffffffffffffffffffffffffffffffffffffffff16021790555060208201518160010190816112269190614e68565b50604082015181600201908161123c9190614e68565b5060608201518160030190816112529190614e68565b5060808201518160040190816112689190614e68565b50905050600160025461127b9190614f3a565b600c60003373ffffffffffffffffffffffffffffffffffffffff1673ffffffffffffffffffffffffffffffffffffffff1681526020019081526020016000208190555050505050565b60606000600b60003373ffffffffffffffffffffffffffffffffffffffff1673ffffffffffffffffffffffffffffffffffffffff1681526020019081526020016000205490506000600f60008381526020019081526020016000208054905067ffffffffffffffff81111561133c5761133b613e8c565b5b60405190808252806020026020018201604052801561137557816020015b611362613d1e565b81526020019060019003908161135a5790505b50905060005b600f600084815260200190815260200160002080549050811015611629576000600a6000600f600087815260200190815260200160002084815481106113c4576113c3614fa2565b5b906000526020600020015481526020019081526020016000209050806040518060800160405290816000820160009054906101000a900473ffffffffffffffffffffffffffffffffffffffff1673ffffffffffffffffffffffffffffffffffffffff1673ffffffffffffffffffffffffffffffffffffffff16815260200160018201805461145190614c8b565b80601f016020809104026020016040519081016040528092919081815260200182805461147d90614c8b565b80156114ca5780601f1061149f576101008083540402835291602001916114ca565b820191906000526020600020905b8154815290600101906020018083116114ad57829003601f168201915b505050505081526020016002820180546114e390614c8b565b80601f016020809104026020016040519081016040528092919081815260200182805461150f90614c8b565b801561155c5780601f106115315761010080835404028352916020019161155c565b820191906000526020600020905b81548152906001019060200180831161153f57829003601f168201915b5050505050815260200160038201805461157590614c8b565b80601f01602080910402602001604051908101604052809291908181526020018280546115a190614c8b565b80156115ee5780601f106115c3576101008083540402835291602001916115ee565b820191906000526020600020905b8154815290600101906020018083116115d157829003601f168201915b50505050508152505083838151811061160a57611609614fa2565b5b602002602001018190525050808061162190614c14565b91505061137b565b50809250505090565b6000600b60003373ffffffffffffffffffffffffffffffffffffffff1673ffffffffffffffffffffffffffffffffffffffff16815260200190815260200160002054905060005b600f60008381526020019081526020016000208054905081101561179f5782600f600084815260200190815260200160002082815481106116bd576116bc614fa2565b5b90600052602060002001540361178c57600f60008381526020019081526020016000206001600f6000858152602001908152602001600020805490506117039190614f3a565b8154811061171457611713614fa2565b5b9060005260206000200154600f6000848152602001908152602001600020828154811061174457611743614fa2565b5b9060005260206000200181905550600f600083815260200190815260200160002080548061177557611774614fd1565b5b600190038181906000526020600020016000905590555b808061179790614c14565b915050611679565b505050565b60405180608001604052803373ffffffffffffffffffffffffffffffffffffffff16815260200184815260200183815260200182815250600a6000600560008154809291906117f290614c14565b91905055815260200190815260200160002060008201518160000160006101000a81548173ffffffffffffffffffffffffffffffffffffffff021916908373ffffffffffffffffffffffffffffffffffffffff16021790555060208201518160010190816118609190614e68565b5060408201518160020190816118769190614e68565b50606082015181600301908161188c9190614e68565b50905050505050565b6060600115156118a58333613b4a565b1515146118e7576040517f08c379a00000000000000000000000000000000000000000000000000000000081526004016118de90615083565b60405180910390fd5b600080600090505b600354811015611985578373ffffffffffffffffffffffffffffffffffffffff166008600083815260200190815260200160002060000160009054906101000a900473ffffffffffffffffffffffffffffffffffffffff1673ffffffffffffffffffffffffffffffffffffffff16036119725760018261196f9190614f6e565b91505b808061197d90614c14565b9150506118ef565b5060008167ffffffffffffffff8111156119a2576119a1613e8c565b5b6040519080825280602002602001820160405280156119db57816020015b6119c8613d5c565b8152602001906001900390816119c05790505b50905060005b600354811015611dbd578473ffffffffffffffffffffffffffffffffffffffff166008600083815260200190815260200160002060000160009054906101000a900473ffffffffffffffffffffffffffffffffffffffff1673ffffffffffffffffffffffffffffffffffffffff1603611daa5760008190506000600860008381526020019081526020016000209050806040518060e00160405290816000820160009054906101000a900473ffffffffffffffffffffffffffffffffffffffff1673ffffffffffffffffffffffffffffffffffffffff1673ffffffffffffffffffffffffffffffffffffffff1681526020016001820160009054906101000a900473ffffffffffffffffffffffffffffffffffffffff1673ffffffffffffffffffffffffffffffffffffffff1673ffffffffffffffffffffffffffffffffffffffff168152602001600282018054611b3890614c8b565b80601f0160208091040260200160405190810160405280929190818152602001828054611b6490614c8b565b8015611bb15780601f10611b8657610100808354040283529160200191611bb1565b820191906000526020600020905b815481529060010190602001808311611b9457829003601f168201915b50505050508152602001600382018054611bca90614c8b565b80601f0160208091040260200160405190810160405280929190818152602001828054611bf690614c8b565b8015611c435780601f10611c1857610100808354040283529160200191611c43565b820191906000526020600020905b815481529060010190602001808311611c2657829003601f168201915b50505050508152602001600482018054611c5c90614c8b565b80601f0160208091040260200160405190810160405280929190818152602001828054611c8890614c8b565b8015611cd55780601f10611caa57610100808354040283529160200191611cd5565b820191906000526020600020905b815481529060010190602001808311611cb857829003601f168201915b5050505050815260200160058201548152602001600682018054611cf890614c8b565b80601f0160208091040260200160405190810160405280929190818152602001828054611d2490614c8b565b8015611d715780601f10611d4657610100808354040283529160200191611d71565b820191906000526020600020905b815481529060010190602001808311611d5457829003601f168201915b505050505081525050848381518110611d8d57611d8c614fa2565b5b6020026020010181905250600182611da59190614f6e565b915050505b8080611db590614c14565b9150506119e1565b508092505050919050565b60606000600b60003373ffffffffffffffffffffffffffffffffffffffff1673ffffffffffffffffffffffffffffffffffffffff1681526020019081526020016000205490506000600e60008381526020019081526020016000208054905067ffffffffffffffff811115611e4057611e3f613e8c565b5b604051908082528060200260200182016040528015611e7957816020015b611e66613dc5565b815260200190600190039081611e5e5790505b50905060005b600e6000848152602001908152602001600020805490508110156121bf57600060076000600e60008781526020019081526020016000208481548110611ec857611ec7614fa2565b5b906000526020600020015481526020019081526020016000209050806040518060a00160405290816000820160009054906101000a900473ffffffffffffffffffffffffffffffffffffffff1673ffffffffffffffffffffffffffffffffffffffff1673ffffffffffffffffffffffffffffffffffffffff168152602001600182018054611f5590614c8b565b80601f0160208091040260200160405190810160405280929190818152602001828054611f8190614c8b565b8015611fce5780601f10611fa357610100808354040283529160200191611fce565b820191906000526020600020905b815481529060010190602001808311611fb157829003601f168201915b50505050508152602001600282018054611fe790614c8b565b80601f016020809104026020016040519081016040528092919081815260200182805461201390614c8b565b80156120605780601f1061203557610100808354040283529160200191612060565b820191906000526020600020905b81548152906001019060200180831161204357829003601f168201915b5050505050815260200160038201805461207990614c8b565b80601f01602080910402602001604051908101604052809291908181526020018280546120a590614c8b565b80156120f25780601f106120c7576101008083540402835291602001916120f2565b820191906000526020600020905b8154815290600101906020018083116120d557829003601f168201915b5050505050815260200160048201805461210b90614c8b565b80601f016020809104026020016040519081016040528092919081815260200182805461213790614c8b565b80156121845780601f1061215957610100808354040283529160200191612184565b820191906000526020600020905b81548152906001019060200180831161216757829003601f168201915b5050505050815250508383815181106121a05761219f614fa2565b5b60200260200101819052505080806121b790614c14565b915050611e7f565b50809250505090565b6121d0613e0a565b60066000600b60008573ffffffffffffffffffffffffffffffffffffffff1673ffffffffffffffffffffffffffffffffffffffff1681526020019081526020016000205481526020019081526020016000206040518060e00160405290816000820160009054906101000a900473ffffffffffffffffffffffffffffffffffffffff1673ffffffffffffffffffffffffffffffffffffffff1673ffffffffffffffffffffffffffffffffffffffff16815260200160018201805461229390614c8b565b80601f01602080910402602001604051908101604052809291908181526020018280546122bf90614c8b565b801561230c5780601f106122e15761010080835404028352916020019161230c565b820191906000526020600020905b8154815290600101906020018083116122ef57829003601f168201915b5050505050815260200160028201805461232590614c8b565b80601f016020809104026020016040519081016040528092919081815260200182805461235190614c8b565b801561239e5780601f106123735761010080835404028352916020019161239e565b820191906000526020600020905b81548152906001019060200180831161238157829003601f168201915b505050505081526020016003820180546123b790614c8b565b80601f01602080910402602001604051908101604052809291908181526020018280546123e390614c8b565b80156124305780601f1061240557610100808354040283529160200191612430565b820191906000526020600020905b81548152906001019060200180831161241357829003601f168201915b5050505050815260200160048201805461244990614c8b565b80601f016020809104026020016040519081016040528092919081815260200182805461247590614c8b565b80156124c25780601f10612497576101008083540402835291602001916124c2565b820191906000526020600020905b8154815290600101906020018083116124a557829003601f168201915b50505050508152602001600582015481526020016006820180546124e590614c8b565b80601f016020809104026020016040519081016040528092919081815260200182805461251190614c8b565b801561255e5780601f106125335761010080835404028352916020019161255e565b820191906000526020600020905b81548152906001019060200180831161254157829003601f168201915b5050505050815250509050919050565b6060600060025467ffffffffffffffff81111561258e5761258d613e8c565b5b6040519080825280602002602001820160405280156125c757816020015b6125b4613dc5565b8152602001906001900390816125ac5790505b50905060005b6002548110156128ca576000600760008381526020019081526020016000209050806040518060a00160405290816000820160009054906101000a900473ffffffffffffffffffffffffffffffffffffffff1673ffffffffffffffffffffffffffffffffffffffff1673ffffffffffffffffffffffffffffffffffffffff16815260200160018201805461266090614c8b565b80601f016020809104026020016040519081016040528092919081815260200182805461268c90614c8b565b80156126d95780601f106126ae576101008083540402835291602001916126d9565b820191906000526020600020905b8154815290600101906020018083116126bc57829003601f168201915b505050505081526020016002820180546126f290614c8b565b80601f016020809104026020016040519081016040528092919081815260200182805461271e90614c8b565b801561276b5780601f106127405761010080835404028352916020019161276b565b820191906000526020600020905b81548152906001019060200180831161274e57829003601f168201915b5050505050815260200160038201805461278490614c8b565b80601f01602080910402602001604051908101604052809291908181526020018280546127b090614c8b565b80156127fd5780601f106127d2576101008083540402835291602001916127fd565b820191906000526020600020905b8154815290600101906020018083116127e057829003601f168201915b5050505050815260200160048201805461281690614c8b565b80601f016020809104026020016040519081016040528092919081815260200182805461284290614c8b565b801561288f5780601f106128645761010080835404028352916020019161288f565b820191906000526020600020905b81548152906001019060200180831161287257829003601f168201915b5050505050815250508383815181106128ab576128aa614fa2565b5b60200260200101819052505080806128c290614c14565b9150506125cd565b508091505090565b6060600115156128e28484613c57565b151514612924576040517f08c379a000000000000000000000000000000000000000000000000000000000815260040161291b90615083565b60405180910390fd5b600080600090505b6003548110156129c2578473ffffffffffffffffffffffffffffffffffffffff166008600083815260200190815260200160002060000160009054906101000a900473ffffffffffffffffffffffffffffffffffffffff1673ffffffffffffffffffffffffffffffffffffffff16036129af576001826129ac9190614f6e565b91505b80806129ba90614c14565b91505061292c565b5060008167ffffffffffffffff8111156129df576129de613e8c565b5b604051908082528060200260200182016040528015612a1857816020015b612a05613d5c565b8152602001906001900390816129fd5790505b50905060005b600354811015612dfa578573ffffffffffffffffffffffffffffffffffffffff166008600083815260200190815260200160002060000160009054906101000a900473ffffffffffffffffffffffffffffffffffffffff1673ffffffffffffffffffffffffffffffffffffffff1603612de75760008190506000600860008381526020019081526020016000209050806040518060e00160405290816000820160009054906101000a900473ffffffffffffffffffffffffffffffffffffffff1673ffffffffffffffffffffffffffffffffffffffff1673ffffffffffffffffffffffffffffffffffffffff1681526020016001820160009054906101000a900473ffffffffffffffffffffffffffffffffffffffff1673ffffffffffffffffffffffffffffffffffffffff1673ffffffffffffffffffffffffffffffffffffffff168152602001600282018054612b7590614c8b565b80601f0160208091040260200160405190810160405280929190818152602001828054612ba190614c8b565b8015612bee5780601f10612bc357610100808354040283529160200191612bee565b820191906000526020600020905b815481529060010190602001808311612bd157829003601f168201915b50505050508152602001600382018054612c0790614c8b565b80601f0160208091040260200160405190810160405280929190818152602001828054612c3390614c8b565b8015612c805780601f10612c5557610100808354040283529160200191612c80565b820191906000526020600020905b815481529060010190602001808311612c6357829003601f168201915b50505050508152602001600482018054612c9990614c8b565b80601f0160208091040260200160405190810160405280929190818152602001828054612cc590614c8b565b8015612d125780601f10612ce757610100808354040283529160200191612d12565b820191906000526020600020905b815481529060010190602001808311612cf557829003601f168201915b5050505050815260200160058201548152602001600682018054612d3590614c8b565b80601f0160208091040260200160405190810160405280929190818152602001828054612d6190614c8b565b8015612dae5780601f10612d8357610100808354040283529160200191612dae565b820191906000526020600020905b815481529060010190602001808311612d9157829003601f168201915b505050505081525050848381518110612dca57612dc9614fa2565b5b6020026020010181905250600182612de29190614f6e565b915050505b8080612df290614c14565b915050612a1e565b50809250505092915050565b6040518060e001604052808773ffffffffffffffffffffffffffffffffffffffff1681526020013373ffffffffffffffffffffffffffffffffffffffff168152602001868152602001858152602001848152602001838152602001828152506008600060036000815480929190612e7c90614c14565b91905055815260200190815260200160002060008201518160000160006101000a81548173ffffffffffffffffffffffffffffffffffffffff021916908373ffffffffffffffffffffffffffffffffffffffff16021790555060208201518160010160006101000a81548173ffffffffffffffffffffffffffffffffffffffff021916908373ffffffffffffffffffffffffffffffffffffffff1602179055506040820151816002019081612f319190614e68565b506060820151816003019081612f479190614e68565b506080820151816004019081612f5d9190614e68565b5060a0820151816005015560c0820151816006019081612f7d9190614e68565b50905050505050505050565b6060600080600090505b60015481101561302f5760005b600f60008381526020019081526020016000208054905081101561301b5784600f60008481526020019081526020016000208281548110612fe457612fe3614fa2565b5b906000526020600020015403613008576001836130019190614f6e565b925061301b565b808061301390614c14565b915050612fa0565b50808061302790614c14565b915050612f93565b5060008167ffffffffffffffff81111561304c5761304b613e8c565b5b60405190808252806020026020018201604052801561308557816020015b613072613e0a565b81526020019060019003908161306a5790505b5090506000915060005b6001548110156134a75760005b600f6000838152602001908152602001600020805490508110156134935785600f600084815260200190815260200160002082815481106130e0576130df614fa2565b5b906000526020600020015403613480576000600660008481526020019081526020016000209050806040518060e00160405290816000820160009054906101000a900473ffffffffffffffffffffffffffffffffffffffff1673ffffffffffffffffffffffffffffffffffffffff1673ffffffffffffffffffffffffffffffffffffffff16815260200160018201805461317990614c8b565b80601f01602080910402602001604051908101604052809291908181526020018280546131a590614c8b565b80156131f25780601f106131c7576101008083540402835291602001916131f2565b820191906000526020600020905b8154815290600101906020018083116131d557829003601f168201915b5050505050815260200160028201805461320b90614c8b565b80601f016020809104026020016040519081016040528092919081815260200182805461323790614c8b565b80156132845780601f1061325957610100808354040283529160200191613284565b820191906000526020600020905b81548152906001019060200180831161326757829003601f168201915b5050505050815260200160038201805461329d90614c8b565b80601f01602080910402602001604051908101604052809291908181526020018280546132c990614c8b565b80156133165780601f106132eb57610100808354040283529160200191613316565b820191906000526020600020905b8154815290600101906020018083116132f957829003601f168201915b5050505050815260200160048201805461332f90614c8b565b80601f016020809104026020016040519081016040528092919081815260200182805461335b90614c8b565b80156133a85780601f1061337d576101008083540402835291602001916133a8565b820191906000526020600020905b81548152906001019060200180831161338b57829003601f168201915b50505050508152602001600582015481526020016006820180546133cb90614c8b565b80601f01602080910402602001604051908101604052809291908181526020018280546133f790614c8b565b80156134445780601f1061341957610100808354040283529160200191613444565b820191906000526020600020905b81548152906001019060200180831161342757829003601f168201915b5050505050815250508486815181106134605761345f614fa2565b5b60200260200101819052506001856134789190614f6e565b945050613493565b808061348b90614c14565b91505061309c565b50808061349f90614c14565b91505061308f565b508092505050919050565b6000600c60008373ffffffffffffffffffffffffffffffffffffffff1673ffffffffffffffffffffffffffffffffffffffff1681526020019081526020016000205490506000600b60003373ffffffffffffffffffffffffffffffffffffffff1673ffffffffffffffffffffffffffffffffffffffff16815260200190815260200160002054905060005b600e6000838152602001908152602001600020805490508110156136635782600e6000848152602001908152602001600020828154811061358157613580614fa2565b5b90600052602060002001540361365057600e60008381526020019081526020016000206001600e6000858152602001908152602001600020805490506135c79190614f3a565b815481106135d8576135d7614fa2565b5b9060005260206000200154600e6000848152602001908152602001600020828154811061360857613607614fa2565b5b9060005260206000200181905550600e600083815260200190815260200160002080548061363957613638614fd1565b5b600190038181906000526020600020016000905590555b808061365b90614c14565b91505061353d565b50505050565b6060600080600090505b600354811015613709573373ffffffffffffffffffffffffffffffffffffffff166008600083815260200190815260200160002060000160009054906101000a900473ffffffffffffffffffffffffffffffffffffffff1673ffffffffffffffffffffffffffffffffffffffff16036136f6576001826136f39190614f6e565b91505b808061370190614c14565b915050613673565b5060008167ffffffffffffffff81111561372657613725613e8c565b5b60405190808252806020026020018201604052801561375f57816020015b61374c613d5c565b8152602001906001900390816137445790505b50905060005b600354811015613b41573373ffffffffffffffffffffffffffffffffffffffff166008600083815260200190815260200160002060000160009054906101000a900473ffffffffffffffffffffffffffffffffffffffff1673ffffffffffffffffffffffffffffffffffffffff1603613b2e5760008190506000600860008381526020019081526020016000209050806040518060e00160405290816000820160009054906101000a900473ffffffffffffffffffffffffffffffffffffffff1673ffffffffffffffffffffffffffffffffffffffff1673ffffffffffffffffffffffffffffffffffffffff1681526020016001820160009054906101000a900473ffffffffffffffffffffffffffffffffffffffff1673ffffffffffffffffffffffffffffffffffffffff1673ffffffffffffffffffffffffffffffffffffffff1681526020016002820180546138bc90614c8b565b80601f01602080910402602001604051908101604052809291908181526020018280546138e890614c8b565b80156139355780601f1061390a57610100808354040283529160200191613935565b820191906000526020600020905b81548152906001019060200180831161391857829003601f168201915b5050505050815260200160038201805461394e90614c8b565b80601f016020809104026020016040519081016040528092919081815260200182805461397a90614c8b565b80156139c75780601f1061399c576101008083540402835291602001916139c7565b820191906000526020600020905b8154815290600101906020018083116139aa57829003601f168201915b505050505081526020016004820180546139e090614c8b565b80601f0160208091040260200160405190810160405280929190818152602001828054613a0c90614c8b565b8015613a595780601f10613a2e57610100808354040283529160200191613a59565b820191906000526020600020905b815481529060010190602001808311613a3c57829003601f168201915b5050505050815260200160058201548152602001600682018054613a7c90614c8b565b80601f0160208091040260200160405190810160405280929190818152602001828054613aa890614c8b565b8015613af55780601f10613aca57610100808354040283529160200191613af5565b820191906000526020600020905b815481529060010190602001808311613ad857829003601f168201915b505050505081525050848381518110613b1157613b10614fa2565b5b6020026020010181905250600182613b299190614f6e565b915050505b8080613b3990614c14565b915050613765565b50809250505090565b600080600b60008573ffffffffffffffffffffffffffffffffffffffff1673ffffffffffffffffffffffffffffffffffffffff1681526020019081526020016000205490506000600c60008573ffffffffffffffffffffffffffffffffffffffff1673ffffffffffffffffffffffffffffffffffffffff16815260200190815260200160002054905060005b600e600084815260200190815260200160002080549050811015613c495781600e60008581526020019081526020016000208281548110613c1a57613c19614fa2565b5b906000526020600020015403613c365760019350505050613c51565b8080613c4190614c14565b915050613bd6565b506000925050505b92915050565b600080600b60008573ffffffffffffffffffffffffffffffffffffffff1673ffffffffffffffffffffffffffffffffffffffff16815260200190815260200160002054905060005b600f600083815260200190815260200160002080549050811015613d115783600f60008481526020019081526020016000208281548110613ce357613ce2614fa2565b5b906000526020600020015403613cfe57600192505050613d18565b8080613d0990614c14565b915050613c9f565b5060009150505b92915050565b6040518060800160405280600073ffffffffffffffffffffffffffffffffffffffff1681526020016060815260200160608152602001606081525090565b6040518060e00160405280600073ffffffffffffffffffffffffffffffffffffffff168152602001600073ffffffffffffffffffffffffffffffffffffffff16815260200160608152602001606081526020016060815260200160008152602001606081525090565b6040518060a00160405280600073ffffffffffffffffffffffffffffffffffffffff168152602001606081526020016060815260200160608152602001606081525090565b6040518060e00160405280600073ffffffffffffffffffffffffffffffffffffffff1681526020016060815260200160608152602001606081526020016060815260200160008152602001606081525090565b6000604051905090565b600080fd5b600080fd5b600080fd5b600080fd5b6000601f19601f8301169050919050565b7f4e487b7100000000000000000000000000000000000000000000000000000000600052604160045260246000fd5b613ec482613e7b565b810181811067ffffffffffffffff82111715613ee357613ee2613e8c565b5b80604052505050565b6000613ef6613e5d565b9050613f028282613ebb565b919050565b600067ffffffffffffffff821115613f2257613f21613e8c565b5b613f2b82613e7b565b9050602081019050919050565b82818337600083830152505050565b6000613f5a613f5584613f07565b613eec565b905082815260208101848484011115613f7657613f75613e76565b5b613f81848285613f38565b509392505050565b600082601f830112613f9e57613f9d613e71565b5b8135613fae848260208601613f47565b91505092915050565b6000819050919050565b613fca81613fb7565b8114613fd557600080fd5b50565b600081359050613fe781613fc1565b92915050565b60008060008060008060c0878903121561400a57614009613e67565b5b600087013567ffffffffffffffff81111561402857614027613e6c565b5b61403489828a01613f89565b965050602087013567ffffffffffffffff81111561405557614054613e6c565b5b61406189828a01613f89565b955050604087013567ffffffffffffffff81111561408257614081613e6c565b5b61408e89828a01613f89565b945050606087013567ffffffffffffffff8111156140af576140ae613e6c565b5b6140bb89828a01613f89565b93505060806140cc89828a01613fd8565b92505060a087013567ffffffffffffffff8111156140ed576140ec613e6c565b5b6140f989828a01613f89565b9150509295509295509295565b600081519050919050565b600082825260208201905092915050565b6000819050602082019050919050565b600073ffffffffffffffffffffffffffffffffffffffff82169050919050565b600061415d82614132565b9050919050565b61416d81614152565b82525050565b600081519050919050565b600082825260208201905092915050565b60005b838110156141ad578082015181840152602081019050614192565b60008484015250505050565b60006141c482614173565b6141ce818561417e565b93506141de81856020860161418f565b6141e781613e7b565b840191505092915050565b600060808301600083015161420a6000860182614164565b506020830151848203602086015261422282826141b9565b9150506040830151848203604086015261423c82826141b9565b9150506060830151848203606086015261425682826141b9565b9150508091505092915050565b600061426f83836141f2565b905092915050565b6000602082019050919050565b600061428f82614106565b6142998185614111565b9350836020820285016142ab85614122565b8060005b858110156142e757848403895281516142c88582614263565b94506142d383614277565b925060208a019950506001810190506142af565b50829750879550505050505092915050565b600060208201905081810360008301526143138184614284565b905092915050565b60008060006060848603121561433457614333613e67565b5b600084013567ffffffffffffffff81111561435257614351613e6c565b5b61435e86828701613f89565b935050602084013567ffffffffffffffff81111561437f5761437e613e6c565b5b61438b86828701613f89565b925050604084013567ffffffffffffffff8111156143ac576143ab613e6c565b5b6143b886828701613f89565b9150509250925092565b600081519050919050565b600082825260208201905092915050565b6000819050602082019050919050565b6143f781613fb7565b82525050565b600060e0830160008301516144156000860182614164565b5060208301516144286020860182614164565b506040830151848203604086015261444082826141b9565b9150506060830151848203606086015261445a82826141b9565b9150506080830151848203608086015261447482826141b9565b91505060a083015161448960a08601826143ee565b5060c083015184820360c08601526144a182826141b9565b9150508091505092915050565b60006144ba83836143fd565b905092915050565b6000602082019050919050565b60006144da826143c2565b6144e481856143cd565b9350836020820285016144f6856143de565b8060005b85811015614532578484038952815161451385826144ae565b945061451e836144c2565b925060208a019950506001810190506144fa565b50829750879550505050505092915050565b6000602082019050818103600083015261455e81846144cf565b905092915050565b60006020828403121561457c5761457b613e67565b5b600061458a84828501613fd8565b91505092915050565b61459c81614152565b81146145a757600080fd5b50565b6000813590506145b981614593565b92915050565b6000602082840312156145d5576145d4613e67565b5b60006145e3848285016145aa565b91505092915050565b6000806000806080858703121561460657614605613e67565b5b600085013567ffffffffffffffff81111561462457614623613e6c565b5b61463087828801613f89565b945050602085013567ffffffffffffffff81111561465157614650613e6c565b5b61465d87828801613f89565b935050604085013567ffffffffffffffff81111561467e5761467d613e6c565b5b61468a87828801613f89565b925050606085013567ffffffffffffffff8111156146ab576146aa613e6c565b5b6146b787828801613f89565b91505092959194509250565b600081519050919050565b600082825260208201905092915050565b6000819050602082019050919050565b600060a0830160008301516147076000860182614164565b506020830151848203602086015261471f82826141b9565b9150506040830151848203604086015261473982826141b9565b9150506060830151848203606086015261475382826141b9565b9150506080830151848203608086015261476d82826141b9565b9150508091505092915050565b600061478683836146ef565b905092915050565b6000602082019050919050565b60006147a6826146c3565b6147b081856146ce565b9350836020820285016147c2856146df565b8060005b858110156147fe57848403895281516147df858261477a565b94506147ea8361478e565b925060208a019950506001810190506147c6565b50829750879550505050505092915050565b6000602082019050818103600083015261482a818461479b565b905092915050565b600060e08301600083015161484a6000860182614164565b506020830151848203602086015261486282826141b9565b9150506040830151848203604086015261487c82826141b9565b9150506060830151848203606086015261489682826141b9565b915050608083015184820360808601526148b082826141b9565b91505060a08301516148c560a08601826143ee565b5060c083015184820360c08601526148dd82826141b9565b9150508091505092915050565b600060208201905081810360008301526149048184614832565b905092915050565b6000806040838503121561492357614922613e67565b5b6000614931858286016145aa565b925050602061494285828601613fd8565b9150509250929050565b60008060008060008060c0878903121561496957614968613e67565b5b600061497789828a016145aa565b965050602087013567ffffffffffffffff81111561499857614997613e6c565b5b6149a489828a01613f89565b955050604087013567ffffffffffffffff8111156149c5576149c4613e6c565b5b6149d189828a01613f89565b945050606087013567ffffffffffffffff8111156149f2576149f1613e6c565b5b6149fe89828a01613f89565b9350506080614a0f89828a01613fd8565b92505060a087013567ffffffffffffffff811115614a3057614a2f613e6c565b5b614a3c89828a01613f89565b9150509295509295509295565b600081519050919050565b600082825260208201905092915050565b6000819050602082019050919050565b600060e083016000830151614a8d6000860182614164565b5060208301518482036020860152614aa582826141b9565b91505060408301518482036040860152614abf82826141b9565b91505060608301518482036060860152614ad982826141b9565b91505060808301518482036080860152614af382826141b9565b91505060a0830151614b0860a08601826143ee565b5060c083015184820360c0860152614b2082826141b9565b9150508091505092915050565b6000614b398383614a75565b905092915050565b6000602082019050919050565b6000614b5982614a49565b614b638185614a54565b935083602082028501614b7585614a65565b8060005b85811015614bb15784840389528151614b928582614b2d565b9450614b9d83614b41565b925060208a01995050600181019050614b79565b50829750879550505050505092915050565b60006020820190508181036000830152614bdd8184614b4e565b905092915050565b7f4e487b7100000000000000000000000000000000000000000000000000000000600052601160045260246000fd5b6000614c1f82613fb7565b91507fffffffffffffffffffffffffffffffffffffffffffffffffffffffffffffffff8203614c5157614c50614be5565b5b600182019050919050565b7f4e487b7100000000000000000000000000000000000000000000000000000000600052602260045260246000fd5b60006002820490506001821680614ca357607f821691505b602082108103614cb657614cb5614c5c565b5b50919050565b60008190508160005260206000209050919050565b60006020601f8301049050919050565b600082821b905092915050565b600060088302614d1e7fffffffffffffffffffffffffffffffffffffffffffffffffffffffffffffffff82614ce1565b614d288683614ce1565b95508019841693508086168417925050509392505050565b6000819050919050565b6000614d65614d60614d5b84613fb7565b614d40565b613fb7565b9050919050565b6000819050919050565b614d7f83614d4a565b614d93614d8b82614d6c565b848454614cee565b825550505050565b600090565b614da8614d9b565b614db3818484614d76565b505050565b5b81811015614dd757614dcc600082614da0565b600181019050614db9565b5050565b601f821115614e1c57614ded81614cbc565b614df684614cd1565b81016020851015614e05578190505b614e19614e1185614cd1565b830182614db8565b50505b505050565b600082821c905092915050565b6000614e3f60001984600802614e21565b1980831691505092915050565b6000614e588383614e2e565b9150826002028217905092915050565b614e7182614173565b67ffffffffffffffff811115614e8a57614e89613e8c565b5b614e948254614c8b565b614e9f828285614ddb565b600060209050601f831160018114614ed25760008415614ec0578287015190505b614eca8582614e4c565b865550614f32565b601f198416614ee086614cbc565b60005b82811015614f0857848901518255600182019150602085019450602081019050614ee3565b86831015614f255784890151614f21601f891682614e2e565b8355505b6001600288020188555050505b505050505050565b6000614f4582613fb7565b9150614f5083613fb7565b9250828203905081811115614f6857614f67614be5565b5b92915050565b6000614f7982613fb7565b9150614f8483613fb7565b9250828201905080821115614f9c57614f9b614be5565b5b92915050565b7f4e487b7100000000000000000000000000000000000000000000000000000000600052603260045260246000fd5b7f4e487b7100000000000000000000000000000000000000000000000000000000600052603160045260246000fd5b600082825260208201905092915050565b7f446f6573206e6f7420686173207468652061636365737320746f20666574636860008201527f2074686520646f63756d656e7473000000000000000000000000000000000000602082015250565b600061506d602e83615000565b915061507882615011565b604082019050919050565b6000602082019050818103600083015261509c81615060565b905091905056fea2646970667358221220487c32751b5efacd9eb78b06300bd22b84b80c37a7fc435424683f790eddbd8964736f6c63430008110033",
  "linkReferences": {},
  "deployedLinkReferences": {}
}