{
	"_format": "hh-sol-artifact-1",
	"contractName": "EHR",
	"sourceName": "contracts/EHR.sol",
	"abi": [
		{
			"inputs": [],
			"stateMutability": "nonpayable",
			"type": "constructor"
		},
		{
			"inputs": [],
			"name": "checkRole",
			"outputs": [
				{
					"internalType": "uint256",
					"name": "",
					"type": "uint256"
				}
			],
			"stateMutability": "view",
			"type": "function"
		},
		{
			"inputs": [
				{
					"internalType": "address",
					"name": "userAdd",
					"type": "address"
				},
				{
					"internalType": "string",
					"name": "docName",
					"type": "string"
				},
				{
					"internalType": "string",
					"name": "recordHash",
					"type": "string"
				},
				{
					"internalType": "string",
					"name": "recordName",
					"type": "string"
				},
				{
					"internalType": "string",
					"name": "issueDate",
					"type": "string"
				},
				{
					"internalType": "string",
					"name": "testSuggested",
					"type": "string"
				}
			],
			"name": "createNewRecord",
			"outputs": [],
			"stateMutability": "nonpayable",
			"type": "function"
		},
		{
			"inputs": [
				{
					"internalType": "string",
					"name": "name",
					"type": "string"
				},
				{
					"internalType": "string",
					"name": "description",
					"type": "string"
				},
				{
					"internalType": "string",
					"name": "cid",
					"type": "string"
				},
				{
					"internalType": "string",
					"name": "cidName",
					"type": "string"
				}
			],
			"name": "createNewResearch",
			"outputs": [],
			"stateMutability": "nonpayable",
			"type": "function"
		},
		{
			"inputs": [],
			"name": "fetchAllHospitals",
			"outputs": [
				{
					"components": [
						{
							"internalType": "address",
							"name": "hosAdd",
							"type": "address"
						},
						{
							"internalType": "string",
							"name": "name",
							"type": "string"
						},
						{
							"internalType": "string",
							"name": "personalAdd",
							"type": "string"
						},
						{
							"internalType": "string",
							"name": "emailId",
							"type": "string"
						},
						{
							"internalType": "string",
							"name": "contactNo",
							"type": "string"
						}
					],
					"internalType": "struct EHR.Hospital[]",
					"name": "",
					"type": "tuple[]"
				}
			],
			"stateMutability": "view",
			"type": "function"
		},
		{
			"inputs": [],
			"name": "fetchAllResearchs",
			"outputs": [
				{
					"components": [
						{
							"internalType": "uint256",
							"name": "id",
							"type": "uint256"
						},
						{
							"internalType": "address",
							"name": "orgAdd",
							"type": "address"
						},
						{
							"internalType": "string",
							"name": "name",
							"type": "string"
						},
						{
							"internalType": "string",
							"name": "description",
							"type": "string"
						},
						{
							"internalType": "string",
							"name": "cid",
							"type": "string"
						},
						{
							"internalType": "string",
							"name": "cidName",
							"type": "string"
						}
					],
					"internalType": "struct EHR.Research[]",
					"name": "",
					"type": "tuple[]"
				}
			],
			"stateMutability": "view",
			"type": "function"
		},
		{
			"inputs": [
				{
					"internalType": "uint256",
					"name": "researchId",
					"type": "uint256"
				}
			],
			"name": "fetchAllUsersForResearch",
			"outputs": [
				{
					"components": [
						{
							"internalType": "address",
							"name": "userAdd",
							"type": "address"
						},
						{
							"internalType": "string",
							"name": "name",
							"type": "string"
						},
						{
							"internalType": "string",
							"name": "personalAdd",
							"type": "string"
						},
						{
							"internalType": "string",
							"name": "emailId",
							"type": "string"
						},
						{
							"internalType": "string",
							"name": "mobileNo",
							"type": "string"
						},
						{
							"internalType": "uint256",
							"name": "gender",
							"type": "uint256"
						},
						{
							"internalType": "string",
							"name": "dob",
							"type": "string"
						}
					],
					"internalType": "struct EHR.User[]",
					"name": "",
					"type": "tuple[]"
				}
			],
			"stateMutability": "view",
			"type": "function"
		},
		{
			"inputs": [
				{
					"internalType": "address",
					"name": "hospitalAddress",
					"type": "address"
				}
			],
			"name": "fetchHospitalByAddress",
			"outputs": [
				{
					"components": [
						{
							"internalType": "address",
							"name": "hosAdd",
							"type": "address"
						},
						{
							"internalType": "string",
							"name": "name",
							"type": "string"
						},
						{
							"internalType": "string",
							"name": "personalAdd",
							"type": "string"
						},
						{
							"internalType": "string",
							"name": "emailId",
							"type": "string"
						},
						{
							"internalType": "string",
							"name": "contactNo",
							"type": "string"
						}
					],
					"internalType": "struct EHR.Hospital",
					"name": "",
					"type": "tuple"
				}
			],
			"stateMutability": "view",
			"type": "function"
		},
		{
			"inputs": [],
			"name": "fetchMyDocuments",
			"outputs": [
				{
					"components": [
						{
							"internalType": "address",
							"name": "userAdd",
							"type": "address"
						},
						{
							"internalType": "address",
							"name": "hosAdd",
							"type": "address"
						},
						{
							"internalType": "string",
							"name": "docName",
							"type": "string"
						},
						{
							"internalType": "string",
							"name": "recordHash",
							"type": "string"
						},
						{
							"internalType": "string",
							"name": "recordName",
							"type": "string"
						},
						{
							"internalType": "string",
							"name": "issueDate",
							"type": "string"
						},
						{
							"internalType": "string",
							"name": "testSuggested",
							"type": "string"
						}
					],
					"internalType": "struct EHR.Record[]",
					"name": "",
					"type": "tuple[]"
				}
			],
			"stateMutability": "view",
			"type": "function"
		},
		{
			"inputs": [],
			"name": "fetchMyHospitalAccessList",
			"outputs": [
				{
					"components": [
						{
							"internalType": "address",
							"name": "hosAdd",
							"type": "address"
						},
						{
							"internalType": "string",
							"name": "name",
							"type": "string"
						},
						{
							"internalType": "string",
							"name": "personalAdd",
							"type": "string"
						},
						{
							"internalType": "string",
							"name": "emailId",
							"type": "string"
						},
						{
							"internalType": "string",
							"name": "contactNo",
							"type": "string"
						}
					],
					"internalType": "struct EHR.Hospital[]",
					"name": "",
					"type": "tuple[]"
				}
			],
			"stateMutability": "view",
			"type": "function"
		},
		{
			"inputs": [],
			"name": "fetchMyResearchAccessList",
			"outputs": [
				{
					"components": [
						{
							"internalType": "uint256",
							"name": "id",
							"type": "uint256"
						},
						{
							"internalType": "address",
							"name": "orgAdd",
							"type": "address"
						},
						{
							"internalType": "string",
							"name": "name",
							"type": "string"
						},
						{
							"internalType": "string",
							"name": "description",
							"type": "string"
						},
						{
							"internalType": "string",
							"name": "cid",
							"type": "string"
						},
						{
							"internalType": "string",
							"name": "cidName",
							"type": "string"
						}
					],
					"internalType": "struct EHR.Research[]",
					"name": "",
					"type": "tuple[]"
				}
			],
			"stateMutability": "view",
			"type": "function"
		},
		{
			"inputs": [],
			"name": "fetchMyResearchs",
			"outputs": [
				{
					"components": [
						{
							"internalType": "uint256",
							"name": "id",
							"type": "uint256"
						},
						{
							"internalType": "address",
							"name": "orgAdd",
							"type": "address"
						},
						{
							"internalType": "string",
							"name": "name",
							"type": "string"
						},
						{
							"internalType": "string",
							"name": "description",
							"type": "string"
						},
						{
							"internalType": "string",
							"name": "cid",
							"type": "string"
						},
						{
							"internalType": "string",
							"name": "cidName",
							"type": "string"
						}
					],
					"internalType": "struct EHR.Research[]",
					"name": "",
					"type": "tuple[]"
				}
			],
			"stateMutability": "view",
			"type": "function"
		},
		{
			"inputs": [
				{
					"internalType": "address",
					"name": "orgAddress",
					"type": "address"
				}
			],
			"name": "fetchOrganizationByAddress",
			"outputs": [
				{
					"components": [
						{
							"internalType": "address",
							"name": "orgAdd",
							"type": "address"
						},
						{
							"internalType": "string",
							"name": "name",
							"type": "string"
						},
						{
							"internalType": "string",
							"name": "emailId",
							"type": "string"
						},
						{
							"internalType": "string",
							"name": "contactNo",
							"type": "string"
						}
					],
					"internalType": "struct EHR.ResearchOrg",
					"name": "",
					"type": "tuple"
				}
			],
			"stateMutability": "view",
			"type": "function"
		},
		{
			"inputs": [
				{
					"internalType": "uint256",
					"name": "id",
					"type": "uint256"
				}
			],
			"name": "fetchResearchById",
			"outputs": [
				{
					"components": [
						{
							"internalType": "uint256",
							"name": "id",
							"type": "uint256"
						},
						{
							"internalType": "address",
							"name": "orgAdd",
							"type": "address"
						},
						{
							"internalType": "string",
							"name": "name",
							"type": "string"
						},
						{
							"internalType": "string",
							"name": "description",
							"type": "string"
						},
						{
							"internalType": "string",
							"name": "cid",
							"type": "string"
						},
						{
							"internalType": "string",
							"name": "cidName",
							"type": "string"
						}
					],
					"internalType": "struct EHR.Research",
					"name": "",
					"type": "tuple"
				}
			],
			"stateMutability": "view",
			"type": "function"
		},
		{
			"inputs": [
				{
					"internalType": "address",
					"name": "userAddress",
					"type": "address"
				}
			],
			"name": "fetchUserByAddress",
			"outputs": [
				{
					"components": [
						{
							"internalType": "address",
							"name": "userAdd",
							"type": "address"
						},
						{
							"internalType": "string",
							"name": "name",
							"type": "string"
						},
						{
							"internalType": "string",
							"name": "personalAdd",
							"type": "string"
						},
						{
							"internalType": "string",
							"name": "emailId",
							"type": "string"
						},
						{
							"internalType": "string",
							"name": "mobileNo",
							"type": "string"
						},
						{
							"internalType": "uint256",
							"name": "gender",
							"type": "uint256"
						},
						{
							"internalType": "string",
							"name": "dob",
							"type": "string"
						}
					],
					"internalType": "struct EHR.User",
					"name": "",
					"type": "tuple"
				}
			],
			"stateMutability": "view",
			"type": "function"
		},
		{
			"inputs": [
				{
					"internalType": "address",
					"name": "userAddress",
					"type": "address"
				}
			],
			"name": "fetchUserDocumentsForHospital",
			"outputs": [
				{
					"components": [
						{
							"internalType": "address",
							"name": "userAdd",
							"type": "address"
						},
						{
							"internalType": "address",
							"name": "hosAdd",
							"type": "address"
						},
						{
							"internalType": "string",
							"name": "docName",
							"type": "string"
						},
						{
							"internalType": "string",
							"name": "recordHash",
							"type": "string"
						},
						{
							"internalType": "string",
							"name": "recordName",
							"type": "string"
						},
						{
							"internalType": "string",
							"name": "issueDate",
							"type": "string"
						},
						{
							"internalType": "string",
							"name": "testSuggested",
							"type": "string"
						}
					],
					"internalType": "struct EHR.Record[]",
					"name": "",
					"type": "tuple[]"
				}
			],
			"stateMutability": "view",
			"type": "function"
		},
		{
			"inputs": [
				{
					"internalType": "address",
					"name": "userAddress",
					"type": "address"
				},
				{
					"internalType": "uint256",
					"name": "researchId",
					"type": "uint256"
				}
			],
			"name": "fetchUserDocumentsForResearch",
			"outputs": [
				{
					"components": [
						{
							"internalType": "address",
							"name": "userAdd",
							"type": "address"
						},
						{
							"internalType": "address",
							"name": "hosAdd",
							"type": "address"
						},
						{
							"internalType": "string",
							"name": "docName",
							"type": "string"
						},
						{
							"internalType": "string",
							"name": "recordHash",
							"type": "string"
						},
						{
							"internalType": "string",
							"name": "recordName",
							"type": "string"
						},
						{
							"internalType": "string",
							"name": "issueDate",
							"type": "string"
						},
						{
							"internalType": "string",
							"name": "testSuggested",
							"type": "string"
						}
					],
					"internalType": "struct EHR.Record[]",
					"name": "",
					"type": "tuple[]"
				}
			],
			"stateMutability": "view",
			"type": "function"
		},
		{
			"inputs": [],
			"name": "getAllHospitalRecords",
			"outputs": [
				{
					"components": [
						{
							"internalType": "address",
							"name": "userAdd",
							"type": "address"
						},
						{
							"internalType": "address",
							"name": "hosAdd",
							"type": "address"
						},
						{
							"internalType": "string",
							"name": "docName",
							"type": "string"
						},
						{
							"internalType": "string",
							"name": "recordHash",
							"type": "string"
						},
						{
							"internalType": "string",
							"name": "recordName",
							"type": "string"
						},
						{
							"internalType": "string",
							"name": "issueDate",
							"type": "string"
						},
						{
							"internalType": "string",
							"name": "testSuggested",
							"type": "string"
						}
					],
					"internalType": "struct EHR.Record[]",
					"name": "",
					"type": "tuple[]"
				}
			],
			"stateMutability": "view",
			"type": "function"
		},
		{
			"inputs": [
				{
					"internalType": "address",
					"name": "hospitalAddress",
					"type": "address"
				}
			],
			"name": "grantAccessToHospital",
			"outputs": [],
			"stateMutability": "nonpayable",
			"type": "function"
		},
		{
			"inputs": [
				{
					"internalType": "uint256",
					"name": "researchId",
					"type": "uint256"
				}
			],
			"name": "grantAccessToResearch",
			"outputs": [],
			"stateMutability": "nonpayable",
			"type": "function"
		},
		{
			"inputs": [
				{
					"internalType": "address",
					"name": "userAddress",
					"type": "address"
				},
				{
					"internalType": "address",
					"name": "hospitalAddress",
					"type": "address"
				}
			],
			"name": "hasUserRecordAccessForHospital",
			"outputs": [
				{
					"internalType": "bool",
					"name": "",
					"type": "bool"
				}
			],
			"stateMutability": "view",
			"type": "function"
		},
		{
			"inputs": [
				{
					"internalType": "address",
					"name": "userAddress",
					"type": "address"
				},
				{
					"internalType": "uint256",
					"name": "researchId",
					"type": "uint256"
				}
			],
			"name": "hasUserRecordAccessForResearch",
			"outputs": [
				{
					"internalType": "bool",
					"name": "",
					"type": "bool"
				}
			],
			"stateMutability": "view",
			"type": "function"
		},
		{
			"inputs": [
				{
					"internalType": "string",
					"name": "name",
					"type": "string"
				},
				{
					"internalType": "string",
					"name": "personalAdd",
					"type": "string"
				},
				{
					"internalType": "string",
					"name": "emailId",
					"type": "string"
				},
				{
					"internalType": "string",
					"name": "mobileNo",
					"type": "string"
				}
			],
			"name": "registerHospital",
			"outputs": [],
			"stateMutability": "nonpayable",
			"type": "function"
		},
		{
			"inputs": [
				{
					"internalType": "string",
					"name": "name",
					"type": "string"
				},
				{
					"internalType": "string",
					"name": "emailId",
					"type": "string"
				},
				{
					"internalType": "string",
					"name": "mobileNo",
					"type": "string"
				}
			],
			"name": "registerResearchOrg",
			"outputs": [],
			"stateMutability": "nonpayable",
			"type": "function"
		},
		{
			"inputs": [
				{
					"internalType": "string",
					"name": "name",
					"type": "string"
				},
				{
					"internalType": "string",
					"name": "personalAdd",
					"type": "string"
				},
				{
					"internalType": "string",
					"name": "emailId",
					"type": "string"
				},
				{
					"internalType": "string",
					"name": "mobileNo",
					"type": "string"
				},
				{
					"internalType": "uint256",
					"name": "gender",
					"type": "uint256"
				},
				{
					"internalType": "string",
					"name": "dob",
					"type": "string"
				}
			],
			"name": "registerUser",
			"outputs": [],
			"stateMutability": "nonpayable",
			"type": "function"
		},
		{
			"inputs": [
				{
					"internalType": "address",
					"name": "hospitalAddress",
					"type": "address"
				}
			],
			"name": "removeAccessFromHospital",
			"outputs": [],
			"stateMutability": "nonpayable",
			"type": "function"
		},
		{
			"inputs": [
				{
					"internalType": "uint256",
					"name": "researchId",
					"type": "uint256"
				}
			],
			"name": "removeAccessFromResearch",
			"outputs": [],
			"stateMutability": "nonpayable",
			"type": "function"
		}
	],
	"bytecode": "0x608060405234801561001057600080fd5b50336000806101000a81548173ffffffffffffffffffffffffffffffffffffffff021916908373ffffffffffffffffffffffffffffffffffffffff16021790555061681780620000616000396000f3fe608060405234801561001057600080fd5b506004361061018e5760003560e01c806354053ea8116100de5780639f900a1811610097578063c444411d11610071578063c444411d14610495578063da8da731146104c5578063edf9e00a146104f5578063f95ad8fd146105115761018e565b80639f900a1814610417578063b415317614610447578063baa719dc146104775761018e565b806354053ea81461032f578063684217a61461034d578063849326f2146103695780638aeab380146103995780639d27643b146103b75780639ea271d5146103e75761018e565b8063245e7f951161014b57806341bd117c1161012557806341bd117c146102ab5780634630d73b146102c75780634c828df8146102e35780634df6f28d146103135761018e565b8063245e7f951461023f578063272620b91461025d5780633c51fad51461028d5761018e565b806302539bd8146101935780630482aa82146101af578063166fb618146101cd5780631be8530e146101e957806321f4392b14610207578063223a6d3414610223575b600080fd5b6101ad60048036038101906101a89190615463565b61052f565b005b6101b76106be565b6040516101c49190615595565b60405180910390f35b6101e760048036038101906101e291906155dc565b6107eb565b005b6101f16109d0565b6040516101fe91906158f2565b60405180910390f35b610221600480360381019061021c9190615914565b610e59565b005b61023d600480360381019061023891906159eb565b610f7f565b005b61024761111a565b6040516102549190615c0c565b60405180910390f35b61027760048036038101906102729190615c2e565b611683565b6040516102849190615cf9565b60405180910390f35b610295611958565b6040516102a291906158f2565b60405180910390f35b6102c560048036038101906102c09190615c2e565b611cc6565b005b6102e160048036038101906102dc9190615d1b565b611dbb565b005b6102fd60048036038101906102f89190615d48565b611ef6565b60405161030a9190615da3565b60405180910390f35b61032d60048036038101906103289190615914565b612003565b005b6103376121bb565b60405161034491906158f2565b60405180910390f35b61036760048036038101906103629190615c2e565b6125c5565b005b610383600480360381019061037e9190615d1b565b612737565b6040516103909190615c0c565b60405180910390f35b6103a1612cf2565b6040516103ae9190615f0b565b60405180910390f35b6103d160048036038101906103cc9190615f2d565b6130f2565b6040516103de9190615da3565b60405180910390f35b61040160048036038101906103fc9190615d1b565b6131b9565b60405161040e9190615fde565b60405180910390f35b610431600480360381019061042c9190615d1b565b613431565b60405161043e91906160b8565b60405180910390f35b610461600480360381019061045c9190615d1b565b6137d7565b60405161046e9190616165565b60405180910390f35b61047f613ae1565b60405161048c9190615f0b565b60405180910390f35b6104af60048036038101906104aa9190615f2d565b613e45565b6040516104bc9190615c0c565b60405180910390f35b6104df60048036038101906104da9190615c2e565b614401565b6040516104ec9190616301565b60405180910390f35b61050f600480360381019061050a9190615d1b565b61492a565b005b610519614ae1565b6040516105269190615c0c565b60405180910390f35b6040518060e001604052808773ffffffffffffffffffffffffffffffffffffffff1681526020013373ffffffffffffffffffffffffffffffffffffffff1681526020018681526020018581526020018481526020018381526020018281525060086000600360008154809291906105a590616352565b91905055815260200190815260200160002060008201518160000160006101000a81548173ffffffffffffffffffffffffffffffffffffffff021916908373ffffffffffffffffffffffffffffffffffffffff16021790555060208201518160010160006101000a81548173ffffffffffffffffffffffffffffffffffffffff021916908373ffffffffffffffffffffffffffffffffffffffff160217905550604082015181600201908161065a91906165a6565b50606082015181600301908161067091906165a6565b50608082015181600401908161068691906165a6565b5060a082015181600501908161069c91906165a6565b5060c08201518160060190816106b291906165a6565b50905050505050505050565b600060011515600e60003373ffffffffffffffffffffffffffffffffffffffff1673ffffffffffffffffffffffffffffffffffffffff16815260200190815260200160002060009054906101000a900460ff1615150361072157600190506107e8565b60011515600f60003373ffffffffffffffffffffffffffffffffffffffff1673ffffffffffffffffffffffffffffffffffffffff16815260200190815260200160002060009054906101000a900460ff1615150361078257600290506107e8565b60011515601060003373ffffffffffffffffffffffffffffffffffffffff1673ffffffffffffffffffffffffffffffffffffffff16815260200190815260200160002060009054906101000a900460ff161515036107e357600390506107e8565b600090505b90565b6040518060e001604052803373ffffffffffffffffffffffffffffffffffffffff16815260200187815260200186815260200185815260200184815260200183815260200182815250600660006001600081548092919061084b90616352565b91905055815260200190815260200160002060008201518160000160006101000a81548173ffffffffffffffffffffffffffffffffffffffff021916908373ffffffffffffffffffffffffffffffffffffffff16021790555060208201518160010190816108b991906165a6565b5060408201518160020190816108cf91906165a6565b5060608201518160030190816108e591906165a6565b5060808201518160040190816108fb91906165a6565b5060a0820151816005015560c082015181600601908161091b91906165a6565b509050506001805461092d9190616678565b600b60003373ffffffffffffffffffffffffffffffffffffffff1673ffffffffffffffffffffffffffffffffffffffff168152602001908152602001600020819055506001600e60003373ffffffffffffffffffffffffffffffffffffffff1673ffffffffffffffffffffffffffffffffffffffff16815260200190815260200160002060006101000a81548160ff021916908315150217905550505050505050565b6060600080600090505b600554811015610a70573373ffffffffffffffffffffffffffffffffffffffff16600a600083815260200190815260200160002060010160009054906101000a900473ffffffffffffffffffffffffffffffffffffffff1673ffffffffffffffffffffffffffffffffffffffff1603610a5d57600182610a5a91906166ac565b91505b8080610a6890616352565b9150506109da565b5060008167ffffffffffffffff811115610a8d57610a8c615338565b5b604051908082528060200260200182016040528015610ac657816020015b610ab3615120565b815260200190600190039081610aab5790505b5090506000915060005b600554811015610e50573373ffffffffffffffffffffffffffffffffffffffff16600a600083815260200190815260200160002060010160009054906101000a900473ffffffffffffffffffffffffffffffffffffffff1673ffffffffffffffffffffffffffffffffffffffff1603610e3d576000600a60008381526020019081526020016000209050806040518060c0016040529081600082015481526020016001820160009054906101000a900473ffffffffffffffffffffffffffffffffffffffff1673ffffffffffffffffffffffffffffffffffffffff1673ffffffffffffffffffffffffffffffffffffffff168152602001600282018054610bd6906163c9565b80601f0160208091040260200160405190810160405280929190818152602001828054610c02906163c9565b8015610c4f5780601f10610c2457610100808354040283529160200191610c4f565b820191906000526020600020905b815481529060010190602001808311610c3257829003601f168201915b50505050508152602001600382018054610c68906163c9565b80601f0160208091040260200160405190810160405280929190818152602001828054610c94906163c9565b8015610ce15780601f10610cb657610100808354040283529160200191610ce1565b820191906000526020600020905b815481529060010190602001808311610cc457829003601f168201915b50505050508152602001600482018054610cfa906163c9565b80601f0160208091040260200160405190810160405280929190818152602001828054610d26906163c9565b8015610d735780601f10610d4857610100808354040283529160200191610d73565b820191906000526020600020905b815481529060010190602001808311610d5657829003601f168201915b50505050508152602001600582018054610d8c906163c9565b80601f0160208091040260200160405190810160405280929190818152602001828054610db8906163c9565b8015610e055780601f10610dda57610100808354040283529160200191610e05565b820191906000526020600020905b815481529060010190602001808311610de857829003601f168201915b505050505081525050838581518110610e2157610e206166e0565b5b6020026020010181905250600184610e3991906166ac565b9350505b8080610e4890616352565b915050610ad0565b50809250505090565b6040518060c0016040528060055481526020013373ffffffffffffffffffffffffffffffffffffffff16815260200185815260200184815260200183815260200182815250600a600060055481526020019081526020016000206000820151816000015560208201518160010160006101000a81548173ffffffffffffffffffffffffffffffffffffffff021916908373ffffffffffffffffffffffffffffffffffffffff1602179055506040820151816002019081610f1991906165a6565b506060820151816003019081610f2f91906165a6565b506080820151816004019081610f4591906165a6565b5060a0820151816005019081610f5b91906165a6565b50905050600160056000828254610f7291906166ac565b9250508190555050505050565b60405180608001604052803373ffffffffffffffffffffffffffffffffffffffff168152602001848152602001838152602001828152506009600060046000815480929190610fcd90616352565b91905055815260200190815260200160002060008201518160000160006101000a81548173ffffffffffffffffffffffffffffffffffffffff021916908373ffffffffffffffffffffffffffffffffffffffff160217905550602082015181600101908161103b91906165a6565b50604082015181600201908161105191906165a6565b50606082015181600301908161106791906165a6565b50905050600160045461107a9190616678565b600d60003373ffffffffffffffffffffffffffffffffffffffff1673ffffffffffffffffffffffffffffffffffffffff168152602001908152602001600020819055506001601060003373ffffffffffffffffffffffffffffffffffffffff1673ffffffffffffffffffffffffffffffffffffffff16815260200190815260200160002060006101000a81548160ff021916908315150217905550505050565b6060600080600090505b6003548110156111ba573373ffffffffffffffffffffffffffffffffffffffff166008600083815260200190815260200160002060010160009054906101000a900473ffffffffffffffffffffffffffffffffffffffff1673ffffffffffffffffffffffffffffffffffffffff16036111a7576001826111a491906166ac565b91505b80806111b290616352565b915050611124565b5060008167ffffffffffffffff8111156111d7576111d6615338565b5b60405190808252806020026020018201604052801561121057816020015b6111fd61516c565b8152602001906001900390816111f55790505b50905060005b60035481101561167a573373ffffffffffffffffffffffffffffffffffffffff166008600083815260200190815260200160002060010160009054906101000a900473ffffffffffffffffffffffffffffffffffffffff1673ffffffffffffffffffffffffffffffffffffffff16036116675760008190506000600860008381526020019081526020016000209050806040518060e00160405290816000820160009054906101000a900473ffffffffffffffffffffffffffffffffffffffff1673ffffffffffffffffffffffffffffffffffffffff1673ffffffffffffffffffffffffffffffffffffffff1681526020016001820160009054906101000a900473ffffffffffffffffffffffffffffffffffffffff1673ffffffffffffffffffffffffffffffffffffffff1673ffffffffffffffffffffffffffffffffffffffff16815260200160028201805461136d906163c9565b80601f0160208091040260200160405190810160405280929190818152602001828054611399906163c9565b80156113e65780601f106113bb576101008083540402835291602001916113e6565b820191906000526020600020905b8154815290600101906020018083116113c957829003601f168201915b505050505081526020016003820180546113ff906163c9565b80601f016020809104026020016040519081016040528092919081815260200182805461142b906163c9565b80156114785780601f1061144d57610100808354040283529160200191611478565b820191906000526020600020905b81548152906001019060200180831161145b57829003601f168201915b50505050508152602001600482018054611491906163c9565b80601f01602080910402602001604051908101604052809291908181526020018280546114bd906163c9565b801561150a5780601f106114df5761010080835404028352916020019161150a565b820191906000526020600020905b8154815290600101906020018083116114ed57829003601f168201915b50505050508152602001600582018054611523906163c9565b80601f016020809104026020016040519081016040528092919081815260200182805461154f906163c9565b801561159c5780601f106115715761010080835404028352916020019161159c565b820191906000526020600020905b81548152906001019060200180831161157f57829003601f168201915b505050505081526020016006820180546115b5906163c9565b80601f01602080910402602001604051908101604052809291908181526020018280546115e1906163c9565b801561162e5780601f106116035761010080835404028352916020019161162e565b820191906000526020600020905b81548152906001019060200180831161161157829003601f168201915b50505050508152505084838151811061164a576116496166e0565b5b602002602001018190525060018261166291906166ac565b915050505b808061167290616352565b915050611216565b50809250505090565b61168b615120565b600a60008381526020019081526020016000206040518060c0016040529081600082015481526020016001820160009054906101000a900473ffffffffffffffffffffffffffffffffffffffff1673ffffffffffffffffffffffffffffffffffffffff1673ffffffffffffffffffffffffffffffffffffffff168152602001600282018054611719906163c9565b80601f0160208091040260200160405190810160405280929190818152602001828054611745906163c9565b80156117925780601f1061176757610100808354040283529160200191611792565b820191906000526020600020905b81548152906001019060200180831161177557829003601f168201915b505050505081526020016003820180546117ab906163c9565b80601f01602080910402602001604051908101604052809291908181526020018280546117d7906163c9565b80156118245780601f106117f957610100808354040283529160200191611824565b820191906000526020600020905b81548152906001019060200180831161180757829003601f168201915b5050505050815260200160048201805461183d906163c9565b80601f0160208091040260200160405190810160405280929190818152602001828054611869906163c9565b80156118b65780601f1061188b576101008083540402835291602001916118b6565b820191906000526020600020905b81548152906001019060200180831161189957829003601f168201915b505050505081526020016005820180546118cf906163c9565b80601f01602080910402602001604051908101604052809291908181526020018280546118fb906163c9565b80156119485780601f1061191d57610100808354040283529160200191611948565b820191906000526020600020905b81548152906001019060200180831161192b57829003601f168201915b5050505050815250509050919050565b6060600060055467ffffffffffffffff81111561197857611977615338565b5b6040519080825280602002602001820160405280156119b157816020015b61199e615120565b8152602001906001900390816119965790505b50905060005b600554811015611cbe576000600a60008381526020019081526020016000209050806040518060c0016040529081600082015481526020016001820160009054906101000a900473ffffffffffffffffffffffffffffffffffffffff1673ffffffffffffffffffffffffffffffffffffffff1673ffffffffffffffffffffffffffffffffffffffff168152602001600282018054611a54906163c9565b80601f0160208091040260200160405190810160405280929190818152602001828054611a80906163c9565b8015611acd5780601f10611aa257610100808354040283529160200191611acd565b820191906000526020600020905b815481529060010190602001808311611ab057829003601f168201915b50505050508152602001600382018054611ae6906163c9565b80601f0160208091040260200160405190810160405280929190818152602001828054611b12906163c9565b8015611b5f5780601f10611b3457610100808354040283529160200191611b5f565b820191906000526020600020905b815481529060010190602001808311611b4257829003601f168201915b50505050508152602001600482018054611b78906163c9565b80601f0160208091040260200160405190810160405280929190818152602001828054611ba4906163c9565b8015611bf15780601f10611bc657610100808354040283529160200191611bf1565b820191906000526020600020905b815481529060010190602001808311611bd457829003601f168201915b50505050508152602001600582018054611c0a906163c9565b80601f0160208091040260200160405190810160405280929190818152602001828054611c36906163c9565b8015611c835780601f10611c5857610100808354040283529160200191611c83565b820191906000526020600020905b815481529060010190602001808311611c6657829003601f168201915b505050505081525050838381518110611c9f57611c9e6166e0565b5b6020026020010181905250508080611cb690616352565b9150506119b7565b508091505090565b6000600b60003373ffffffffffffffffffffffffffffffffffffffff1673ffffffffffffffffffffffffffffffffffffffff16815260200190815260200160002054905060005b6012600083815260200190815260200160002080549050811015611d7b5782601260008481526020019081526020016000208281548110611d5157611d506166e0565b5b906000526020600020015403611d68575050611db8565b8080611d7390616352565b915050611d0d565b5060126000828152602001908152602001600020829080600181540180825580915050600190039060005260206000200160009091909190915055505b50565b6000600c60008373ffffffffffffffffffffffffffffffffffffffff1673ffffffffffffffffffffffffffffffffffffffff1681526020019081526020016000205490506000600b60003373ffffffffffffffffffffffffffffffffffffffff1673ffffffffffffffffffffffffffffffffffffffff16815260200190815260200160002054905060005b6011600083815260200190815260200160002080549050811015611eb55782601160008481526020019081526020016000208281548110611e8a57611e896166e0565b5b906000526020600020015403611ea257505050611ef3565b8080611ead90616352565b915050611e46565b506011600082815260200190815260200160002082908060018154018082558091505060019003906000526020600020016000909190919091505550505b50565b600080600b60008573ffffffffffffffffffffffffffffffffffffffff1673ffffffffffffffffffffffffffffffffffffffff1681526020019081526020016000205490506000600c60008573ffffffffffffffffffffffffffffffffffffffff1673ffffffffffffffffffffffffffffffffffffffff16815260200190815260200160002054905060005b6011600084815260200190815260200160002080549050811015611ff55781601160008581526020019081526020016000208281548110611fc657611fc56166e0565b5b906000526020600020015403611fe25760019350505050611ffd565b8080611fed90616352565b915050611f82565b506000925050505b92915050565b6040518060a001604052803373ffffffffffffffffffffffffffffffffffffffff16815260200185815260200184815260200183815260200182815250600760006002600081548092919061205790616352565b91905055815260200190815260200160002060008201518160000160006101000a81548173ffffffffffffffffffffffffffffffffffffffff021916908373ffffffffffffffffffffffffffffffffffffffff16021790555060208201518160010190816120c591906165a6565b5060408201518160020190816120db91906165a6565b5060608201518160030190816120f191906165a6565b50608082015181600401908161210791906165a6565b50905050600160025461211a9190616678565b600c60003373ffffffffffffffffffffffffffffffffffffffff1673ffffffffffffffffffffffffffffffffffffffff168152602001908152602001600020819055506001600f60003373ffffffffffffffffffffffffffffffffffffffff1673ffffffffffffffffffffffffffffffffffffffff16815260200190815260200160002060006101000a81548160ff02191690831515021790555050505050565b60606000600b60003373ffffffffffffffffffffffffffffffffffffffff1673ffffffffffffffffffffffffffffffffffffffff1681526020019081526020016000205490506000601260008381526020019081526020016000208054905067ffffffffffffffff81111561223357612232615338565b5b60405190808252806020026020018201604052801561226c57816020015b612259615120565b8152602001906001900390816122515790505b50905060005b60126000848152602001908152602001600020805490508110156125bc576000600a60006012600087815260200190815260200160002084815481106122bb576122ba6166e0565b5b906000526020600020015481526020019081526020016000209050806040518060c0016040529081600082015481526020016001820160009054906101000a900473ffffffffffffffffffffffffffffffffffffffff1673ffffffffffffffffffffffffffffffffffffffff1673ffffffffffffffffffffffffffffffffffffffff168152602001600282018054612352906163c9565b80601f016020809104026020016040519081016040528092919081815260200182805461237e906163c9565b80156123cb5780601f106123a0576101008083540402835291602001916123cb565b820191906000526020600020905b8154815290600101906020018083116123ae57829003601f168201915b505050505081526020016003820180546123e4906163c9565b80601f0160208091040260200160405190810160405280929190818152602001828054612410906163c9565b801561245d5780601f106124325761010080835404028352916020019161245d565b820191906000526020600020905b81548152906001019060200180831161244057829003601f168201915b50505050508152602001600482018054612476906163c9565b80601f01602080910402602001604051908101604052809291908181526020018280546124a2906163c9565b80156124ef5780601f106124c4576101008083540402835291602001916124ef565b820191906000526020600020905b8154815290600101906020018083116124d257829003601f168201915b50505050508152602001600582018054612508906163c9565b80601f0160208091040260200160405190810160405280929190818152602001828054612534906163c9565b80156125815780601f1061255657610100808354040283529160200191612581565b820191906000526020600020905b81548152906001019060200180831161256457829003601f168201915b50505050508152505083838151811061259d5761259c6166e0565b5b60200260200101819052505080806125b490616352565b915050612272565b50809250505090565b6000600b60003373ffffffffffffffffffffffffffffffffffffffff1673ffffffffffffffffffffffffffffffffffffffff16815260200190815260200160002054905060005b601260008381526020019081526020016000208054905081101561273257826012600084815260200190815260200160002082815481106126505761264f6166e0565b5b90600052602060002001540361271f5760126000838152602001908152602001600020600160126000858152602001908152602001600020805490506126969190616678565b815481106126a7576126a66166e0565b5b90600052602060002001546012600084815260200190815260200160002082815481106126d7576126d66166e0565b5b9060005260206000200181905550601260008381526020019081526020016000208054806127085761270761670f565b5b600190038181906000526020600020016000905590555b808061272a90616352565b91505061260c565b505050565b6060600115156127478333611ef6565b151514612789576040517f08c379a0000000000000000000000000000000000000000000000000000000008152600401612780906167c1565b60405180910390fd5b600080600090505b600354811015612827578373ffffffffffffffffffffffffffffffffffffffff166008600083815260200190815260200160002060000160009054906101000a900473ffffffffffffffffffffffffffffffffffffffff1673ffffffffffffffffffffffffffffffffffffffff16036128145760018261281191906166ac565b91505b808061281f90616352565b915050612791565b5060008167ffffffffffffffff81111561284457612843615338565b5b60405190808252806020026020018201604052801561287d57816020015b61286a61516c565b8152602001906001900390816128625790505b50905060005b600354811015612ce7578473ffffffffffffffffffffffffffffffffffffffff166008600083815260200190815260200160002060000160009054906101000a900473ffffffffffffffffffffffffffffffffffffffff1673ffffffffffffffffffffffffffffffffffffffff1603612cd45760008190506000600860008381526020019081526020016000209050806040518060e00160405290816000820160009054906101000a900473ffffffffffffffffffffffffffffffffffffffff1673ffffffffffffffffffffffffffffffffffffffff1673ffffffffffffffffffffffffffffffffffffffff1681526020016001820160009054906101000a900473ffffffffffffffffffffffffffffffffffffffff1673ffffffffffffffffffffffffffffffffffffffff1673ffffffffffffffffffffffffffffffffffffffff1681526020016002820180546129da906163c9565b80601f0160208091040260200160405190810160405280929190818152602001828054612a06906163c9565b8015612a535780601f10612a2857610100808354040283529160200191612a53565b820191906000526020600020905b815481529060010190602001808311612a3657829003601f168201915b50505050508152602001600382018054612a6c906163c9565b80601f0160208091040260200160405190810160405280929190818152602001828054612a98906163c9565b8015612ae55780601f10612aba57610100808354040283529160200191612ae5565b820191906000526020600020905b815481529060010190602001808311612ac857829003601f168201915b50505050508152602001600482018054612afe906163c9565b80601f0160208091040260200160405190810160405280929190818152602001828054612b2a906163c9565b8015612b775780601f10612b4c57610100808354040283529160200191612b77565b820191906000526020600020905b815481529060010190602001808311612b5a57829003601f168201915b50505050508152602001600582018054612b90906163c9565b80601f0160208091040260200160405190810160405280929190818152602001828054612bbc906163c9565b8015612c095780601f10612bde57610100808354040283529160200191612c09565b820191906000526020600020905b815481529060010190602001808311612bec57829003601f168201915b50505050508152602001600682018054612c22906163c9565b80601f0160208091040260200160405190810160405280929190818152602001828054612c4e906163c9565b8015612c9b5780601f10612c7057610100808354040283529160200191612c9b565b820191906000526020600020905b815481529060010190602001808311612c7e57829003601f168201915b505050505081525050848381518110612cb757612cb66166e0565b5b6020026020010181905250600182612ccf91906166ac565b915050505b8080612cdf90616352565b915050612883565b508092505050919050565b60606000600b60003373ffffffffffffffffffffffffffffffffffffffff1673ffffffffffffffffffffffffffffffffffffffff1681526020019081526020016000205490506000601160008381526020019081526020016000208054905067ffffffffffffffff811115612d6a57612d69615338565b5b604051908082528060200260200182016040528015612da357816020015b612d906151d5565b815260200190600190039081612d885790505b50905060005b60116000848152602001908152602001600020805490508110156130e957600060076000601160008781526020019081526020016000208481548110612df257612df16166e0565b5b906000526020600020015481526020019081526020016000209050806040518060a00160405290816000820160009054906101000a900473ffffffffffffffffffffffffffffffffffffffff1673ffffffffffffffffffffffffffffffffffffffff1673ffffffffffffffffffffffffffffffffffffffff168152602001600182018054612e7f906163c9565b80601f0160208091040260200160405190810160405280929190818152602001828054612eab906163c9565b8015612ef85780601f10612ecd57610100808354040283529160200191612ef8565b820191906000526020600020905b815481529060010190602001808311612edb57829003601f168201915b50505050508152602001600282018054612f11906163c9565b80601f0160208091040260200160405190810160405280929190818152602001828054612f3d906163c9565b8015612f8a5780601f10612f5f57610100808354040283529160200191612f8a565b820191906000526020600020905b815481529060010190602001808311612f6d57829003601f168201915b50505050508152602001600382018054612fa3906163c9565b80601f0160208091040260200160405190810160405280929190818152602001828054612fcf906163c9565b801561301c5780601f10612ff15761010080835404028352916020019161301c565b820191906000526020600020905b815481529060010190602001808311612fff57829003601f168201915b50505050508152602001600482018054613035906163c9565b80601f0160208091040260200160405190810160405280929190818152602001828054613061906163c9565b80156130ae5780601f10613083576101008083540402835291602001916130ae565b820191906000526020600020905b81548152906001019060200180831161309157829003601f168201915b5050505050815250508383815181106130ca576130c96166e0565b5b60200260200101819052505080806130e190616352565b915050612da9565b50809250505090565b600080600b60008573ffffffffffffffffffffffffffffffffffffffff1673ffffffffffffffffffffffffffffffffffffffff16815260200190815260200160002054905060005b60126000838152602001908152602001600020805490508110156131ac578360126000848152602001908152602001600020828154811061317e5761317d6166e0565b5b906000526020600020015403613199576001925050506131b3565b80806131a490616352565b91505061313a565b5060009150505b92915050565b6131c161521a565b60096000600d60008573ffffffffffffffffffffffffffffffffffffffff1673ffffffffffffffffffffffffffffffffffffffff1681526020019081526020016000205481526020019081526020016000206040518060800160405290816000820160009054906101000a900473ffffffffffffffffffffffffffffffffffffffff1673ffffffffffffffffffffffffffffffffffffffff1673ffffffffffffffffffffffffffffffffffffffff168152602001600182018054613284906163c9565b80601f01602080910402602001604051908101604052809291908181526020018280546132b0906163c9565b80156132fd5780601f106132d2576101008083540402835291602001916132fd565b820191906000526020600020905b8154815290600101906020018083116132e057829003601f168201915b50505050508152602001600282018054613316906163c9565b80601f0160208091040260200160405190810160405280929190818152602001828054613342906163c9565b801561338f5780601f106133645761010080835404028352916020019161338f565b820191906000526020600020905b81548152906001019060200180831161337257829003601f168201915b505050505081526020016003820180546133a8906163c9565b80601f01602080910402602001604051908101604052809291908181526020018280546133d4906163c9565b80156134215780601f106133f657610100808354040283529160200191613421565b820191906000526020600020905b81548152906001019060200180831161340457829003601f168201915b5050505050815250509050919050565b613439615258565b60066000600b60008573ffffffffffffffffffffffffffffffffffffffff1673ffffffffffffffffffffffffffffffffffffffff1681526020019081526020016000205481526020019081526020016000206040518060e00160405290816000820160009054906101000a900473ffffffffffffffffffffffffffffffffffffffff1673ffffffffffffffffffffffffffffffffffffffff1673ffffffffffffffffffffffffffffffffffffffff1681526020016001820180546134fc906163c9565b80601f0160208091040260200160405190810160405280929190818152602001828054613528906163c9565b80156135755780601f1061354a57610100808354040283529160200191613575565b820191906000526020600020905b81548152906001019060200180831161355857829003601f168201915b5050505050815260200160028201805461358e906163c9565b80601f01602080910402602001604051908101604052809291908181526020018280546135ba906163c9565b80156136075780601f106135dc57610100808354040283529160200191613607565b820191906000526020600020905b8154815290600101906020018083116135ea57829003601f168201915b50505050508152602001600382018054613620906163c9565b80601f016020809104026020016040519081016040528092919081815260200182805461364c906163c9565b80156136995780601f1061366e57610100808354040283529160200191613699565b820191906000526020600020905b81548152906001019060200180831161367c57829003601f168201915b505050505081526020016004820180546136b2906163c9565b80601f01602080910402602001604051908101604052809291908181526020018280546136de906163c9565b801561372b5780601f106137005761010080835404028352916020019161372b565b820191906000526020600020905b81548152906001019060200180831161370e57829003601f168201915b505050505081526020016005820154815260200160068201805461374e906163c9565b80601f016020809104026020016040519081016040528092919081815260200182805461377a906163c9565b80156137c75780601f1061379c576101008083540402835291602001916137c7565b820191906000526020600020905b8154815290600101906020018083116137aa57829003601f168201915b5050505050815250509050919050565b6137df6151d5565b60076000600c60008573ffffffffffffffffffffffffffffffffffffffff1673ffffffffffffffffffffffffffffffffffffffff1681526020019081526020016000205481526020019081526020016000206040518060a00160405290816000820160009054906101000a900473ffffffffffffffffffffffffffffffffffffffff1673ffffffffffffffffffffffffffffffffffffffff1673ffffffffffffffffffffffffffffffffffffffff1681526020016001820180546138a2906163c9565b80601f01602080910402602001604051908101604052809291908181526020018280546138ce906163c9565b801561391b5780601f106138f05761010080835404028352916020019161391b565b820191906000526020600020905b8154815290600101906020018083116138fe57829003601f168201915b50505050508152602001600282018054613934906163c9565b80601f0160208091040260200160405190810160405280929190818152602001828054613960906163c9565b80156139ad5780601f10613982576101008083540402835291602001916139ad565b820191906000526020600020905b81548152906001019060200180831161399057829003601f168201915b505050505081526020016003820180546139c6906163c9565b80601f01602080910402602001604051908101604052809291908181526020018280546139f2906163c9565b8015613a3f5780601f10613a1457610100808354040283529160200191613a3f565b820191906000526020600020905b815481529060010190602001808311613a2257829003601f168201915b50505050508152602001600482018054613a58906163c9565b80601f0160208091040260200160405190810160405280929190818152602001828054613a84906163c9565b8015613ad15780601f10613aa657610100808354040283529160200191613ad1565b820191906000526020600020905b815481529060010190602001808311613ab457829003601f168201915b5050505050815250509050919050565b6060600060025467ffffffffffffffff811115613b0157613b00615338565b5b604051908082528060200260200182016040528015613b3a57816020015b613b276151d5565b815260200190600190039081613b1f5790505b50905060005b600254811015613e3d576000600760008381526020019081526020016000209050806040518060a00160405290816000820160009054906101000a900473ffffffffffffffffffffffffffffffffffffffff1673ffffffffffffffffffffffffffffffffffffffff1673ffffffffffffffffffffffffffffffffffffffff168152602001600182018054613bd3906163c9565b80601f0160208091040260200160405190810160405280929190818152602001828054613bff906163c9565b8015613c4c5780601f10613c2157610100808354040283529160200191613c4c565b820191906000526020600020905b815481529060010190602001808311613c2f57829003601f168201915b50505050508152602001600282018054613c65906163c9565b80601f0160208091040260200160405190810160405280929190818152602001828054613c91906163c9565b8015613cde5780601f10613cb357610100808354040283529160200191613cde565b820191906000526020600020905b815481529060010190602001808311613cc157829003601f168201915b50505050508152602001600382018054613cf7906163c9565b80601f0160208091040260200160405190810160405280929190818152602001828054613d23906163c9565b8015613d705780601f10613d4557610100808354040283529160200191613d70565b820191906000526020600020905b815481529060010190602001808311613d5357829003601f168201915b50505050508152602001600482018054613d89906163c9565b80601f0160208091040260200160405190810160405280929190818152602001828054613db5906163c9565b8015613e025780601f10613dd757610100808354040283529160200191613e02565b820191906000526020600020905b815481529060010190602001808311613de557829003601f168201915b505050505081525050838381518110613e1e57613e1d6166e0565b5b6020026020010181905250508080613e3590616352565b915050613b40565b508091505090565b606060011515613e5584846130f2565b151514613e97576040517f08c379a0000000000000000000000000000000000000000000000000000000008152600401613e8e906167c1565b60405180910390fd5b600080600090505b600354811015613f35578473ffffffffffffffffffffffffffffffffffffffff166008600083815260200190815260200160002060000160009054906101000a900473ffffffffffffffffffffffffffffffffffffffff1673ffffffffffffffffffffffffffffffffffffffff1603613f2257600182613f1f91906166ac565b91505b8080613f2d90616352565b915050613e9f565b5060008167ffffffffffffffff811115613f5257613f51615338565b5b604051908082528060200260200182016040528015613f8b57816020015b613f7861516c565b815260200190600190039081613f705790505b50905060005b6003548110156143f5578573ffffffffffffffffffffffffffffffffffffffff166008600083815260200190815260200160002060000160009054906101000a900473ffffffffffffffffffffffffffffffffffffffff1673ffffffffffffffffffffffffffffffffffffffff16036143e25760008190506000600860008381526020019081526020016000209050806040518060e00160405290816000820160009054906101000a900473ffffffffffffffffffffffffffffffffffffffff1673ffffffffffffffffffffffffffffffffffffffff1673ffffffffffffffffffffffffffffffffffffffff1681526020016001820160009054906101000a900473ffffffffffffffffffffffffffffffffffffffff1673ffffffffffffffffffffffffffffffffffffffff1673ffffffffffffffffffffffffffffffffffffffff1681526020016002820180546140e8906163c9565b80601f0160208091040260200160405190810160405280929190818152602001828054614114906163c9565b80156141615780601f1061413657610100808354040283529160200191614161565b820191906000526020600020905b81548152906001019060200180831161414457829003601f168201915b5050505050815260200160038201805461417a906163c9565b80601f01602080910402602001604051908101604052809291908181526020018280546141a6906163c9565b80156141f35780601f106141c8576101008083540402835291602001916141f3565b820191906000526020600020905b8154815290600101906020018083116141d657829003601f168201915b5050505050815260200160048201805461420c906163c9565b80601f0160208091040260200160405190810160405280929190818152602001828054614238906163c9565b80156142855780601f1061425a57610100808354040283529160200191614285565b820191906000526020600020905b81548152906001019060200180831161426857829003601f168201915b5050505050815260200160058201805461429e906163c9565b80601f01602080910402602001604051908101604052809291908181526020018280546142ca906163c9565b80156143175780601f106142ec57610100808354040283529160200191614317565b820191906000526020600020905b8154815290600101906020018083116142fa57829003601f168201915b50505050508152602001600682018054614330906163c9565b80601f016020809104026020016040519081016040528092919081815260200182805461435c906163c9565b80156143a95780601f1061437e576101008083540402835291602001916143a9565b820191906000526020600020905b81548152906001019060200180831161438c57829003601f168201915b5050505050815250508483815181106143c5576143c46166e0565b5b60200260200101819052506001826143dd91906166ac565b915050505b80806143ed90616352565b915050613f91565b50809250505092915050565b6060600080600090505b6001548110156144a75760005b6012600083815260200190815260200160002080549050811015614493578460126000848152602001908152602001600020828154811061445c5761445b6166e0565b5b9060005260206000200154036144805760018361447991906166ac565b9250614493565b808061448b90616352565b915050614418565b50808061449f90616352565b91505061440b565b5060008167ffffffffffffffff8111156144c4576144c3615338565b5b6040519080825280602002602001820160405280156144fd57816020015b6144ea615258565b8152602001906001900390816144e25790505b5090506000915060005b60015481101561491f5760005b601260008381526020019081526020016000208054905081101561490b5785601260008481526020019081526020016000208281548110614558576145576166e0565b5b9060005260206000200154036148f8576000600660008481526020019081526020016000209050806040518060e00160405290816000820160009054906101000a900473ffffffffffffffffffffffffffffffffffffffff1673ffffffffffffffffffffffffffffffffffffffff1673ffffffffffffffffffffffffffffffffffffffff1681526020016001820180546145f1906163c9565b80601f016020809104026020016040519081016040528092919081815260200182805461461d906163c9565b801561466a5780601f1061463f5761010080835404028352916020019161466a565b820191906000526020600020905b81548152906001019060200180831161464d57829003601f168201915b50505050508152602001600282018054614683906163c9565b80601f01602080910402602001604051908101604052809291908181526020018280546146af906163c9565b80156146fc5780601f106146d1576101008083540402835291602001916146fc565b820191906000526020600020905b8154815290600101906020018083116146df57829003601f168201915b50505050508152602001600382018054614715906163c9565b80601f0160208091040260200160405190810160405280929190818152602001828054614741906163c9565b801561478e5780601f106147635761010080835404028352916020019161478e565b820191906000526020600020905b81548152906001019060200180831161477157829003601f168201915b505050505081526020016004820180546147a7906163c9565b80601f01602080910402602001604051908101604052809291908181526020018280546147d3906163c9565b80156148205780601f106147f557610100808354040283529160200191614820565b820191906000526020600020905b81548152906001019060200180831161480357829003601f168201915b5050505050815260200160058201548152602001600682018054614843906163c9565b80601f016020809104026020016040519081016040528092919081815260200182805461486f906163c9565b80156148bc5780601f10614891576101008083540402835291602001916148bc565b820191906000526020600020905b81548152906001019060200180831161489f57829003601f168201915b5050505050815250508486815181106148d8576148d76166e0565b5b60200260200101819052506001856148f091906166ac565b94505061490b565b808061490390616352565b915050614514565b50808061491790616352565b915050614507565b508092505050919050565b6000600c60008373ffffffffffffffffffffffffffffffffffffffff1673ffffffffffffffffffffffffffffffffffffffff1681526020019081526020016000205490506000600b60003373ffffffffffffffffffffffffffffffffffffffff1673ffffffffffffffffffffffffffffffffffffffff16815260200190815260200160002054905060005b6011600083815260200190815260200160002080549050811015614adb57826011600084815260200190815260200160002082815481106149f9576149f86166e0565b5b906000526020600020015403614ac8576011600083815260200190815260200160002060016011600085815260200190815260200160002080549050614a3f9190616678565b81548110614a5057614a4f6166e0565b5b9060005260206000200154601160008481526020019081526020016000208281548110614a8057614a7f6166e0565b5b906000526020600020018190555060116000838152602001908152602001600020805480614ab157614ab061670f565b5b600190038181906000526020600020016000905590555b8080614ad390616352565b9150506149b5565b50505050565b6060600080600090505b600354811015614b81573373ffffffffffffffffffffffffffffffffffffffff166008600083815260200190815260200160002060000160009054906101000a900473ffffffffffffffffffffffffffffffffffffffff1673ffffffffffffffffffffffffffffffffffffffff1603614b6e57600182614b6b91906166ac565b91505b8080614b7990616352565b915050614aeb565b50614b8b8161505e565b614b9660035461505e565b60008167ffffffffffffffff811115614bb257614bb1615338565b5b604051908082528060200260200182016040528015614beb57816020015b614bd861516c565b815260200190600190039081614bd05790505b50905060005b600354811015615055573373ffffffffffffffffffffffffffffffffffffffff166008600083815260200190815260200160002060000160009054906101000a900473ffffffffffffffffffffffffffffffffffffffff1673ffffffffffffffffffffffffffffffffffffffff16036150425760008190506000600860008381526020019081526020016000209050806040518060e00160405290816000820160009054906101000a900473ffffffffffffffffffffffffffffffffffffffff1673ffffffffffffffffffffffffffffffffffffffff1673ffffffffffffffffffffffffffffffffffffffff1681526020016001820160009054906101000a900473ffffffffffffffffffffffffffffffffffffffff1673ffffffffffffffffffffffffffffffffffffffff1673ffffffffffffffffffffffffffffffffffffffff168152602001600282018054614d48906163c9565b80601f0160208091040260200160405190810160405280929190818152602001828054614d74906163c9565b8015614dc15780601f10614d9657610100808354040283529160200191614dc1565b820191906000526020600020905b815481529060010190602001808311614da457829003601f168201915b50505050508152602001600382018054614dda906163c9565b80601f0160208091040260200160405190810160405280929190818152602001828054614e06906163c9565b8015614e535780601f10614e2857610100808354040283529160200191614e53565b820191906000526020600020905b815481529060010190602001808311614e3657829003601f168201915b50505050508152602001600482018054614e6c906163c9565b80601f0160208091040260200160405190810160405280929190818152602001828054614e98906163c9565b8015614ee55780601f10614eba57610100808354040283529160200191614ee5565b820191906000526020600020905b815481529060010190602001808311614ec857829003601f168201915b50505050508152602001600582018054614efe906163c9565b80601f0160208091040260200160405190810160405280929190818152602001828054614f2a906163c9565b8015614f775780601f10614f4c57610100808354040283529160200191614f77565b820191906000526020600020905b815481529060010190602001808311614f5a57829003601f168201915b50505050508152602001600682018054614f90906163c9565b80601f0160208091040260200160405190810160405280929190818152602001828054614fbc906163c9565b80156150095780601f10614fde57610100808354040283529160200191615009565b820191906000526020600020905b815481529060010190602001808311614fec57829003601f168201915b505050505081525050848381518110615025576150246166e0565b5b602002602001018190525060018261503d91906166ac565b915050505b808061504d90616352565b915050614bf1565b50809250505090565b6150f4816040516024016150729190615595565b6040516020818303038152906040527ff82c50f1000000000000000000000000000000000000000000000000000000007bffffffffffffffffffffffffffffffffffffffffffffffffffffffff19166020820180517bffffffffffffffffffffffffffffffffffffffffffffffffffffffff83818316178352505050506150f7565b50565b60008151905060006a636f6e736f6c652e6c6f679050602083016000808483855afa5050505050565b6040518060c0016040528060008152602001600073ffffffffffffffffffffffffffffffffffffffff168152602001606081526020016060815260200160608152602001606081525090565b6040518060e00160405280600073ffffffffffffffffffffffffffffffffffffffff168152602001600073ffffffffffffffffffffffffffffffffffffffff16815260200160608152602001606081526020016060815260200160608152602001606081525090565b6040518060a00160405280600073ffffffffffffffffffffffffffffffffffffffff168152602001606081526020016060815260200160608152602001606081525090565b6040518060800160405280600073ffffffffffffffffffffffffffffffffffffffff1681526020016060815260200160608152602001606081525090565b6040518060e00160405280600073ffffffffffffffffffffffffffffffffffffffff1681526020016060815260200160608152602001606081526020016060815260200160008152602001606081525090565b6000604051905090565b600080fd5b600080fd5b600073ffffffffffffffffffffffffffffffffffffffff82169050919050565b60006152ea826152bf565b9050919050565b6152fa816152df565b811461530557600080fd5b50565b600081359050615317816152f1565b92915050565b600080fd5b600080fd5b6000601f19601f8301169050919050565b7f4e487b7100000000000000000000000000000000000000000000000000000000600052604160045260246000fd5b61537082615327565b810181811067ffffffffffffffff8211171561538f5761538e615338565b5b80604052505050565b60006153a26152ab565b90506153ae8282615367565b919050565b600067ffffffffffffffff8211156153ce576153cd615338565b5b6153d782615327565b9050602081019050919050565b82818337600083830152505050565b6000615406615401846153b3565b615398565b90508281526020810184848401111561542257615421615322565b5b61542d8482856153e4565b509392505050565b600082601f83011261544a5761544961531d565b5b813561545a8482602086016153f3565b91505092915050565b60008060008060008060c087890312156154805761547f6152b5565b5b600061548e89828a01615308565b965050602087013567ffffffffffffffff8111156154af576154ae6152ba565b5b6154bb89828a01615435565b955050604087013567ffffffffffffffff8111156154dc576154db6152ba565b5b6154e889828a01615435565b945050606087013567ffffffffffffffff811115615509576155086152ba565b5b61551589828a01615435565b935050608087013567ffffffffffffffff811115615536576155356152ba565b5b61554289828a01615435565b92505060a087013567ffffffffffffffff811115615563576155626152ba565b5b61556f89828a01615435565b9150509295509295509295565b6000819050919050565b61558f8161557c565b82525050565b60006020820190506155aa6000830184615586565b92915050565b6155b98161557c565b81146155c457600080fd5b50565b6000813590506155d6816155b0565b92915050565b60008060008060008060c087890312156155f9576155f86152b5565b5b600087013567ffffffffffffffff811115615617576156166152ba565b5b61562389828a01615435565b965050602087013567ffffffffffffffff811115615644576156436152ba565b5b61565089828a01615435565b955050604087013567ffffffffffffffff811115615671576156706152ba565b5b61567d89828a01615435565b945050606087013567ffffffffffffffff81111561569e5761569d6152ba565b5b6156aa89828a01615435565b93505060806156bb89828a016155c7565b92505060a087013567ffffffffffffffff8111156156dc576156db6152ba565b5b6156e889828a01615435565b9150509295509295509295565b600081519050919050565b600082825260208201905092915050565b6000819050602082019050919050565b61572a8161557c565b82525050565b615739816152df565b82525050565b600081519050919050565b600082825260208201905092915050565b60005b8381101561577957808201518184015260208101905061575e565b60008484015250505050565b60006157908261573f565b61579a818561574a565b93506157aa81856020860161575b565b6157b381615327565b840191505092915050565b600060c0830160008301516157d66000860182615721565b5060208301516157e96020860182615730565b50604083015184820360408601526158018282615785565b9150506060830151848203606086015261581b8282615785565b915050608083015184820360808601526158358282615785565b91505060a083015184820360a086015261584f8282615785565b9150508091505092915050565b600061586883836157be565b905092915050565b6000602082019050919050565b6000615888826156f5565b6158928185615700565b9350836020820285016158a485615711565b8060005b858110156158e057848403895281516158c1858261585c565b94506158cc83615870565b925060208a019950506001810190506158a8565b50829750879550505050505092915050565b6000602082019050818103600083015261590c818461587d565b905092915050565b6000806000806080858703121561592e5761592d6152b5565b5b600085013567ffffffffffffffff81111561594c5761594b6152ba565b5b61595887828801615435565b945050602085013567ffffffffffffffff811115615979576159786152ba565b5b61598587828801615435565b935050604085013567ffffffffffffffff8111156159a6576159a56152ba565b5b6159b287828801615435565b925050606085013567ffffffffffffffff8111156159d3576159d26152ba565b5b6159df87828801615435565b91505092959194509250565b600080600060608486031215615a0457615a036152b5565b5b600084013567ffffffffffffffff811115615a2257615a216152ba565b5b615a2e86828701615435565b935050602084013567ffffffffffffffff811115615a4f57615a4e6152ba565b5b615a5b86828701615435565b925050604084013567ffffffffffffffff811115615a7c57615a7b6152ba565b5b615a8886828701615435565b9150509250925092565b600081519050919050565b600082825260208201905092915050565b6000819050602082019050919050565b600060e083016000830151615ad66000860182615730565b506020830151615ae96020860182615730565b5060408301518482036040860152615b018282615785565b91505060608301518482036060860152615b1b8282615785565b91505060808301518482036080860152615b358282615785565b91505060a083015184820360a0860152615b4f8282615785565b91505060c083015184820360c0860152615b698282615785565b9150508091505092915050565b6000615b828383615abe565b905092915050565b6000602082019050919050565b6000615ba282615a92565b615bac8185615a9d565b935083602082028501615bbe85615aae565b8060005b85811015615bfa5784840389528151615bdb8582615b76565b9450615be683615b8a565b925060208a01995050600181019050615bc2565b50829750879550505050505092915050565b60006020820190508181036000830152615c268184615b97565b905092915050565b600060208284031215615c4457615c436152b5565b5b6000615c52848285016155c7565b91505092915050565b600060c083016000830151615c736000860182615721565b506020830151615c866020860182615730565b5060408301518482036040860152615c9e8282615785565b91505060608301518482036060860152615cb88282615785565b91505060808301518482036080860152615cd28282615785565b91505060a083015184820360a0860152615cec8282615785565b9150508091505092915050565b60006020820190508181036000830152615d138184615c5b565b905092915050565b600060208284031215615d3157615d306152b5565b5b6000615d3f84828501615308565b91505092915050565b60008060408385031215615d5f57615d5e6152b5565b5b6000615d6d85828601615308565b9250506020615d7e85828601615308565b9150509250929050565b60008115159050919050565b615d9d81615d88565b82525050565b6000602082019050615db86000830184615d94565b92915050565b600081519050919050565b600082825260208201905092915050565b6000819050602082019050919050565b600060a083016000830151615e026000860182615730565b5060208301518482036020860152615e1a8282615785565b91505060408301518482036040860152615e348282615785565b91505060608301518482036060860152615e4e8282615785565b91505060808301518482036080860152615e688282615785565b9150508091505092915050565b6000615e818383615dea565b905092915050565b6000602082019050919050565b6000615ea182615dbe565b615eab8185615dc9565b935083602082028501615ebd85615dda565b8060005b85811015615ef95784840389528151615eda8582615e75565b9450615ee583615e89565b925060208a01995050600181019050615ec1565b50829750879550505050505092915050565b60006020820190508181036000830152615f258184615e96565b905092915050565b60008060408385031215615f4457615f436152b5565b5b6000615f5285828601615308565b9250506020615f63858286016155c7565b9150509250929050565b6000608083016000830151615f856000860182615730565b5060208301518482036020860152615f9d8282615785565b91505060408301518482036040860152615fb78282615785565b91505060608301518482036060860152615fd18282615785565b9150508091505092915050565b60006020820190508181036000830152615ff88184615f6d565b905092915050565b600060e0830160008301516160186000860182615730565b50602083015184820360208601526160308282615785565b9150506040830151848203604086015261604a8282615785565b915050606083015184820360608601526160648282615785565b9150506080830151848203608086015261607e8282615785565b91505060a083015161609360a0860182615721565b5060c083015184820360c08601526160ab8282615785565b9150508091505092915050565b600060208201905081810360008301526160d28184616000565b905092915050565b600060a0830160008301516160f26000860182615730565b506020830151848203602086015261610a8282615785565b915050604083015184820360408601526161248282615785565b9150506060830151848203606086015261613e8282615785565b915050608083015184820360808601526161588282615785565b9150508091505092915050565b6000602082019050818103600083015261617f81846160da565b905092915050565b600081519050919050565b600082825260208201905092915050565b6000819050602082019050919050565b600060e0830160008301516161cb6000860182615730565b50602083015184820360208601526161e38282615785565b915050604083015184820360408601526161fd8282615785565b915050606083015184820360608601526162178282615785565b915050608083015184820360808601526162318282615785565b91505060a083015161624660a0860182615721565b5060c083015184820360c086015261625e8282615785565b9150508091505092915050565b600061627783836161b3565b905092915050565b6000602082019050919050565b600061629782616187565b6162a18185616192565b9350836020820285016162b3856161a3565b8060005b858110156162ef57848403895281516162d0858261626b565b94506162db8361627f565b925060208a019950506001810190506162b7565b50829750879550505050505092915050565b6000602082019050818103600083015261631b818461628c565b905092915050565b7f4e487b7100000000000000000000000000000000000000000000000000000000600052601160045260246000fd5b600061635d8261557c565b91507fffffffffffffffffffffffffffffffffffffffffffffffffffffffffffffffff820361638f5761638e616323565b5b600182019050919050565b7f4e487b7100000000000000000000000000000000000000000000000000000000600052602260045260246000fd5b600060028204905060018216806163e157607f821691505b6020821081036163f4576163f361639a565b5b50919050565b60008190508160005260206000209050919050565b60006020601f8301049050919050565b600082821b905092915050565b60006008830261645c7fffffffffffffffffffffffffffffffffffffffffffffffffffffffffffffffff8261641f565b616466868361641f565b95508019841693508086168417925050509392505050565b6000819050919050565b60006164a361649e6164998461557c565b61647e565b61557c565b9050919050565b6000819050919050565b6164bd83616488565b6164d16164c9826164aa565b84845461642c565b825550505050565b600090565b6164e66164d9565b6164f18184846164b4565b505050565b5b818110156165155761650a6000826164de565b6001810190506164f7565b5050565b601f82111561655a5761652b816163fa565b6165348461640f565b81016020851015616543578190505b61655761654f8561640f565b8301826164f6565b50505b505050565b600082821c905092915050565b600061657d6000198460080261655f565b1980831691505092915050565b6000616596838361656c565b9150826002028217905092915050565b6165af8261573f565b67ffffffffffffffff8111156165c8576165c7615338565b5b6165d282546163c9565b6165dd828285616519565b600060209050601f83116001811461661057600084156165fe578287015190505b616608858261658a565b865550616670565b601f19841661661e866163fa565b60005b8281101561664657848901518255600182019150602085019450602081019050616621565b86831015616663578489015161665f601f89168261656c565b8355505b6001600288020188555050505b505050505050565b60006166838261557c565b915061668e8361557c565b92508282039050818111156166a6576166a5616323565b5b92915050565b60006166b78261557c565b91506166c28361557c565b92508282019050808211156166da576166d9616323565b5b92915050565b7f4e487b7100000000000000000000000000000000000000000000000000000000600052603260045260246000fd5b7f4e487b7100000000000000000000000000000000000000000000000000000000600052603160045260246000fd5b600082825260208201905092915050565b7f446f6573206e6f7420686173207468652061636365737320746f20666574636860008201527f2074686520646f63756d656e7473000000000000000000000000000000000000602082015250565b60006167ab602e8361673e565b91506167b68261674f565b604082019050919050565b600060208201905081810360008301526167da8161679e565b905091905056fea2646970667358221220531380d56df9918decdbea2f0dd314da9f60aad97bd027aec1ac38edccce65f664736f6c63430008110033",
	"linkReferences": {},
	"deployedLinkReferences": {}
}