{
	"_format": "hh-sol-artifact-1",
	"contractName": "EHR",
	"sourceName": "contracts/EHR.sol",
	"abi": [
		{
			"inputs": [],
			"stateMutability": "nonpayable",
			"type": "constructor"
		},
		{
			"inputs": [],
			"name": "checkRole",
			"outputs": [
				{
					"internalType": "uint256",
					"name": "",
					"type": "uint256"
				}
			],
			"stateMutability": "view",
			"type": "function"
		},
		{
			"inputs": [
				{
					"internalType": "address",
					"name": "userAdd",
					"type": "address"
				},
				{
					"internalType": "string",
					"name": "docName",
					"type": "string"
				},
				{
					"internalType": "string",
					"name": "recordHash",
					"type": "string"
				},
				{
					"internalType": "string",
					"name": "recordName",
					"type": "string"
				},
				{
					"internalType": "string",
					"name": "issueDate",
					"type": "string"
				},
				{
					"internalType": "string",
					"name": "testSuggested",
					"type": "string"
				}
			],
			"name": "createNewRecord",
			"outputs": [],
			"stateMutability": "nonpayable",
			"type": "function"
		},
		{
			"inputs": [
				{
					"internalType": "string",
					"name": "name",
					"type": "string"
				},
				{
					"internalType": "string",
					"name": "description",
					"type": "string"
				},
				{
					"internalType": "string",
					"name": "cid",
					"type": "string"
				}
			],
			"name": "createNewResearch",
			"outputs": [],
			"stateMutability": "nonpayable",
			"type": "function"
		},
		{
			"inputs": [],
			"name": "fetchAllHospitals",
			"outputs": [
				{
					"components": [
						{
							"internalType": "address",
							"name": "hosAdd",
							"type": "address"
						},
						{
							"internalType": "string",
							"name": "name",
							"type": "string"
						},
						{
							"internalType": "string",
							"name": "personalAdd",
							"type": "string"
						},
						{
							"internalType": "string",
							"name": "emailId",
							"type": "string"
						},
						{
							"internalType": "string",
							"name": "contactNo",
							"type": "string"
						}
					],
					"internalType": "struct EHR.Hospital[]",
					"name": "",
					"type": "tuple[]"
				}
			],
			"stateMutability": "view",
			"type": "function"
		},
		{
			"inputs": [],
			"name": "fetchAllResearchs",
			"outputs": [
				{
					"components": [
						{
							"internalType": "uint256",
							"name": "id",
							"type": "uint256"
						},
						{
							"internalType": "address",
							"name": "orgAdd",
							"type": "address"
						},
						{
							"internalType": "string",
							"name": "name",
							"type": "string"
						},
						{
							"internalType": "string",
							"name": "description",
							"type": "string"
						},
						{
							"internalType": "string",
							"name": "cid",
							"type": "string"
						}
					],
					"internalType": "struct EHR.Research[]",
					"name": "",
					"type": "tuple[]"
				}
			],
			"stateMutability": "view",
			"type": "function"
		},
		{
			"inputs": [
				{
					"internalType": "uint256",
					"name": "researchId",
					"type": "uint256"
				}
			],
			"name": "fetchAllUsersForResearch",
			"outputs": [
				{
					"components": [
						{
							"internalType": "address",
							"name": "userAdd",
							"type": "address"
						},
						{
							"internalType": "string",
							"name": "name",
							"type": "string"
						},
						{
							"internalType": "string",
							"name": "personalAdd",
							"type": "string"
						},
						{
							"internalType": "string",
							"name": "emailId",
							"type": "string"
						},
						{
							"internalType": "string",
							"name": "mobileNo",
							"type": "string"
						},
						{
							"internalType": "uint256",
							"name": "gender",
							"type": "uint256"
						},
						{
							"internalType": "string",
							"name": "dob",
							"type": "string"
						}
					],
					"internalType": "struct EHR.User[]",
					"name": "",
					"type": "tuple[]"
				}
			],
			"stateMutability": "view",
			"type": "function"
		},
		{
			"inputs": [
				{
					"internalType": "address",
					"name": "hospitalAddress",
					"type": "address"
				}
			],
			"name": "fetchHospitalByAddress",
			"outputs": [
				{
					"components": [
						{
							"internalType": "address",
							"name": "hosAdd",
							"type": "address"
						},
						{
							"internalType": "string",
							"name": "name",
							"type": "string"
						},
						{
							"internalType": "string",
							"name": "personalAdd",
							"type": "string"
						},
						{
							"internalType": "string",
							"name": "emailId",
							"type": "string"
						},
						{
							"internalType": "string",
							"name": "contactNo",
							"type": "string"
						}
					],
					"internalType": "struct EHR.Hospital",
					"name": "",
					"type": "tuple"
				}
			],
			"stateMutability": "view",
			"type": "function"
		},
		{
			"inputs": [],
			"name": "fetchMyDocuments",
			"outputs": [
				{
					"components": [
						{
							"internalType": "address",
							"name": "userAdd",
							"type": "address"
						},
						{
							"internalType": "address",
							"name": "hosAdd",
							"type": "address"
						},
						{
							"internalType": "string",
							"name": "docName",
							"type": "string"
						},
						{
							"internalType": "string",
							"name": "recordHash",
							"type": "string"
						},
						{
							"internalType": "string",
							"name": "recordName",
							"type": "string"
						},
						{
							"internalType": "string",
							"name": "issueDate",
							"type": "string"
						},
						{
							"internalType": "string",
							"name": "testSuggested",
							"type": "string"
						}
					],
					"internalType": "struct EHR.Record[]",
					"name": "",
					"type": "tuple[]"
				}
			],
			"stateMutability": "view",
			"type": "function"
		},
		{
			"inputs": [],
			"name": "fetchMyHospitalAccessList",
			"outputs": [
				{
					"components": [
						{
							"internalType": "address",
							"name": "hosAdd",
							"type": "address"
						},
						{
							"internalType": "string",
							"name": "name",
							"type": "string"
						},
						{
							"internalType": "string",
							"name": "personalAdd",
							"type": "string"
						},
						{
							"internalType": "string",
							"name": "emailId",
							"type": "string"
						},
						{
							"internalType": "string",
							"name": "contactNo",
							"type": "string"
						}
					],
					"internalType": "struct EHR.Hospital[]",
					"name": "",
					"type": "tuple[]"
				}
			],
			"stateMutability": "view",
			"type": "function"
		},
		{
			"inputs": [],
			"name": "fetchMyResearchAccessList",
			"outputs": [
				{
					"components": [
						{
							"internalType": "uint256",
							"name": "id",
							"type": "uint256"
						},
						{
							"internalType": "address",
							"name": "orgAdd",
							"type": "address"
						},
						{
							"internalType": "string",
							"name": "name",
							"type": "string"
						},
						{
							"internalType": "string",
							"name": "description",
							"type": "string"
						},
						{
							"internalType": "string",
							"name": "cid",
							"type": "string"
						}
					],
					"internalType": "struct EHR.Research[]",
					"name": "",
					"type": "tuple[]"
				}
			],
			"stateMutability": "view",
			"type": "function"
		},
		{
			"inputs": [],
			"name": "fetchMyResearchs",
			"outputs": [
				{
					"components": [
						{
							"internalType": "uint256",
							"name": "id",
							"type": "uint256"
						},
						{
							"internalType": "address",
							"name": "orgAdd",
							"type": "address"
						},
						{
							"internalType": "string",
							"name": "name",
							"type": "string"
						},
						{
							"internalType": "string",
							"name": "description",
							"type": "string"
						},
						{
							"internalType": "string",
							"name": "cid",
							"type": "string"
						}
					],
					"internalType": "struct EHR.Research[]",
					"name": "",
					"type": "tuple[]"
				}
			],
			"stateMutability": "view",
			"type": "function"
		},
		{
			"inputs": [
				{
					"internalType": "address",
					"name": "orgAddress",
					"type": "address"
				}
			],
			"name": "fetchOrganizationByAddress",
			"outputs": [
				{
					"components": [
						{
							"internalType": "address",
							"name": "orgAdd",
							"type": "address"
						},
						{
							"internalType": "string",
							"name": "name",
							"type": "string"
						},
						{
							"internalType": "string",
							"name": "emailId",
							"type": "string"
						},
						{
							"internalType": "string",
							"name": "contactNo",
							"type": "string"
						}
					],
					"internalType": "struct EHR.ResearchOrg",
					"name": "",
					"type": "tuple"
				}
			],
			"stateMutability": "view",
			"type": "function"
		},
		{
			"inputs": [
				{
					"internalType": "uint256",
					"name": "id",
					"type": "uint256"
				}
			],
			"name": "fetchResearchById",
			"outputs": [
				{
					"components": [
						{
							"internalType": "uint256",
							"name": "id",
							"type": "uint256"
						},
						{
							"internalType": "address",
							"name": "orgAdd",
							"type": "address"
						},
						{
							"internalType": "string",
							"name": "name",
							"type": "string"
						},
						{
							"internalType": "string",
							"name": "description",
							"type": "string"
						},
						{
							"internalType": "string",
							"name": "cid",
							"type": "string"
						}
					],
					"internalType": "struct EHR.Research",
					"name": "",
					"type": "tuple"
				}
			],
			"stateMutability": "view",
			"type": "function"
		},
		{
			"inputs": [
				{
					"internalType": "address",
					"name": "userAddress",
					"type": "address"
				}
			],
			"name": "fetchUserByAddress",
			"outputs": [
				{
					"components": [
						{
							"internalType": "address",
							"name": "userAdd",
							"type": "address"
						},
						{
							"internalType": "string",
							"name": "name",
							"type": "string"
						},
						{
							"internalType": "string",
							"name": "personalAdd",
							"type": "string"
						},
						{
							"internalType": "string",
							"name": "emailId",
							"type": "string"
						},
						{
							"internalType": "string",
							"name": "mobileNo",
							"type": "string"
						},
						{
							"internalType": "uint256",
							"name": "gender",
							"type": "uint256"
						},
						{
							"internalType": "string",
							"name": "dob",
							"type": "string"
						}
					],
					"internalType": "struct EHR.User",
					"name": "",
					"type": "tuple"
				}
			],
			"stateMutability": "view",
			"type": "function"
		},
		{
			"inputs": [
				{
					"internalType": "address",
					"name": "userAddress",
					"type": "address"
				}
			],
			"name": "fetchUserDocumentsForHospital",
			"outputs": [
				{
					"components": [
						{
							"internalType": "address",
							"name": "userAdd",
							"type": "address"
						},
						{
							"internalType": "address",
							"name": "hosAdd",
							"type": "address"
						},
						{
							"internalType": "string",
							"name": "docName",
							"type": "string"
						},
						{
							"internalType": "string",
							"name": "recordHash",
							"type": "string"
						},
						{
							"internalType": "string",
							"name": "recordName",
							"type": "string"
						},
						{
							"internalType": "string",
							"name": "issueDate",
							"type": "string"
						},
						{
							"internalType": "string",
							"name": "testSuggested",
							"type": "string"
						}
					],
					"internalType": "struct EHR.Record[]",
					"name": "",
					"type": "tuple[]"
				}
			],
			"stateMutability": "view",
			"type": "function"
		},
		{
			"inputs": [
				{
					"internalType": "address",
					"name": "userAddress",
					"type": "address"
				},
				{
					"internalType": "uint256",
					"name": "researchId",
					"type": "uint256"
				}
			],
			"name": "fetchUserDocumentsForResearch",
			"outputs": [
				{
					"components": [
						{
							"internalType": "address",
							"name": "userAdd",
							"type": "address"
						},
						{
							"internalType": "address",
							"name": "hosAdd",
							"type": "address"
						},
						{
							"internalType": "string",
							"name": "docName",
							"type": "string"
						},
						{
							"internalType": "string",
							"name": "recordHash",
							"type": "string"
						},
						{
							"internalType": "string",
							"name": "recordName",
							"type": "string"
						},
						{
							"internalType": "string",
							"name": "issueDate",
							"type": "string"
						},
						{
							"internalType": "string",
							"name": "testSuggested",
							"type": "string"
						}
					],
					"internalType": "struct EHR.Record[]",
					"name": "",
					"type": "tuple[]"
				}
			],
			"stateMutability": "view",
			"type": "function"
		},
		{
			"inputs": [],
			"name": "getAllHospitalRecords",
			"outputs": [
				{
					"components": [
						{
							"internalType": "address",
							"name": "userAdd",
							"type": "address"
						},
						{
							"internalType": "address",
							"name": "hosAdd",
							"type": "address"
						},
						{
							"internalType": "string",
							"name": "docName",
							"type": "string"
						},
						{
							"internalType": "string",
							"name": "recordHash",
							"type": "string"
						},
						{
							"internalType": "string",
							"name": "recordName",
							"type": "string"
						},
						{
							"internalType": "string",
							"name": "issueDate",
							"type": "string"
						},
						{
							"internalType": "string",
							"name": "testSuggested",
							"type": "string"
						}
					],
					"internalType": "struct EHR.Record[]",
					"name": "",
					"type": "tuple[]"
				}
			],
			"stateMutability": "view",
			"type": "function"
		},
		{
			"inputs": [
				{
					"internalType": "address",
					"name": "hospitalAddress",
					"type": "address"
				}
			],
			"name": "grantAccessToHospital",
			"outputs": [],
			"stateMutability": "nonpayable",
			"type": "function"
		},
		{
			"inputs": [
				{
					"internalType": "uint256",
					"name": "researchId",
					"type": "uint256"
				}
			],
			"name": "grantAccessToResearch",
			"outputs": [],
			"stateMutability": "nonpayable",
			"type": "function"
		},
		{
			"inputs": [
				{
					"internalType": "address",
					"name": "userAddress",
					"type": "address"
				},
				{
					"internalType": "address",
					"name": "hospitalAddress",
					"type": "address"
				}
			],
			"name": "hasUserRecordAccessForHospital",
			"outputs": [
				{
					"internalType": "bool",
					"name": "",
					"type": "bool"
				}
			],
			"stateMutability": "view",
			"type": "function"
		},
		{
			"inputs": [
				{
					"internalType": "address",
					"name": "userAddress",
					"type": "address"
				},
				{
					"internalType": "uint256",
					"name": "researchId",
					"type": "uint256"
				}
			],
			"name": "hasUserRecordAccessForResearch",
			"outputs": [
				{
					"internalType": "bool",
					"name": "",
					"type": "bool"
				}
			],
			"stateMutability": "view",
			"type": "function"
		},
		{
			"inputs": [
				{
					"internalType": "string",
					"name": "name",
					"type": "string"
				},
				{
					"internalType": "string",
					"name": "personalAdd",
					"type": "string"
				},
				{
					"internalType": "string",
					"name": "emailId",
					"type": "string"
				},
				{
					"internalType": "string",
					"name": "mobileNo",
					"type": "string"
				}
			],
			"name": "registerHospital",
			"outputs": [],
			"stateMutability": "nonpayable",
			"type": "function"
		},
		{
			"inputs": [
				{
					"internalType": "string",
					"name": "name",
					"type": "string"
				},
				{
					"internalType": "string",
					"name": "emailId",
					"type": "string"
				},
				{
					"internalType": "string",
					"name": "mobileNo",
					"type": "string"
				}
			],
			"name": "registerResearchOrg",
			"outputs": [],
			"stateMutability": "nonpayable",
			"type": "function"
		},
		{
			"inputs": [
				{
					"internalType": "string",
					"name": "name",
					"type": "string"
				},
				{
					"internalType": "string",
					"name": "personalAdd",
					"type": "string"
				},
				{
					"internalType": "string",
					"name": "emailId",
					"type": "string"
				},
				{
					"internalType": "string",
					"name": "mobileNo",
					"type": "string"
				},
				{
					"internalType": "uint256",
					"name": "gender",
					"type": "uint256"
				},
				{
					"internalType": "string",
					"name": "dob",
					"type": "string"
				}
			],
			"name": "registerUser",
			"outputs": [],
			"stateMutability": "nonpayable",
			"type": "function"
		},
		{
			"inputs": [
				{
					"internalType": "address",
					"name": "hospitalAddress",
					"type": "address"
				}
			],
			"name": "removeAccessFromHospital",
			"outputs": [],
			"stateMutability": "nonpayable",
			"type": "function"
		},
		{
			"inputs": [
				{
					"internalType": "uint256",
					"name": "researchId",
					"type": "uint256"
				}
			],
			"name": "removeAccessFromResearch",
			"outputs": [],
			"stateMutability": "nonpayable",
			"type": "function"
		}
	],
	"bytecode": "0x608060405234801561001057600080fd5b50336000806101000a81548173ffffffffffffffffffffffffffffffffffffffff021916908373ffffffffffffffffffffffffffffffffffffffff16021790555061657780620000616000396000f3fe608060405234801561001057600080fd5b506004361061018e5760003560e01c8063684217a6116100de5780639f900a1811610097578063c444411d11610071578063c444411d14610495578063da8da731146104c5578063edf9e00a146104f5578063f95ad8fd146105115761018e565b80639f900a1814610417578063b415317614610447578063baa719dc146104775761018e565b8063684217a6146103315780638280c16c1461034d578063849326f2146103695780638aeab380146103995780639d27643b146103b75780639ea271d5146103e75761018e565b8063272620b91161014b5780634630d73b116101255780634630d73b146102ab5780634c828df8146102c75780634df6f28d146102f757806354053ea8146103135761018e565b8063272620b9146102415780633c51fad51461027157806341bd117c1461028f5761018e565b806302539bd8146101935780630482aa82146101af578063166fb618146101cd5780631be8530e146101e9578063223a6d3414610207578063245e7f9514610223575b600080fd5b6101ad60048036038101906101a891906151f7565b61052f565b005b6101b76106be565b6040516101c49190615329565b60405180910390f35b6101e760048036038101906101e29190615370565b6107eb565b005b6101f16109d0565b6040516101fe919061566c565b60405180910390f35b610221600480360381019061021c919061568e565b610dc7565b005b61022b610f62565b60405161023891906158af565b60405180910390f35b61025b600480360381019061025691906158d1565b6114cb565b6040516102689190615982565b60405180910390f35b61027961170e565b604051610286919061566c565b60405180910390f35b6102a960048036038101906102a491906158d1565b6119ea565b005b6102c560048036038101906102c091906159a4565b611adf565b005b6102e160048036038101906102dc91906159d1565b611c1a565b6040516102ee9190615a2c565b60405180910390f35b610311600480360381019061030c9190615a47565b611d27565b005b61031b611edf565b604051610328919061566c565b60405180910390f35b61034b600480360381019061034691906158d1565b612257565b005b6103676004803603810190610362919061568e565b6123c9565b005b610383600480360381019061037e91906159a4565b6124d2565b60405161039091906158af565b60405180910390f35b6103a1612a8d565b6040516103ae9190615c6b565b60405180910390f35b6103d160048036038101906103cc9190615c8d565b612e8d565b6040516103de9190615a2c565b60405180910390f35b61040160048036038101906103fc91906159a4565b612f54565b60405161040e9190615d3e565b60405180910390f35b610431600480360381019061042c91906159a4565b6131cc565b60405161043e9190615e18565b60405180910390f35b610461600480360381019061045c91906159a4565b613572565b60405161046e9190615ec5565b60405180910390f35b61047f61387c565b60405161048c9190615c6b565b60405180910390f35b6104af60048036038101906104aa9190615c8d565b613be0565b6040516104bc91906158af565b60405180910390f35b6104df60048036038101906104da91906158d1565b61419c565b6040516104ec9190616061565b60405180910390f35b61050f600480360381019061050a91906159a4565b6146c5565b005b61051961487c565b60405161052691906158af565b60405180910390f35b6040518060e001604052808773ffffffffffffffffffffffffffffffffffffffff1681526020013373ffffffffffffffffffffffffffffffffffffffff1681526020018681526020018581526020018481526020018381526020018281525060086000600360008154809291906105a5906160b2565b91905055815260200190815260200160002060008201518160000160006101000a81548173ffffffffffffffffffffffffffffffffffffffff021916908373ffffffffffffffffffffffffffffffffffffffff16021790555060208201518160010160006101000a81548173ffffffffffffffffffffffffffffffffffffffff021916908373ffffffffffffffffffffffffffffffffffffffff160217905550604082015181600201908161065a9190616306565b5060608201518160030190816106709190616306565b5060808201518160040190816106869190616306565b5060a082015181600501908161069c9190616306565b5060c08201518160060190816106b29190616306565b50905050505050505050565b600060011515600e60003373ffffffffffffffffffffffffffffffffffffffff1673ffffffffffffffffffffffffffffffffffffffff16815260200190815260200160002060009054906101000a900460ff1615150361072157600190506107e8565b60011515600f60003373ffffffffffffffffffffffffffffffffffffffff1673ffffffffffffffffffffffffffffffffffffffff16815260200190815260200160002060009054906101000a900460ff1615150361078257600290506107e8565b60011515601060003373ffffffffffffffffffffffffffffffffffffffff1673ffffffffffffffffffffffffffffffffffffffff16815260200190815260200160002060009054906101000a900460ff161515036107e357600390506107e8565b600090505b90565b6040518060e001604052803373ffffffffffffffffffffffffffffffffffffffff16815260200187815260200186815260200185815260200184815260200183815260200182815250600660006001600081548092919061084b906160b2565b91905055815260200190815260200160002060008201518160000160006101000a81548173ffffffffffffffffffffffffffffffffffffffff021916908373ffffffffffffffffffffffffffffffffffffffff16021790555060208201518160010190816108b99190616306565b5060408201518160020190816108cf9190616306565b5060608201518160030190816108e59190616306565b5060808201518160040190816108fb9190616306565b5060a0820151816005015560c082015181600601908161091b9190616306565b509050506001805461092d91906163d8565b600b60003373ffffffffffffffffffffffffffffffffffffffff1673ffffffffffffffffffffffffffffffffffffffff168152602001908152602001600020819055506001600e60003373ffffffffffffffffffffffffffffffffffffffff1673ffffffffffffffffffffffffffffffffffffffff16815260200190815260200160002060006101000a81548160ff021916908315150217905550505050505050565b6060600080600090505b600554811015610a70573373ffffffffffffffffffffffffffffffffffffffff16600a600083815260200190815260200160002060010160009054906101000a900473ffffffffffffffffffffffffffffffffffffffff1673ffffffffffffffffffffffffffffffffffffffff1603610a5d57600182610a5a919061640c565b91505b8080610a68906160b2565b9150506109da565b5060008167ffffffffffffffff811115610a8d57610a8c6150cc565b5b604051908082528060200260200182016040528015610ac657816020015b610ab3614ebb565b815260200190600190039081610aab5790505b5090506000915060005b600554811015610dbe573373ffffffffffffffffffffffffffffffffffffffff16600a600083815260200190815260200160002060010160009054906101000a900473ffffffffffffffffffffffffffffffffffffffff1673ffffffffffffffffffffffffffffffffffffffff1603610dab576000600a60008381526020019081526020016000209050806040518060a0016040529081600082015481526020016001820160009054906101000a900473ffffffffffffffffffffffffffffffffffffffff1673ffffffffffffffffffffffffffffffffffffffff1673ffffffffffffffffffffffffffffffffffffffff168152602001600282018054610bd690616129565b80601f0160208091040260200160405190810160405280929190818152602001828054610c0290616129565b8015610c4f5780601f10610c2457610100808354040283529160200191610c4f565b820191906000526020600020905b815481529060010190602001808311610c3257829003601f168201915b50505050508152602001600382018054610c6890616129565b80601f0160208091040260200160405190810160405280929190818152602001828054610c9490616129565b8015610ce15780601f10610cb657610100808354040283529160200191610ce1565b820191906000526020600020905b815481529060010190602001808311610cc457829003601f168201915b50505050508152602001600482018054610cfa90616129565b80601f0160208091040260200160405190810160405280929190818152602001828054610d2690616129565b8015610d735780601f10610d4857610100808354040283529160200191610d73565b820191906000526020600020905b815481529060010190602001808311610d5657829003601f168201915b505050505081525050838581518110610d8f57610d8e616440565b5b6020026020010181905250600184610da7919061640c565b9350505b8080610db6906160b2565b915050610ad0565b50809250505090565b60405180608001604052803373ffffffffffffffffffffffffffffffffffffffff168152602001848152602001838152602001828152506009600060046000815480929190610e15906160b2565b91905055815260200190815260200160002060008201518160000160006101000a81548173ffffffffffffffffffffffffffffffffffffffff021916908373ffffffffffffffffffffffffffffffffffffffff1602179055506020820151816001019081610e839190616306565b506040820151816002019081610e999190616306565b506060820151816003019081610eaf9190616306565b509050506001600454610ec291906163d8565b600d60003373ffffffffffffffffffffffffffffffffffffffff1673ffffffffffffffffffffffffffffffffffffffff168152602001908152602001600020819055506001601060003373ffffffffffffffffffffffffffffffffffffffff1673ffffffffffffffffffffffffffffffffffffffff16815260200190815260200160002060006101000a81548160ff021916908315150217905550505050565b6060600080600090505b600354811015611002573373ffffffffffffffffffffffffffffffffffffffff166008600083815260200190815260200160002060010160009054906101000a900473ffffffffffffffffffffffffffffffffffffffff1673ffffffffffffffffffffffffffffffffffffffff1603610fef57600182610fec919061640c565b91505b8080610ffa906160b2565b915050610f6c565b5060008167ffffffffffffffff81111561101f5761101e6150cc565b5b60405190808252806020026020018201604052801561105857816020015b611045614f00565b81526020019060019003908161103d5790505b50905060005b6003548110156114c2573373ffffffffffffffffffffffffffffffffffffffff166008600083815260200190815260200160002060010160009054906101000a900473ffffffffffffffffffffffffffffffffffffffff1673ffffffffffffffffffffffffffffffffffffffff16036114af5760008190506000600860008381526020019081526020016000209050806040518060e00160405290816000820160009054906101000a900473ffffffffffffffffffffffffffffffffffffffff1673ffffffffffffffffffffffffffffffffffffffff1673ffffffffffffffffffffffffffffffffffffffff1681526020016001820160009054906101000a900473ffffffffffffffffffffffffffffffffffffffff1673ffffffffffffffffffffffffffffffffffffffff1673ffffffffffffffffffffffffffffffffffffffff1681526020016002820180546111b590616129565b80601f01602080910402602001604051908101604052809291908181526020018280546111e190616129565b801561122e5780601f106112035761010080835404028352916020019161122e565b820191906000526020600020905b81548152906001019060200180831161121157829003601f168201915b5050505050815260200160038201805461124790616129565b80601f016020809104026020016040519081016040528092919081815260200182805461127390616129565b80156112c05780601f10611295576101008083540402835291602001916112c0565b820191906000526020600020905b8154815290600101906020018083116112a357829003601f168201915b505050505081526020016004820180546112d990616129565b80601f016020809104026020016040519081016040528092919081815260200182805461130590616129565b80156113525780601f1061132757610100808354040283529160200191611352565b820191906000526020600020905b81548152906001019060200180831161133557829003601f168201915b5050505050815260200160058201805461136b90616129565b80601f016020809104026020016040519081016040528092919081815260200182805461139790616129565b80156113e45780601f106113b9576101008083540402835291602001916113e4565b820191906000526020600020905b8154815290600101906020018083116113c757829003601f168201915b505050505081526020016006820180546113fd90616129565b80601f016020809104026020016040519081016040528092919081815260200182805461142990616129565b80156114765780601f1061144b57610100808354040283529160200191611476565b820191906000526020600020905b81548152906001019060200180831161145957829003601f168201915b50505050508152505084838151811061149257611491616440565b5b60200260200101819052506001826114aa919061640c565b915050505b80806114ba906160b2565b91505061105e565b50809250505090565b6114d3614ebb565b600a60008381526020019081526020016000206040518060a0016040529081600082015481526020016001820160009054906101000a900473ffffffffffffffffffffffffffffffffffffffff1673ffffffffffffffffffffffffffffffffffffffff1673ffffffffffffffffffffffffffffffffffffffff16815260200160028201805461156190616129565b80601f016020809104026020016040519081016040528092919081815260200182805461158d90616129565b80156115da5780601f106115af576101008083540402835291602001916115da565b820191906000526020600020905b8154815290600101906020018083116115bd57829003601f168201915b505050505081526020016003820180546115f390616129565b80601f016020809104026020016040519081016040528092919081815260200182805461161f90616129565b801561166c5780601f106116415761010080835404028352916020019161166c565b820191906000526020600020905b81548152906001019060200180831161164f57829003601f168201915b5050505050815260200160048201805461168590616129565b80601f01602080910402602001604051908101604052809291908181526020018280546116b190616129565b80156116fe5780601f106116d3576101008083540402835291602001916116fe565b820191906000526020600020905b8154815290600101906020018083116116e157829003601f168201915b5050505050815250509050919050565b6060600060055467ffffffffffffffff81111561172e5761172d6150cc565b5b60405190808252806020026020018201604052801561176757816020015b611754614ebb565b81526020019060019003908161174c5790505b50905060005b6005548110156119e2576000600a60008381526020019081526020016000209050806040518060a0016040529081600082015481526020016001820160009054906101000a900473ffffffffffffffffffffffffffffffffffffffff1673ffffffffffffffffffffffffffffffffffffffff1673ffffffffffffffffffffffffffffffffffffffff16815260200160028201805461180a90616129565b80601f016020809104026020016040519081016040528092919081815260200182805461183690616129565b80156118835780601f1061185857610100808354040283529160200191611883565b820191906000526020600020905b81548152906001019060200180831161186657829003601f168201915b5050505050815260200160038201805461189c90616129565b80601f01602080910402602001604051908101604052809291908181526020018280546118c890616129565b80156119155780601f106118ea57610100808354040283529160200191611915565b820191906000526020600020905b8154815290600101906020018083116118f857829003601f168201915b5050505050815260200160048201805461192e90616129565b80601f016020809104026020016040519081016040528092919081815260200182805461195a90616129565b80156119a75780601f1061197c576101008083540402835291602001916119a7565b820191906000526020600020905b81548152906001019060200180831161198a57829003601f168201915b5050505050815250508383815181106119c3576119c2616440565b5b60200260200101819052505080806119da906160b2565b91505061176d565b508091505090565b6000600b60003373ffffffffffffffffffffffffffffffffffffffff1673ffffffffffffffffffffffffffffffffffffffff16815260200190815260200160002054905060005b6012600083815260200190815260200160002080549050811015611a9f5782601260008481526020019081526020016000208281548110611a7557611a74616440565b5b906000526020600020015403611a8c575050611adc565b8080611a97906160b2565b915050611a31565b5060126000828152602001908152602001600020829080600181540180825580915050600190039060005260206000200160009091909190915055505b50565b6000600c60008373ffffffffffffffffffffffffffffffffffffffff1673ffffffffffffffffffffffffffffffffffffffff1681526020019081526020016000205490506000600b60003373ffffffffffffffffffffffffffffffffffffffff1673ffffffffffffffffffffffffffffffffffffffff16815260200190815260200160002054905060005b6011600083815260200190815260200160002080549050811015611bd95782601160008481526020019081526020016000208281548110611bae57611bad616440565b5b906000526020600020015403611bc657505050611c17565b8080611bd1906160b2565b915050611b6a565b506011600082815260200190815260200160002082908060018154018082558091505060019003906000526020600020016000909190919091505550505b50565b600080600b60008573ffffffffffffffffffffffffffffffffffffffff1673ffffffffffffffffffffffffffffffffffffffff1681526020019081526020016000205490506000600c60008573ffffffffffffffffffffffffffffffffffffffff1673ffffffffffffffffffffffffffffffffffffffff16815260200190815260200160002054905060005b6011600084815260200190815260200160002080549050811015611d195781601160008581526020019081526020016000208281548110611cea57611ce9616440565b5b906000526020600020015403611d065760019350505050611d21565b8080611d11906160b2565b915050611ca6565b506000925050505b92915050565b6040518060a001604052803373ffffffffffffffffffffffffffffffffffffffff168152602001858152602001848152602001838152602001828152506007600060026000815480929190611d7b906160b2565b91905055815260200190815260200160002060008201518160000160006101000a81548173ffffffffffffffffffffffffffffffffffffffff021916908373ffffffffffffffffffffffffffffffffffffffff1602179055506020820151816001019081611de99190616306565b506040820151816002019081611dff9190616306565b506060820151816003019081611e159190616306565b506080820151816004019081611e2b9190616306565b509050506001600254611e3e91906163d8565b600c60003373ffffffffffffffffffffffffffffffffffffffff1673ffffffffffffffffffffffffffffffffffffffff168152602001908152602001600020819055506001600f60003373ffffffffffffffffffffffffffffffffffffffff1673ffffffffffffffffffffffffffffffffffffffff16815260200190815260200160002060006101000a81548160ff02191690831515021790555050505050565b60606000600b60003373ffffffffffffffffffffffffffffffffffffffff1673ffffffffffffffffffffffffffffffffffffffff1681526020019081526020016000205490506000601260008381526020019081526020016000208054905067ffffffffffffffff811115611f5757611f566150cc565b5b604051908082528060200260200182016040528015611f9057816020015b611f7d614ebb565b815260200190600190039081611f755790505b50905060005b601260008481526020019081526020016000208054905081101561224e576000600a6000601260008781526020019081526020016000208481548110611fdf57611fde616440565b5b906000526020600020015481526020019081526020016000209050806040518060a0016040529081600082015481526020016001820160009054906101000a900473ffffffffffffffffffffffffffffffffffffffff1673ffffffffffffffffffffffffffffffffffffffff1673ffffffffffffffffffffffffffffffffffffffff16815260200160028201805461207690616129565b80601f01602080910402602001604051908101604052809291908181526020018280546120a290616129565b80156120ef5780601f106120c4576101008083540402835291602001916120ef565b820191906000526020600020905b8154815290600101906020018083116120d257829003601f168201915b5050505050815260200160038201805461210890616129565b80601f016020809104026020016040519081016040528092919081815260200182805461213490616129565b80156121815780601f1061215657610100808354040283529160200191612181565b820191906000526020600020905b81548152906001019060200180831161216457829003601f168201915b5050505050815260200160048201805461219a90616129565b80601f01602080910402602001604051908101604052809291908181526020018280546121c690616129565b80156122135780601f106121e857610100808354040283529160200191612213565b820191906000526020600020905b8154815290600101906020018083116121f657829003601f168201915b50505050508152505083838151811061222f5761222e616440565b5b6020026020010181905250508080612246906160b2565b915050611f96565b50809250505090565b6000600b60003373ffffffffffffffffffffffffffffffffffffffff1673ffffffffffffffffffffffffffffffffffffffff16815260200190815260200160002054905060005b60126000838152602001908152602001600020805490508110156123c457826012600084815260200190815260200160002082815481106122e2576122e1616440565b5b9060005260206000200154036123b157601260008381526020019081526020016000206001601260008581526020019081526020016000208054905061232891906163d8565b8154811061233957612338616440565b5b906000526020600020015460126000848152602001908152602001600020828154811061236957612368616440565b5b90600052602060002001819055506012600083815260200190815260200160002080548061239a5761239961646f565b5b600190038181906000526020600020016000905590555b80806123bc906160b2565b91505061229e565b505050565b6040518060a0016040528060055481526020013373ffffffffffffffffffffffffffffffffffffffff16815260200184815260200183815260200182815250600a600060055481526020019081526020016000206000820151816000015560208201518160010160006101000a81548173ffffffffffffffffffffffffffffffffffffffff021916908373ffffffffffffffffffffffffffffffffffffffff16021790555060408201518160020190816124839190616306565b5060608201518160030190816124999190616306565b5060808201518160040190816124af9190616306565b509050506001600560008282546124c6919061640c565b92505081905550505050565b6060600115156124e28333611c1a565b151514612524576040517f08c379a000000000000000000000000000000000000000000000000000000000815260040161251b90616521565b60405180910390fd5b600080600090505b6003548110156125c2578373ffffffffffffffffffffffffffffffffffffffff166008600083815260200190815260200160002060000160009054906101000a900473ffffffffffffffffffffffffffffffffffffffff1673ffffffffffffffffffffffffffffffffffffffff16036125af576001826125ac919061640c565b91505b80806125ba906160b2565b91505061252c565b5060008167ffffffffffffffff8111156125df576125de6150cc565b5b60405190808252806020026020018201604052801561261857816020015b612605614f00565b8152602001906001900390816125fd5790505b50905060005b600354811015612a82578473ffffffffffffffffffffffffffffffffffffffff166008600083815260200190815260200160002060000160009054906101000a900473ffffffffffffffffffffffffffffffffffffffff1673ffffffffffffffffffffffffffffffffffffffff1603612a6f5760008190506000600860008381526020019081526020016000209050806040518060e00160405290816000820160009054906101000a900473ffffffffffffffffffffffffffffffffffffffff1673ffffffffffffffffffffffffffffffffffffffff1673ffffffffffffffffffffffffffffffffffffffff1681526020016001820160009054906101000a900473ffffffffffffffffffffffffffffffffffffffff1673ffffffffffffffffffffffffffffffffffffffff1673ffffffffffffffffffffffffffffffffffffffff16815260200160028201805461277590616129565b80601f01602080910402602001604051908101604052809291908181526020018280546127a190616129565b80156127ee5780601f106127c3576101008083540402835291602001916127ee565b820191906000526020600020905b8154815290600101906020018083116127d157829003601f168201915b5050505050815260200160038201805461280790616129565b80601f016020809104026020016040519081016040528092919081815260200182805461283390616129565b80156128805780601f1061285557610100808354040283529160200191612880565b820191906000526020600020905b81548152906001019060200180831161286357829003601f168201915b5050505050815260200160048201805461289990616129565b80601f01602080910402602001604051908101604052809291908181526020018280546128c590616129565b80156129125780601f106128e757610100808354040283529160200191612912565b820191906000526020600020905b8154815290600101906020018083116128f557829003601f168201915b5050505050815260200160058201805461292b90616129565b80601f016020809104026020016040519081016040528092919081815260200182805461295790616129565b80156129a45780601f10612979576101008083540402835291602001916129a4565b820191906000526020600020905b81548152906001019060200180831161298757829003601f168201915b505050505081526020016006820180546129bd90616129565b80601f01602080910402602001604051908101604052809291908181526020018280546129e990616129565b8015612a365780601f10612a0b57610100808354040283529160200191612a36565b820191906000526020600020905b815481529060010190602001808311612a1957829003601f168201915b505050505081525050848381518110612a5257612a51616440565b5b6020026020010181905250600182612a6a919061640c565b915050505b8080612a7a906160b2565b91505061261e565b508092505050919050565b60606000600b60003373ffffffffffffffffffffffffffffffffffffffff1673ffffffffffffffffffffffffffffffffffffffff1681526020019081526020016000205490506000601160008381526020019081526020016000208054905067ffffffffffffffff811115612b0557612b046150cc565b5b604051908082528060200260200182016040528015612b3e57816020015b612b2b614f69565b815260200190600190039081612b235790505b50905060005b6011600084815260200190815260200160002080549050811015612e8457600060076000601160008781526020019081526020016000208481548110612b8d57612b8c616440565b5b906000526020600020015481526020019081526020016000209050806040518060a00160405290816000820160009054906101000a900473ffffffffffffffffffffffffffffffffffffffff1673ffffffffffffffffffffffffffffffffffffffff1673ffffffffffffffffffffffffffffffffffffffff168152602001600182018054612c1a90616129565b80601f0160208091040260200160405190810160405280929190818152602001828054612c4690616129565b8015612c935780601f10612c6857610100808354040283529160200191612c93565b820191906000526020600020905b815481529060010190602001808311612c7657829003601f168201915b50505050508152602001600282018054612cac90616129565b80601f0160208091040260200160405190810160405280929190818152602001828054612cd890616129565b8015612d255780601f10612cfa57610100808354040283529160200191612d25565b820191906000526020600020905b815481529060010190602001808311612d0857829003601f168201915b50505050508152602001600382018054612d3e90616129565b80601f0160208091040260200160405190810160405280929190818152602001828054612d6a90616129565b8015612db75780601f10612d8c57610100808354040283529160200191612db7565b820191906000526020600020905b815481529060010190602001808311612d9a57829003601f168201915b50505050508152602001600482018054612dd090616129565b80601f0160208091040260200160405190810160405280929190818152602001828054612dfc90616129565b8015612e495780601f10612e1e57610100808354040283529160200191612e49565b820191906000526020600020905b815481529060010190602001808311612e2c57829003601f168201915b505050505081525050838381518110612e6557612e64616440565b5b6020026020010181905250508080612e7c906160b2565b915050612b44565b50809250505090565b600080600b60008573ffffffffffffffffffffffffffffffffffffffff1673ffffffffffffffffffffffffffffffffffffffff16815260200190815260200160002054905060005b6012600083815260200190815260200160002080549050811015612f475783601260008481526020019081526020016000208281548110612f1957612f18616440565b5b906000526020600020015403612f3457600192505050612f4e565b8080612f3f906160b2565b915050612ed5565b5060009150505b92915050565b612f5c614fae565b60096000600d60008573ffffffffffffffffffffffffffffffffffffffff1673ffffffffffffffffffffffffffffffffffffffff1681526020019081526020016000205481526020019081526020016000206040518060800160405290816000820160009054906101000a900473ffffffffffffffffffffffffffffffffffffffff1673ffffffffffffffffffffffffffffffffffffffff1673ffffffffffffffffffffffffffffffffffffffff16815260200160018201805461301f90616129565b80601f016020809104026020016040519081016040528092919081815260200182805461304b90616129565b80156130985780601f1061306d57610100808354040283529160200191613098565b820191906000526020600020905b81548152906001019060200180831161307b57829003601f168201915b505050505081526020016002820180546130b190616129565b80601f01602080910402602001604051908101604052809291908181526020018280546130dd90616129565b801561312a5780601f106130ff5761010080835404028352916020019161312a565b820191906000526020600020905b81548152906001019060200180831161310d57829003601f168201915b5050505050815260200160038201805461314390616129565b80601f016020809104026020016040519081016040528092919081815260200182805461316f90616129565b80156131bc5780601f10613191576101008083540402835291602001916131bc565b820191906000526020600020905b81548152906001019060200180831161319f57829003601f168201915b5050505050815250509050919050565b6131d4614fec565b60066000600b60008573ffffffffffffffffffffffffffffffffffffffff1673ffffffffffffffffffffffffffffffffffffffff1681526020019081526020016000205481526020019081526020016000206040518060e00160405290816000820160009054906101000a900473ffffffffffffffffffffffffffffffffffffffff1673ffffffffffffffffffffffffffffffffffffffff1673ffffffffffffffffffffffffffffffffffffffff16815260200160018201805461329790616129565b80601f01602080910402602001604051908101604052809291908181526020018280546132c390616129565b80156133105780601f106132e557610100808354040283529160200191613310565b820191906000526020600020905b8154815290600101906020018083116132f357829003601f168201915b5050505050815260200160028201805461332990616129565b80601f016020809104026020016040519081016040528092919081815260200182805461335590616129565b80156133a25780601f10613377576101008083540402835291602001916133a2565b820191906000526020600020905b81548152906001019060200180831161338557829003601f168201915b505050505081526020016003820180546133bb90616129565b80601f01602080910402602001604051908101604052809291908181526020018280546133e790616129565b80156134345780601f1061340957610100808354040283529160200191613434565b820191906000526020600020905b81548152906001019060200180831161341757829003601f168201915b5050505050815260200160048201805461344d90616129565b80601f016020809104026020016040519081016040528092919081815260200182805461347990616129565b80156134c65780601f1061349b576101008083540402835291602001916134c6565b820191906000526020600020905b8154815290600101906020018083116134a957829003601f168201915b50505050508152602001600582015481526020016006820180546134e990616129565b80601f016020809104026020016040519081016040528092919081815260200182805461351590616129565b80156135625780601f1061353757610100808354040283529160200191613562565b820191906000526020600020905b81548152906001019060200180831161354557829003601f168201915b5050505050815250509050919050565b61357a614f69565b60076000600c60008573ffffffffffffffffffffffffffffffffffffffff1673ffffffffffffffffffffffffffffffffffffffff1681526020019081526020016000205481526020019081526020016000206040518060a00160405290816000820160009054906101000a900473ffffffffffffffffffffffffffffffffffffffff1673ffffffffffffffffffffffffffffffffffffffff1673ffffffffffffffffffffffffffffffffffffffff16815260200160018201805461363d90616129565b80601f016020809104026020016040519081016040528092919081815260200182805461366990616129565b80156136b65780601f1061368b576101008083540402835291602001916136b6565b820191906000526020600020905b81548152906001019060200180831161369957829003601f168201915b505050505081526020016002820180546136cf90616129565b80601f01602080910402602001604051908101604052809291908181526020018280546136fb90616129565b80156137485780601f1061371d57610100808354040283529160200191613748565b820191906000526020600020905b81548152906001019060200180831161372b57829003601f168201915b5050505050815260200160038201805461376190616129565b80601f016020809104026020016040519081016040528092919081815260200182805461378d90616129565b80156137da5780601f106137af576101008083540402835291602001916137da565b820191906000526020600020905b8154815290600101906020018083116137bd57829003601f168201915b505050505081526020016004820180546137f390616129565b80601f016020809104026020016040519081016040528092919081815260200182805461381f90616129565b801561386c5780601f106138415761010080835404028352916020019161386c565b820191906000526020600020905b81548152906001019060200180831161384f57829003601f168201915b5050505050815250509050919050565b6060600060025467ffffffffffffffff81111561389c5761389b6150cc565b5b6040519080825280602002602001820160405280156138d557816020015b6138c2614f69565b8152602001906001900390816138ba5790505b50905060005b600254811015613bd8576000600760008381526020019081526020016000209050806040518060a00160405290816000820160009054906101000a900473ffffffffffffffffffffffffffffffffffffffff1673ffffffffffffffffffffffffffffffffffffffff1673ffffffffffffffffffffffffffffffffffffffff16815260200160018201805461396e90616129565b80601f016020809104026020016040519081016040528092919081815260200182805461399a90616129565b80156139e75780601f106139bc576101008083540402835291602001916139e7565b820191906000526020600020905b8154815290600101906020018083116139ca57829003601f168201915b50505050508152602001600282018054613a0090616129565b80601f0160208091040260200160405190810160405280929190818152602001828054613a2c90616129565b8015613a795780601f10613a4e57610100808354040283529160200191613a79565b820191906000526020600020905b815481529060010190602001808311613a5c57829003601f168201915b50505050508152602001600382018054613a9290616129565b80601f0160208091040260200160405190810160405280929190818152602001828054613abe90616129565b8015613b0b5780601f10613ae057610100808354040283529160200191613b0b565b820191906000526020600020905b815481529060010190602001808311613aee57829003601f168201915b50505050508152602001600482018054613b2490616129565b80601f0160208091040260200160405190810160405280929190818152602001828054613b5090616129565b8015613b9d5780601f10613b7257610100808354040283529160200191613b9d565b820191906000526020600020905b815481529060010190602001808311613b8057829003601f168201915b505050505081525050838381518110613bb957613bb8616440565b5b6020026020010181905250508080613bd0906160b2565b9150506138db565b508091505090565b606060011515613bf08484612e8d565b151514613c32576040517f08c379a0000000000000000000000000000000000000000000000000000000008152600401613c2990616521565b60405180910390fd5b600080600090505b600354811015613cd0578473ffffffffffffffffffffffffffffffffffffffff166008600083815260200190815260200160002060000160009054906101000a900473ffffffffffffffffffffffffffffffffffffffff1673ffffffffffffffffffffffffffffffffffffffff1603613cbd57600182613cba919061640c565b91505b8080613cc8906160b2565b915050613c3a565b5060008167ffffffffffffffff811115613ced57613cec6150cc565b5b604051908082528060200260200182016040528015613d2657816020015b613d13614f00565b815260200190600190039081613d0b5790505b50905060005b600354811015614190578573ffffffffffffffffffffffffffffffffffffffff166008600083815260200190815260200160002060000160009054906101000a900473ffffffffffffffffffffffffffffffffffffffff1673ffffffffffffffffffffffffffffffffffffffff160361417d5760008190506000600860008381526020019081526020016000209050806040518060e00160405290816000820160009054906101000a900473ffffffffffffffffffffffffffffffffffffffff1673ffffffffffffffffffffffffffffffffffffffff1673ffffffffffffffffffffffffffffffffffffffff1681526020016001820160009054906101000a900473ffffffffffffffffffffffffffffffffffffffff1673ffffffffffffffffffffffffffffffffffffffff1673ffffffffffffffffffffffffffffffffffffffff168152602001600282018054613e8390616129565b80601f0160208091040260200160405190810160405280929190818152602001828054613eaf90616129565b8015613efc5780601f10613ed157610100808354040283529160200191613efc565b820191906000526020600020905b815481529060010190602001808311613edf57829003601f168201915b50505050508152602001600382018054613f1590616129565b80601f0160208091040260200160405190810160405280929190818152602001828054613f4190616129565b8015613f8e5780601f10613f6357610100808354040283529160200191613f8e565b820191906000526020600020905b815481529060010190602001808311613f7157829003601f168201915b50505050508152602001600482018054613fa790616129565b80601f0160208091040260200160405190810160405280929190818152602001828054613fd390616129565b80156140205780601f10613ff557610100808354040283529160200191614020565b820191906000526020600020905b81548152906001019060200180831161400357829003601f168201915b5050505050815260200160058201805461403990616129565b80601f016020809104026020016040519081016040528092919081815260200182805461406590616129565b80156140b25780601f10614087576101008083540402835291602001916140b2565b820191906000526020600020905b81548152906001019060200180831161409557829003601f168201915b505050505081526020016006820180546140cb90616129565b80601f01602080910402602001604051908101604052809291908181526020018280546140f790616129565b80156141445780601f1061411957610100808354040283529160200191614144565b820191906000526020600020905b81548152906001019060200180831161412757829003601f168201915b5050505050815250508483815181106141605761415f616440565b5b6020026020010181905250600182614178919061640c565b915050505b8080614188906160b2565b915050613d2c565b50809250505092915050565b6060600080600090505b6001548110156142425760005b601260008381526020019081526020016000208054905081101561422e57846012600084815260200190815260200160002082815481106141f7576141f6616440565b5b90600052602060002001540361421b57600183614214919061640c565b925061422e565b8080614226906160b2565b9150506141b3565b50808061423a906160b2565b9150506141a6565b5060008167ffffffffffffffff81111561425f5761425e6150cc565b5b60405190808252806020026020018201604052801561429857816020015b614285614fec565b81526020019060019003908161427d5790505b5090506000915060005b6001548110156146ba5760005b60126000838152602001908152602001600020805490508110156146a657856012600084815260200190815260200160002082815481106142f3576142f2616440565b5b906000526020600020015403614693576000600660008481526020019081526020016000209050806040518060e00160405290816000820160009054906101000a900473ffffffffffffffffffffffffffffffffffffffff1673ffffffffffffffffffffffffffffffffffffffff1673ffffffffffffffffffffffffffffffffffffffff16815260200160018201805461438c90616129565b80601f01602080910402602001604051908101604052809291908181526020018280546143b890616129565b80156144055780601f106143da57610100808354040283529160200191614405565b820191906000526020600020905b8154815290600101906020018083116143e857829003601f168201915b5050505050815260200160028201805461441e90616129565b80601f016020809104026020016040519081016040528092919081815260200182805461444a90616129565b80156144975780601f1061446c57610100808354040283529160200191614497565b820191906000526020600020905b81548152906001019060200180831161447a57829003601f168201915b505050505081526020016003820180546144b090616129565b80601f01602080910402602001604051908101604052809291908181526020018280546144dc90616129565b80156145295780601f106144fe57610100808354040283529160200191614529565b820191906000526020600020905b81548152906001019060200180831161450c57829003601f168201915b5050505050815260200160048201805461454290616129565b80601f016020809104026020016040519081016040528092919081815260200182805461456e90616129565b80156145bb5780601f10614590576101008083540402835291602001916145bb565b820191906000526020600020905b81548152906001019060200180831161459e57829003601f168201915b50505050508152602001600582015481526020016006820180546145de90616129565b80601f016020809104026020016040519081016040528092919081815260200182805461460a90616129565b80156146575780601f1061462c57610100808354040283529160200191614657565b820191906000526020600020905b81548152906001019060200180831161463a57829003601f168201915b50505050508152505084868151811061467357614672616440565b5b602002602001018190525060018561468b919061640c565b9450506146a6565b808061469e906160b2565b9150506142af565b5080806146b2906160b2565b9150506142a2565b508092505050919050565b6000600c60008373ffffffffffffffffffffffffffffffffffffffff1673ffffffffffffffffffffffffffffffffffffffff1681526020019081526020016000205490506000600b60003373ffffffffffffffffffffffffffffffffffffffff1673ffffffffffffffffffffffffffffffffffffffff16815260200190815260200160002054905060005b6011600083815260200190815260200160002080549050811015614876578260116000848152602001908152602001600020828154811061479457614793616440565b5b9060005260206000200154036148635760116000838152602001908152602001600020600160116000858152602001908152602001600020805490506147da91906163d8565b815481106147eb576147ea616440565b5b906000526020600020015460116000848152602001908152602001600020828154811061481b5761481a616440565b5b90600052602060002001819055506011600083815260200190815260200160002080548061484c5761484b61646f565b5b600190038181906000526020600020016000905590555b808061486e906160b2565b915050614750565b50505050565b6060600080600090505b60035481101561491c573373ffffffffffffffffffffffffffffffffffffffff166008600083815260200190815260200160002060000160009054906101000a900473ffffffffffffffffffffffffffffffffffffffff1673ffffffffffffffffffffffffffffffffffffffff160361490957600182614906919061640c565b91505b8080614914906160b2565b915050614886565b5061492681614df9565b614931600354614df9565b60008167ffffffffffffffff81111561494d5761494c6150cc565b5b60405190808252806020026020018201604052801561498657816020015b614973614f00565b81526020019060019003908161496b5790505b50905060005b600354811015614df0573373ffffffffffffffffffffffffffffffffffffffff166008600083815260200190815260200160002060000160009054906101000a900473ffffffffffffffffffffffffffffffffffffffff1673ffffffffffffffffffffffffffffffffffffffff1603614ddd5760008190506000600860008381526020019081526020016000209050806040518060e00160405290816000820160009054906101000a900473ffffffffffffffffffffffffffffffffffffffff1673ffffffffffffffffffffffffffffffffffffffff1673ffffffffffffffffffffffffffffffffffffffff1681526020016001820160009054906101000a900473ffffffffffffffffffffffffffffffffffffffff1673ffffffffffffffffffffffffffffffffffffffff1673ffffffffffffffffffffffffffffffffffffffff168152602001600282018054614ae390616129565b80601f0160208091040260200160405190810160405280929190818152602001828054614b0f90616129565b8015614b5c5780601f10614b3157610100808354040283529160200191614b5c565b820191906000526020600020905b815481529060010190602001808311614b3f57829003601f168201915b50505050508152602001600382018054614b7590616129565b80601f0160208091040260200160405190810160405280929190818152602001828054614ba190616129565b8015614bee5780601f10614bc357610100808354040283529160200191614bee565b820191906000526020600020905b815481529060010190602001808311614bd157829003601f168201915b50505050508152602001600482018054614c0790616129565b80601f0160208091040260200160405190810160405280929190818152602001828054614c3390616129565b8015614c805780601f10614c5557610100808354040283529160200191614c80565b820191906000526020600020905b815481529060010190602001808311614c6357829003601f168201915b50505050508152602001600582018054614c9990616129565b80601f0160208091040260200160405190810160405280929190818152602001828054614cc590616129565b8015614d125780601f10614ce757610100808354040283529160200191614d12565b820191906000526020600020905b815481529060010190602001808311614cf557829003601f168201915b50505050508152602001600682018054614d2b90616129565b80601f0160208091040260200160405190810160405280929190818152602001828054614d5790616129565b8015614da45780601f10614d7957610100808354040283529160200191614da4565b820191906000526020600020905b815481529060010190602001808311614d8757829003601f168201915b505050505081525050848381518110614dc057614dbf616440565b5b6020026020010181905250600182614dd8919061640c565b915050505b8080614de8906160b2565b91505061498c565b50809250505090565b614e8f81604051602401614e0d9190615329565b6040516020818303038152906040527ff82c50f1000000000000000000000000000000000000000000000000000000007bffffffffffffffffffffffffffffffffffffffffffffffffffffffff19166020820180517bffffffffffffffffffffffffffffffffffffffffffffffffffffffff8381831617835250505050614e92565b50565b60008151905060006a636f6e736f6c652e6c6f679050602083016000808483855afa5050505050565b6040518060a0016040528060008152602001600073ffffffffffffffffffffffffffffffffffffffff1681526020016060815260200160608152602001606081525090565b6040518060e00160405280600073ffffffffffffffffffffffffffffffffffffffff168152602001600073ffffffffffffffffffffffffffffffffffffffff16815260200160608152602001606081526020016060815260200160608152602001606081525090565b6040518060a00160405280600073ffffffffffffffffffffffffffffffffffffffff168152602001606081526020016060815260200160608152602001606081525090565b6040518060800160405280600073ffffffffffffffffffffffffffffffffffffffff1681526020016060815260200160608152602001606081525090565b6040518060e00160405280600073ffffffffffffffffffffffffffffffffffffffff1681526020016060815260200160608152602001606081526020016060815260200160008152602001606081525090565b6000604051905090565b600080fd5b600080fd5b600073ffffffffffffffffffffffffffffffffffffffff82169050919050565b600061507e82615053565b9050919050565b61508e81615073565b811461509957600080fd5b50565b6000813590506150ab81615085565b92915050565b600080fd5b600080fd5b6000601f19601f8301169050919050565b7f4e487b7100000000000000000000000000000000000000000000000000000000600052604160045260246000fd5b615104826150bb565b810181811067ffffffffffffffff82111715615123576151226150cc565b5b80604052505050565b600061513661503f565b905061514282826150fb565b919050565b600067ffffffffffffffff821115615162576151616150cc565b5b61516b826150bb565b9050602081019050919050565b82818337600083830152505050565b600061519a61519584615147565b61512c565b9050828152602081018484840111156151b6576151b56150b6565b5b6151c1848285615178565b509392505050565b600082601f8301126151de576151dd6150b1565b5b81356151ee848260208601615187565b91505092915050565b60008060008060008060c0878903121561521457615213615049565b5b600061522289828a0161509c565b965050602087013567ffffffffffffffff8111156152435761524261504e565b5b61524f89828a016151c9565b955050604087013567ffffffffffffffff8111156152705761526f61504e565b5b61527c89828a016151c9565b945050606087013567ffffffffffffffff81111561529d5761529c61504e565b5b6152a989828a016151c9565b935050608087013567ffffffffffffffff8111156152ca576152c961504e565b5b6152d689828a016151c9565b92505060a087013567ffffffffffffffff8111156152f7576152f661504e565b5b61530389828a016151c9565b9150509295509295509295565b6000819050919050565b61532381615310565b82525050565b600060208201905061533e600083018461531a565b92915050565b61534d81615310565b811461535857600080fd5b50565b60008135905061536a81615344565b92915050565b60008060008060008060c0878903121561538d5761538c615049565b5b600087013567ffffffffffffffff8111156153ab576153aa61504e565b5b6153b789828a016151c9565b965050602087013567ffffffffffffffff8111156153d8576153d761504e565b5b6153e489828a016151c9565b955050604087013567ffffffffffffffff8111156154055761540461504e565b5b61541189828a016151c9565b945050606087013567ffffffffffffffff8111156154325761543161504e565b5b61543e89828a016151c9565b935050608061544f89828a0161535b565b92505060a087013567ffffffffffffffff8111156154705761546f61504e565b5b61547c89828a016151c9565b9150509295509295509295565b600081519050919050565b600082825260208201905092915050565b6000819050602082019050919050565b6154be81615310565b82525050565b6154cd81615073565b82525050565b600081519050919050565b600082825260208201905092915050565b60005b8381101561550d5780820151818401526020810190506154f2565b60008484015250505050565b6000615524826154d3565b61552e81856154de565b935061553e8185602086016154ef565b615547816150bb565b840191505092915050565b600060a08301600083015161556a60008601826154b5565b50602083015161557d60208601826154c4565b50604083015184820360408601526155958282615519565b915050606083015184820360608601526155af8282615519565b915050608083015184820360808601526155c98282615519565b9150508091505092915050565b60006155e28383615552565b905092915050565b6000602082019050919050565b600061560282615489565b61560c8185615494565b93508360208202850161561e856154a5565b8060005b8581101561565a578484038952815161563b85826155d6565b9450615646836155ea565b925060208a01995050600181019050615622565b50829750879550505050505092915050565b6000602082019050818103600083015261568681846155f7565b905092915050565b6000806000606084860312156156a7576156a6615049565b5b600084013567ffffffffffffffff8111156156c5576156c461504e565b5b6156d1868287016151c9565b935050602084013567ffffffffffffffff8111156156f2576156f161504e565b5b6156fe868287016151c9565b925050604084013567ffffffffffffffff81111561571f5761571e61504e565b5b61572b868287016151c9565b9150509250925092565b600081519050919050565b600082825260208201905092915050565b6000819050602082019050919050565b600060e08301600083015161577960008601826154c4565b50602083015161578c60208601826154c4565b50604083015184820360408601526157a48282615519565b915050606083015184820360608601526157be8282615519565b915050608083015184820360808601526157d88282615519565b91505060a083015184820360a08601526157f28282615519565b91505060c083015184820360c086015261580c8282615519565b9150508091505092915050565b60006158258383615761565b905092915050565b6000602082019050919050565b600061584582615735565b61584f8185615740565b93508360208202850161586185615751565b8060005b8581101561589d578484038952815161587e8582615819565b94506158898361582d565b925060208a01995050600181019050615865565b50829750879550505050505092915050565b600060208201905081810360008301526158c9818461583a565b905092915050565b6000602082840312156158e7576158e6615049565b5b60006158f58482850161535b565b91505092915050565b600060a08301600083015161591660008601826154b5565b50602083015161592960208601826154c4565b50604083015184820360408601526159418282615519565b9150506060830151848203606086015261595b8282615519565b915050608083015184820360808601526159758282615519565b9150508091505092915050565b6000602082019050818103600083015261599c81846158fe565b905092915050565b6000602082840312156159ba576159b9615049565b5b60006159c88482850161509c565b91505092915050565b600080604083850312156159e8576159e7615049565b5b60006159f68582860161509c565b9250506020615a078582860161509c565b9150509250929050565b60008115159050919050565b615a2681615a11565b82525050565b6000602082019050615a416000830184615a1d565b92915050565b60008060008060808587031215615a6157615a60615049565b5b600085013567ffffffffffffffff811115615a7f57615a7e61504e565b5b615a8b878288016151c9565b945050602085013567ffffffffffffffff811115615aac57615aab61504e565b5b615ab8878288016151c9565b935050604085013567ffffffffffffffff811115615ad957615ad861504e565b5b615ae5878288016151c9565b925050606085013567ffffffffffffffff811115615b0657615b0561504e565b5b615b12878288016151c9565b91505092959194509250565b600081519050919050565b600082825260208201905092915050565b6000819050602082019050919050565b600060a083016000830151615b6260008601826154c4565b5060208301518482036020860152615b7a8282615519565b91505060408301518482036040860152615b948282615519565b91505060608301518482036060860152615bae8282615519565b91505060808301518482036080860152615bc88282615519565b9150508091505092915050565b6000615be18383615b4a565b905092915050565b6000602082019050919050565b6000615c0182615b1e565b615c0b8185615b29565b935083602082028501615c1d85615b3a565b8060005b85811015615c595784840389528151615c3a8582615bd5565b9450615c4583615be9565b925060208a01995050600181019050615c21565b50829750879550505050505092915050565b60006020820190508181036000830152615c858184615bf6565b905092915050565b60008060408385031215615ca457615ca3615049565b5b6000615cb28582860161509c565b9250506020615cc38582860161535b565b9150509250929050565b6000608083016000830151615ce560008601826154c4565b5060208301518482036020860152615cfd8282615519565b91505060408301518482036040860152615d178282615519565b91505060608301518482036060860152615d318282615519565b9150508091505092915050565b60006020820190508181036000830152615d588184615ccd565b905092915050565b600060e083016000830151615d7860008601826154c4565b5060208301518482036020860152615d908282615519565b91505060408301518482036040860152615daa8282615519565b91505060608301518482036060860152615dc48282615519565b91505060808301518482036080860152615dde8282615519565b91505060a0830151615df360a08601826154b5565b5060c083015184820360c0860152615e0b8282615519565b9150508091505092915050565b60006020820190508181036000830152615e328184615d60565b905092915050565b600060a083016000830151615e5260008601826154c4565b5060208301518482036020860152615e6a8282615519565b91505060408301518482036040860152615e848282615519565b91505060608301518482036060860152615e9e8282615519565b91505060808301518482036080860152615eb88282615519565b9150508091505092915050565b60006020820190508181036000830152615edf8184615e3a565b905092915050565b600081519050919050565b600082825260208201905092915050565b6000819050602082019050919050565b600060e083016000830151615f2b60008601826154c4565b5060208301518482036020860152615f438282615519565b91505060408301518482036040860152615f5d8282615519565b91505060608301518482036060860152615f778282615519565b91505060808301518482036080860152615f918282615519565b91505060a0830151615fa660a08601826154b5565b5060c083015184820360c0860152615fbe8282615519565b9150508091505092915050565b6000615fd78383615f13565b905092915050565b6000602082019050919050565b6000615ff782615ee7565b6160018185615ef2565b93508360208202850161601385615f03565b8060005b8581101561604f57848403895281516160308582615fcb565b945061603b83615fdf565b925060208a01995050600181019050616017565b50829750879550505050505092915050565b6000602082019050818103600083015261607b8184615fec565b905092915050565b7f4e487b7100000000000000000000000000000000000000000000000000000000600052601160045260246000fd5b60006160bd82615310565b91507fffffffffffffffffffffffffffffffffffffffffffffffffffffffffffffffff82036160ef576160ee616083565b5b600182019050919050565b7f4e487b7100000000000000000000000000000000000000000000000000000000600052602260045260246000fd5b6000600282049050600182168061614157607f821691505b602082108103616154576161536160fa565b5b50919050565b60008190508160005260206000209050919050565b60006020601f8301049050919050565b600082821b905092915050565b6000600883026161bc7fffffffffffffffffffffffffffffffffffffffffffffffffffffffffffffffff8261617f565b6161c6868361617f565b95508019841693508086168417925050509392505050565b6000819050919050565b60006162036161fe6161f984615310565b6161de565b615310565b9050919050565b6000819050919050565b61621d836161e8565b6162316162298261620a565b84845461618c565b825550505050565b600090565b616246616239565b616251818484616214565b505050565b5b818110156162755761626a60008261623e565b600181019050616257565b5050565b601f8211156162ba5761628b8161615a565b6162948461616f565b810160208510156162a3578190505b6162b76162af8561616f565b830182616256565b50505b505050565b600082821c905092915050565b60006162dd600019846008026162bf565b1980831691505092915050565b60006162f683836162cc565b9150826002028217905092915050565b61630f826154d3565b67ffffffffffffffff811115616328576163276150cc565b5b6163328254616129565b61633d828285616279565b600060209050601f831160018114616370576000841561635e578287015190505b61636885826162ea565b8655506163d0565b601f19841661637e8661615a565b60005b828110156163a657848901518255600182019150602085019450602081019050616381565b868310156163c357848901516163bf601f8916826162cc565b8355505b6001600288020188555050505b505050505050565b60006163e382615310565b91506163ee83615310565b925082820390508181111561640657616405616083565b5b92915050565b600061641782615310565b915061642283615310565b925082820190508082111561643a57616439616083565b5b92915050565b7f4e487b7100000000000000000000000000000000000000000000000000000000600052603260045260246000fd5b7f4e487b7100000000000000000000000000000000000000000000000000000000600052603160045260246000fd5b600082825260208201905092915050565b7f446f6573206e6f7420686173207468652061636365737320746f20666574636860008201527f2074686520646f63756d656e7473000000000000000000000000000000000000602082015250565b600061650b602e8361649e565b9150616516826164af565b604082019050919050565b6000602082019050818103600083015261653a816164fe565b905091905056fea2646970667358221220d13cd64392831c73061a0e1d27173d8b89bf087beee3f643f8a39a4e7938507264736f6c63430008110033",
	"linkReferences": {},
	"deployedLinkReferences": {}
}