{
  "_format": "hh-sol-artifact-1",
  "contractName": "EHR",
  "sourceName": "contracts/EHR.sol",
  "abi": [
    {
      "inputs": [],
      "stateMutability": "nonpayable",
      "type": "constructor"
    },
    {
      "inputs": [],
      "name": "checkRole",
      "outputs": [
        {
          "internalType": "uint256",
          "name": "",
          "type": "uint256"
        }
      ],
      "stateMutability": "view",
      "type": "function"
    },
    {
      "inputs": [
        {
          "internalType": "address",
          "name": "userAdd",
          "type": "address"
        },
        {
          "internalType": "string",
          "name": "docName",
          "type": "string"
        },
        {
          "internalType": "string",
          "name": "recordHash",
          "type": "string"
        },
        {
          "internalType": "string",
          "name": "recordName",
          "type": "string"
        },
        {
          "internalType": "string",
          "name": "issueDate",
          "type": "string"
        },
        {
          "internalType": "string",
          "name": "testSuggested",
          "type": "string"
        }
      ],
      "name": "createNewRecord",
      "outputs": [],
      "stateMutability": "nonpayable",
      "type": "function"
    },
    {
      "inputs": [
        {
          "internalType": "string",
          "name": "name",
          "type": "string"
        },
        {
          "internalType": "string",
          "name": "description",
          "type": "string"
        },
        {
          "internalType": "string",
          "name": "cid",
          "type": "string"
        }
      ],
      "name": "createNewResearch",
      "outputs": [],
      "stateMutability": "nonpayable",
      "type": "function"
    },
    {
      "inputs": [],
      "name": "fetchAllHospitals",
      "outputs": [
        {
          "components": [
            {
              "internalType": "address",
              "name": "hosAdd",
              "type": "address"
            },
            {
              "internalType": "string",
              "name": "name",
              "type": "string"
            },
            {
              "internalType": "string",
              "name": "personalAdd",
              "type": "string"
            },
            {
              "internalType": "string",
              "name": "emailId",
              "type": "string"
            },
            {
              "internalType": "string",
              "name": "contactNo",
              "type": "string"
            }
          ],
          "internalType": "struct EHR.Hospital[]",
          "name": "",
          "type": "tuple[]"
        }
      ],
      "stateMutability": "view",
      "type": "function"
    },
    {
      "inputs": [],
      "name": "fetchAllResearchs",
      "outputs": [
        {
          "components": [
            {
              "internalType": "uint256",
              "name": "id",
              "type": "uint256"
            },
            {
              "internalType": "address",
              "name": "orgAdd",
              "type": "address"
            },
            {
              "internalType": "string",
              "name": "name",
              "type": "string"
            },
            {
              "internalType": "string",
              "name": "description",
              "type": "string"
            },
            {
              "internalType": "string",
              "name": "cid",
              "type": "string"
            }
          ],
          "internalType": "struct EHR.Research[]",
          "name": "",
          "type": "tuple[]"
        }
      ],
      "stateMutability": "view",
      "type": "function"
    },
    {
      "inputs": [
        {
          "internalType": "uint256",
          "name": "researchId",
          "type": "uint256"
        }
      ],
      "name": "fetchAllUsersForResearch",
      "outputs": [
        {
          "components": [
            {
              "internalType": "address",
              "name": "userAdd",
              "type": "address"
            },
            {
              "internalType": "string",
              "name": "name",
              "type": "string"
            },
            {
              "internalType": "string",
              "name": "personalAdd",
              "type": "string"
            },
            {
              "internalType": "string",
              "name": "emailId",
              "type": "string"
            },
            {
              "internalType": "string",
              "name": "mobileNo",
              "type": "string"
            },
            {
              "internalType": "uint256",
              "name": "gender",
              "type": "uint256"
            },
            {
              "internalType": "string",
              "name": "dob",
              "type": "string"
            }
          ],
          "internalType": "struct EHR.User[]",
          "name": "",
          "type": "tuple[]"
        }
      ],
      "stateMutability": "view",
      "type": "function"
    },
    {
      "inputs": [
        {
          "internalType": "address",
          "name": "hospitalAddress",
          "type": "address"
        }
      ],
      "name": "fetchHospitalByAddress",
      "outputs": [
        {
          "components": [
            {
              "internalType": "address",
              "name": "hosAdd",
              "type": "address"
            },
            {
              "internalType": "string",
              "name": "name",
              "type": "string"
            },
            {
              "internalType": "string",
              "name": "personalAdd",
              "type": "string"
            },
            {
              "internalType": "string",
              "name": "emailId",
              "type": "string"
            },
            {
              "internalType": "string",
              "name": "contactNo",
              "type": "string"
            }
          ],
          "internalType": "struct EHR.Hospital",
          "name": "",
          "type": "tuple"
        }
      ],
      "stateMutability": "view",
      "type": "function"
    },
    {
      "inputs": [],
      "name": "fetchMyDocuments",
      "outputs": [
        {
          "components": [
            {
              "internalType": "address",
              "name": "userAdd",
              "type": "address"
            },
            {
              "internalType": "address",
              "name": "hosAdd",
              "type": "address"
            },
            {
              "internalType": "string",
              "name": "docName",
              "type": "string"
            },
            {
              "internalType": "string",
              "name": "recordHash",
              "type": "string"
            },
            {
              "internalType": "string",
              "name": "recordName",
              "type": "string"
            },
            {
              "internalType": "string",
              "name": "issueDate",
              "type": "string"
            },
            {
              "internalType": "string",
              "name": "testSuggested",
              "type": "string"
            }
          ],
          "internalType": "struct EHR.Record[]",
          "name": "",
          "type": "tuple[]"
        }
      ],
      "stateMutability": "view",
      "type": "function"
    },
    {
      "inputs": [],
      "name": "fetchMyHospitalAccessList",
      "outputs": [
        {
          "components": [
            {
              "internalType": "address",
              "name": "hosAdd",
              "type": "address"
            },
            {
              "internalType": "string",
              "name": "name",
              "type": "string"
            },
            {
              "internalType": "string",
              "name": "personalAdd",
              "type": "string"
            },
            {
              "internalType": "string",
              "name": "emailId",
              "type": "string"
            },
            {
              "internalType": "string",
              "name": "contactNo",
              "type": "string"
            }
          ],
          "internalType": "struct EHR.Hospital[]",
          "name": "",
          "type": "tuple[]"
        }
      ],
      "stateMutability": "view",
      "type": "function"
    },
    {
      "inputs": [],
      "name": "fetchMyResearchAccessList",
      "outputs": [
        {
          "components": [
            {
              "internalType": "uint256",
              "name": "id",
              "type": "uint256"
            },
            {
              "internalType": "address",
              "name": "orgAdd",
              "type": "address"
            },
            {
              "internalType": "string",
              "name": "name",
              "type": "string"
            },
            {
              "internalType": "string",
              "name": "description",
              "type": "string"
            },
            {
              "internalType": "string",
              "name": "cid",
              "type": "string"
            }
          ],
          "internalType": "struct EHR.Research[]",
          "name": "",
          "type": "tuple[]"
        }
      ],
      "stateMutability": "view",
      "type": "function"
    },
    {
      "inputs": [],
      "name": "fetchMyResearchs",
      "outputs": [
        {
          "components": [
            {
              "internalType": "uint256",
              "name": "id",
              "type": "uint256"
            },
            {
              "internalType": "address",
              "name": "orgAdd",
              "type": "address"
            },
            {
              "internalType": "string",
              "name": "name",
              "type": "string"
            },
            {
              "internalType": "string",
              "name": "description",
              "type": "string"
            },
            {
              "internalType": "string",
              "name": "cid",
              "type": "string"
            }
          ],
          "internalType": "struct EHR.Research[]",
          "name": "",
          "type": "tuple[]"
        }
      ],
      "stateMutability": "view",
      "type": "function"
    },
    {
      "inputs": [
        {
          "internalType": "address",
          "name": "orgAddress",
          "type": "address"
        }
      ],
      "name": "fetchOrganizationByAddress",
      "outputs": [
        {
          "components": [
            {
              "internalType": "address",
              "name": "orgAdd",
              "type": "address"
            },
            {
              "internalType": "string",
              "name": "name",
              "type": "string"
            },
            {
              "internalType": "string",
              "name": "emailId",
              "type": "string"
            },
            {
              "internalType": "string",
              "name": "contactNo",
              "type": "string"
            }
          ],
          "internalType": "struct EHR.ResearchOrg",
          "name": "",
          "type": "tuple"
        }
      ],
      "stateMutability": "view",
      "type": "function"
    },
    {
      "inputs": [
        {
          "internalType": "uint256",
          "name": "id",
          "type": "uint256"
        }
      ],
      "name": "fetchResearchById",
      "outputs": [
        {
          "components": [
            {
              "internalType": "uint256",
              "name": "id",
              "type": "uint256"
            },
            {
              "internalType": "address",
              "name": "orgAdd",
              "type": "address"
            },
            {
              "internalType": "string",
              "name": "name",
              "type": "string"
            },
            {
              "internalType": "string",
              "name": "description",
              "type": "string"
            },
            {
              "internalType": "string",
              "name": "cid",
              "type": "string"
            }
          ],
          "internalType": "struct EHR.Research",
          "name": "",
          "type": "tuple"
        }
      ],
      "stateMutability": "view",
      "type": "function"
    },
    {
      "inputs": [
        {
          "internalType": "address",
          "name": "userAddress",
          "type": "address"
        }
      ],
      "name": "fetchUserByAddress",
      "outputs": [
        {
          "components": [
            {
              "internalType": "address",
              "name": "userAdd",
              "type": "address"
            },
            {
              "internalType": "string",
              "name": "name",
              "type": "string"
            },
            {
              "internalType": "string",
              "name": "personalAdd",
              "type": "string"
            },
            {
              "internalType": "string",
              "name": "emailId",
              "type": "string"
            },
            {
              "internalType": "string",
              "name": "mobileNo",
              "type": "string"
            },
            {
              "internalType": "uint256",
              "name": "gender",
              "type": "uint256"
            },
            {
              "internalType": "string",
              "name": "dob",
              "type": "string"
            }
          ],
          "internalType": "struct EHR.User",
          "name": "",
          "type": "tuple"
        }
      ],
      "stateMutability": "view",
      "type": "function"
    },
    {
      "inputs": [
        {
          "internalType": "address",
          "name": "userAddress",
          "type": "address"
        }
      ],
      "name": "fetchUserDocumentsForHospital",
      "outputs": [
        {
          "components": [
            {
              "internalType": "address",
              "name": "userAdd",
              "type": "address"
            },
            {
              "internalType": "address",
              "name": "hosAdd",
              "type": "address"
            },
            {
              "internalType": "string",
              "name": "docName",
              "type": "string"
            },
            {
              "internalType": "string",
              "name": "recordHash",
              "type": "string"
            },
            {
              "internalType": "string",
              "name": "recordName",
              "type": "string"
            },
            {
              "internalType": "string",
              "name": "issueDate",
              "type": "string"
            },
            {
              "internalType": "string",
              "name": "testSuggested",
              "type": "string"
            }
          ],
          "internalType": "struct EHR.Record[]",
          "name": "",
          "type": "tuple[]"
        }
      ],
      "stateMutability": "view",
      "type": "function"
    },
    {
      "inputs": [
        {
          "internalType": "address",
          "name": "userAddress",
          "type": "address"
        },
        {
          "internalType": "uint256",
          "name": "researchId",
          "type": "uint256"
        }
      ],
      "name": "fetchUserDocumentsForResearch",
      "outputs": [
        {
          "components": [
            {
              "internalType": "address",
              "name": "userAdd",
              "type": "address"
            },
            {
              "internalType": "address",
              "name": "hosAdd",
              "type": "address"
            },
            {
              "internalType": "string",
              "name": "docName",
              "type": "string"
            },
            {
              "internalType": "string",
              "name": "recordHash",
              "type": "string"
            },
            {
              "internalType": "string",
              "name": "recordName",
              "type": "string"
            },
            {
              "internalType": "string",
              "name": "issueDate",
              "type": "string"
            },
            {
              "internalType": "string",
              "name": "testSuggested",
              "type": "string"
            }
          ],
          "internalType": "struct EHR.Record[]",
          "name": "",
          "type": "tuple[]"
        }
      ],
      "stateMutability": "view",
      "type": "function"
    },
    {
      "inputs": [],
      "name": "getAllHospitalRecords",
      "outputs": [
        {
          "components": [
            {
              "internalType": "address",
              "name": "userAdd",
              "type": "address"
            },
            {
              "internalType": "address",
              "name": "hosAdd",
              "type": "address"
            },
            {
              "internalType": "string",
              "name": "docName",
              "type": "string"
            },
            {
              "internalType": "string",
              "name": "recordHash",
              "type": "string"
            },
            {
              "internalType": "string",
              "name": "recordName",
              "type": "string"
            },
            {
              "internalType": "string",
              "name": "issueDate",
              "type": "string"
            },
            {
              "internalType": "string",
              "name": "testSuggested",
              "type": "string"
            }
          ],
          "internalType": "struct EHR.Record[]",
          "name": "",
          "type": "tuple[]"
        }
      ],
      "stateMutability": "view",
      "type": "function"
    },
    {
      "inputs": [
        {
          "internalType": "address",
          "name": "hospitalAddress",
          "type": "address"
        }
      ],
      "name": "grantAccessToHospital",
      "outputs": [],
      "stateMutability": "nonpayable",
      "type": "function"
    },
    {
      "inputs": [
        {
          "internalType": "uint256",
          "name": "researchId",
          "type": "uint256"
        }
      ],
      "name": "grantAccessToResearch",
      "outputs": [],
      "stateMutability": "nonpayable",
      "type": "function"
    },
    {
      "inputs": [
        {
          "internalType": "address",
          "name": "userAddress",
          "type": "address"
        },
        {
          "internalType": "uint256",
          "name": "researchId",
          "type": "uint256"
        }
      ],
      "name": "hasUserRecordAccessForResearch",
      "outputs": [
        {
          "internalType": "bool",
          "name": "",
          "type": "bool"
        }
      ],
      "stateMutability": "view",
      "type": "function"
    },
    {
      "inputs": [
        {
          "internalType": "string",
          "name": "name",
          "type": "string"
        },
        {
          "internalType": "string",
          "name": "personalAdd",
          "type": "string"
        },
        {
          "internalType": "string",
          "name": "emailId",
          "type": "string"
        },
        {
          "internalType": "string",
          "name": "mobileNo",
          "type": "string"
        }
      ],
      "name": "registerHospital",
      "outputs": [],
      "stateMutability": "nonpayable",
      "type": "function"
    },
    {
      "inputs": [
        {
          "internalType": "string",
          "name": "name",
          "type": "string"
        },
        {
          "internalType": "string",
          "name": "emailId",
          "type": "string"
        },
        {
          "internalType": "string",
          "name": "mobileNo",
          "type": "string"
        }
      ],
      "name": "registerResearchOrg",
      "outputs": [],
      "stateMutability": "nonpayable",
      "type": "function"
    },
    {
      "inputs": [
        {
          "internalType": "string",
          "name": "name",
          "type": "string"
        },
        {
          "internalType": "string",
          "name": "personalAdd",
          "type": "string"
        },
        {
          "internalType": "string",
          "name": "emailId",
          "type": "string"
        },
        {
          "internalType": "string",
          "name": "mobileNo",
          "type": "string"
        },
        {
          "internalType": "uint256",
          "name": "gender",
          "type": "uint256"
        },
        {
          "internalType": "string",
          "name": "dob",
          "type": "string"
        }
      ],
      "name": "registerUser",
      "outputs": [],
      "stateMutability": "nonpayable",
      "type": "function"
    },
    {
      "inputs": [
        {
          "internalType": "address",
          "name": "hospitalAddress",
          "type": "address"
        }
      ],
      "name": "removeAccessFromHospital",
      "outputs": [],
      "stateMutability": "nonpayable",
      "type": "function"
    },
    {
      "inputs": [
        {
          "internalType": "uint256",
          "name": "researchId",
          "type": "uint256"
        }
      ],
      "name": "removeAccessFromResearch",
      "outputs": [],
      "stateMutability": "nonpayable",
      "type": "function"
    }
  ],
  "bytecode": "0x608060405234801561001057600080fd5b50336000806101000a81548173ffffffffffffffffffffffffffffffffffffffff021916908373ffffffffffffffffffffffffffffffffffffffff1602179055506164ec80620000616000396000f3fe608060405234801561001057600080fd5b50600436106101735760003560e01c8063684217a6116100de5780639f900a1811610097578063c444411d11610071578063c444411d1461044a578063da8da7311461047a578063edf9e00a146104aa578063f95ad8fd146104c657610173565b80639f900a18146103cc578063b4153176146103fc578063baa719dc1461042c57610173565b8063684217a6146102e65780638280c16c14610302578063849326f21461031e5780638aeab3801461034e5780639d27643b1461036c5780639ea271d51461039c57610173565b8063272620b911610130578063272620b9146102265780633c51fad51461025657806341bd117c146102745780634630d73b146102905780634df6f28d146102ac57806354053ea8146102c857610173565b806302539bd8146101785780630482aa8214610194578063166fb618146101b25780631be8530e146101ce578063223a6d34146101ec578063245e7f9514610208575b600080fd5b610192600480360381019061018d91906151ac565b6104e4565b005b61019c610673565b6040516101a991906152de565b60405180910390f35b6101cc60048036038101906101c79190615325565b6107a0565b005b6101d6610985565b6040516101e39190615621565b60405180910390f35b61020660048036038101906102019190615643565b610d7c565b005b610210610f17565b60405161021d9190615864565b60405180910390f35b610240600480360381019061023b9190615886565b611480565b60405161024d9190615937565b60405180910390f35b61025e6116c3565b60405161026b9190615621565b60405180910390f35b61028e60048036038101906102899190615886565b61199f565b005b6102aa60048036038101906102a59190615959565b611a94565b005b6102c660048036038101906102c19190615986565b611bcf565b005b6102d0611d87565b6040516102dd9190615621565b60405180910390f35b61030060048036038101906102fb9190615886565b6120ff565b005b61031c60048036038101906103179190615643565b612271565b005b61033860048036038101906103339190615959565b61237a565b6040516103459190615864565b60405180910390f35b610356612935565b6040516103639190615baa565b60405180910390f35b61038660048036038101906103819190615bcc565b612d35565b6040516103939190615c27565b60405180910390f35b6103b660048036038101906103b19190615959565b612dfc565b6040516103c39190615cb3565b60405180910390f35b6103e660048036038101906103e19190615959565b613074565b6040516103f39190615d8d565b60405180910390f35b61041660048036038101906104119190615959565b61341a565b6040516104239190615e3a565b60405180910390f35b610434613724565b6040516104419190615baa565b60405180910390f35b610464600480360381019061045f9190615bcc565b613a88565b6040516104719190615864565b60405180910390f35b610494600480360381019061048f9190615886565b614044565b6040516104a19190615fd6565b60405180910390f35b6104c460048036038101906104bf9190615959565b61456d565b005b6104ce614724565b6040516104db9190615864565b60405180910390f35b6040518060e001604052808773ffffffffffffffffffffffffffffffffffffffff1681526020013373ffffffffffffffffffffffffffffffffffffffff16815260200186815260200185815260200184815260200183815260200182815250600860006003600081548092919061055a90616027565b91905055815260200190815260200160002060008201518160000160006101000a81548173ffffffffffffffffffffffffffffffffffffffff021916908373ffffffffffffffffffffffffffffffffffffffff16021790555060208201518160010160006101000a81548173ffffffffffffffffffffffffffffffffffffffff021916908373ffffffffffffffffffffffffffffffffffffffff160217905550604082015181600201908161060f919061627b565b506060820151816003019081610625919061627b565b50608082015181600401908161063b919061627b565b5060a0820151816005019081610651919061627b565b5060c0820151816006019081610667919061627b565b50905050505050505050565b600060011515600e60003373ffffffffffffffffffffffffffffffffffffffff1673ffffffffffffffffffffffffffffffffffffffff16815260200190815260200160002060009054906101000a900460ff161515036106d6576001905061079d565b60011515600f60003373ffffffffffffffffffffffffffffffffffffffff1673ffffffffffffffffffffffffffffffffffffffff16815260200190815260200160002060009054906101000a900460ff16151503610737576002905061079d565b60011515601060003373ffffffffffffffffffffffffffffffffffffffff1673ffffffffffffffffffffffffffffffffffffffff16815260200190815260200160002060009054906101000a900460ff16151503610798576003905061079d565b600090505b90565b6040518060e001604052803373ffffffffffffffffffffffffffffffffffffffff16815260200187815260200186815260200185815260200184815260200183815260200182815250600660006001600081548092919061080090616027565b91905055815260200190815260200160002060008201518160000160006101000a81548173ffffffffffffffffffffffffffffffffffffffff021916908373ffffffffffffffffffffffffffffffffffffffff160217905550602082015181600101908161086e919061627b565b506040820151816002019081610884919061627b565b50606082015181600301908161089a919061627b565b5060808201518160040190816108b0919061627b565b5060a0820151816005015560c08201518160060190816108d0919061627b565b50905050600180546108e2919061634d565b600b60003373ffffffffffffffffffffffffffffffffffffffff1673ffffffffffffffffffffffffffffffffffffffff168152602001908152602001600020819055506001600e60003373ffffffffffffffffffffffffffffffffffffffff1673ffffffffffffffffffffffffffffffffffffffff16815260200190815260200160002060006101000a81548160ff021916908315150217905550505050505050565b6060600080600090505b600554811015610a25573373ffffffffffffffffffffffffffffffffffffffff16600a600083815260200190815260200160002060010160009054906101000a900473ffffffffffffffffffffffffffffffffffffffff1673ffffffffffffffffffffffffffffffffffffffff1603610a1257600182610a0f9190616381565b91505b8080610a1d90616027565b91505061098f565b5060008167ffffffffffffffff811115610a4257610a41615081565b5b604051908082528060200260200182016040528015610a7b57816020015b610a68614e70565b815260200190600190039081610a605790505b5090506000915060005b600554811015610d73573373ffffffffffffffffffffffffffffffffffffffff16600a600083815260200190815260200160002060010160009054906101000a900473ffffffffffffffffffffffffffffffffffffffff1673ffffffffffffffffffffffffffffffffffffffff1603610d60576000600a60008381526020019081526020016000209050806040518060a0016040529081600082015481526020016001820160009054906101000a900473ffffffffffffffffffffffffffffffffffffffff1673ffffffffffffffffffffffffffffffffffffffff1673ffffffffffffffffffffffffffffffffffffffff168152602001600282018054610b8b9061609e565b80601f0160208091040260200160405190810160405280929190818152602001828054610bb79061609e565b8015610c045780601f10610bd957610100808354040283529160200191610c04565b820191906000526020600020905b815481529060010190602001808311610be757829003601f168201915b50505050508152602001600382018054610c1d9061609e565b80601f0160208091040260200160405190810160405280929190818152602001828054610c499061609e565b8015610c965780601f10610c6b57610100808354040283529160200191610c96565b820191906000526020600020905b815481529060010190602001808311610c7957829003601f168201915b50505050508152602001600482018054610caf9061609e565b80601f0160208091040260200160405190810160405280929190818152602001828054610cdb9061609e565b8015610d285780601f10610cfd57610100808354040283529160200191610d28565b820191906000526020600020905b815481529060010190602001808311610d0b57829003601f168201915b505050505081525050838581518110610d4457610d436163b5565b5b6020026020010181905250600184610d5c9190616381565b9350505b8080610d6b90616027565b915050610a85565b50809250505090565b60405180608001604052803373ffffffffffffffffffffffffffffffffffffffff168152602001848152602001838152602001828152506009600060046000815480929190610dca90616027565b91905055815260200190815260200160002060008201518160000160006101000a81548173ffffffffffffffffffffffffffffffffffffffff021916908373ffffffffffffffffffffffffffffffffffffffff1602179055506020820151816001019081610e38919061627b565b506040820151816002019081610e4e919061627b565b506060820151816003019081610e64919061627b565b509050506001600454610e77919061634d565b600d60003373ffffffffffffffffffffffffffffffffffffffff1673ffffffffffffffffffffffffffffffffffffffff168152602001908152602001600020819055506001601060003373ffffffffffffffffffffffffffffffffffffffff1673ffffffffffffffffffffffffffffffffffffffff16815260200190815260200160002060006101000a81548160ff021916908315150217905550505050565b6060600080600090505b600354811015610fb7573373ffffffffffffffffffffffffffffffffffffffff166008600083815260200190815260200160002060010160009054906101000a900473ffffffffffffffffffffffffffffffffffffffff1673ffffffffffffffffffffffffffffffffffffffff1603610fa457600182610fa19190616381565b91505b8080610faf90616027565b915050610f21565b5060008167ffffffffffffffff811115610fd457610fd3615081565b5b60405190808252806020026020018201604052801561100d57816020015b610ffa614eb5565b815260200190600190039081610ff25790505b50905060005b600354811015611477573373ffffffffffffffffffffffffffffffffffffffff166008600083815260200190815260200160002060010160009054906101000a900473ffffffffffffffffffffffffffffffffffffffff1673ffffffffffffffffffffffffffffffffffffffff16036114645760008190506000600860008381526020019081526020016000209050806040518060e00160405290816000820160009054906101000a900473ffffffffffffffffffffffffffffffffffffffff1673ffffffffffffffffffffffffffffffffffffffff1673ffffffffffffffffffffffffffffffffffffffff1681526020016001820160009054906101000a900473ffffffffffffffffffffffffffffffffffffffff1673ffffffffffffffffffffffffffffffffffffffff1673ffffffffffffffffffffffffffffffffffffffff16815260200160028201805461116a9061609e565b80601f01602080910402602001604051908101604052809291908181526020018280546111969061609e565b80156111e35780601f106111b8576101008083540402835291602001916111e3565b820191906000526020600020905b8154815290600101906020018083116111c657829003601f168201915b505050505081526020016003820180546111fc9061609e565b80601f01602080910402602001604051908101604052809291908181526020018280546112289061609e565b80156112755780601f1061124a57610100808354040283529160200191611275565b820191906000526020600020905b81548152906001019060200180831161125857829003601f168201915b5050505050815260200160048201805461128e9061609e565b80601f01602080910402602001604051908101604052809291908181526020018280546112ba9061609e565b80156113075780601f106112dc57610100808354040283529160200191611307565b820191906000526020600020905b8154815290600101906020018083116112ea57829003601f168201915b505050505081526020016005820180546113209061609e565b80601f016020809104026020016040519081016040528092919081815260200182805461134c9061609e565b80156113995780601f1061136e57610100808354040283529160200191611399565b820191906000526020600020905b81548152906001019060200180831161137c57829003601f168201915b505050505081526020016006820180546113b29061609e565b80601f01602080910402602001604051908101604052809291908181526020018280546113de9061609e565b801561142b5780601f106114005761010080835404028352916020019161142b565b820191906000526020600020905b81548152906001019060200180831161140e57829003601f168201915b505050505081525050848381518110611447576114466163b5565b5b602002602001018190525060018261145f9190616381565b915050505b808061146f90616027565b915050611013565b50809250505090565b611488614e70565b600a60008381526020019081526020016000206040518060a0016040529081600082015481526020016001820160009054906101000a900473ffffffffffffffffffffffffffffffffffffffff1673ffffffffffffffffffffffffffffffffffffffff1673ffffffffffffffffffffffffffffffffffffffff1681526020016002820180546115169061609e565b80601f01602080910402602001604051908101604052809291908181526020018280546115429061609e565b801561158f5780601f106115645761010080835404028352916020019161158f565b820191906000526020600020905b81548152906001019060200180831161157257829003601f168201915b505050505081526020016003820180546115a89061609e565b80601f01602080910402602001604051908101604052809291908181526020018280546115d49061609e565b80156116215780601f106115f657610100808354040283529160200191611621565b820191906000526020600020905b81548152906001019060200180831161160457829003601f168201915b5050505050815260200160048201805461163a9061609e565b80601f01602080910402602001604051908101604052809291908181526020018280546116669061609e565b80156116b35780601f10611688576101008083540402835291602001916116b3565b820191906000526020600020905b81548152906001019060200180831161169657829003601f168201915b5050505050815250509050919050565b6060600060055467ffffffffffffffff8111156116e3576116e2615081565b5b60405190808252806020026020018201604052801561171c57816020015b611709614e70565b8152602001906001900390816117015790505b50905060005b600554811015611997576000600a60008381526020019081526020016000209050806040518060a0016040529081600082015481526020016001820160009054906101000a900473ffffffffffffffffffffffffffffffffffffffff1673ffffffffffffffffffffffffffffffffffffffff1673ffffffffffffffffffffffffffffffffffffffff1681526020016002820180546117bf9061609e565b80601f01602080910402602001604051908101604052809291908181526020018280546117eb9061609e565b80156118385780601f1061180d57610100808354040283529160200191611838565b820191906000526020600020905b81548152906001019060200180831161181b57829003601f168201915b505050505081526020016003820180546118519061609e565b80601f016020809104026020016040519081016040528092919081815260200182805461187d9061609e565b80156118ca5780601f1061189f576101008083540402835291602001916118ca565b820191906000526020600020905b8154815290600101906020018083116118ad57829003601f168201915b505050505081526020016004820180546118e39061609e565b80601f016020809104026020016040519081016040528092919081815260200182805461190f9061609e565b801561195c5780601f106119315761010080835404028352916020019161195c565b820191906000526020600020905b81548152906001019060200180831161193f57829003601f168201915b505050505081525050838381518110611978576119776163b5565b5b602002602001018190525050808061198f90616027565b915050611722565b508091505090565b6000600b60003373ffffffffffffffffffffffffffffffffffffffff1673ffffffffffffffffffffffffffffffffffffffff16815260200190815260200160002054905060005b6012600083815260200190815260200160002080549050811015611a545782601260008481526020019081526020016000208281548110611a2a57611a296163b5565b5b906000526020600020015403611a41575050611a91565b8080611a4c90616027565b9150506119e6565b5060126000828152602001908152602001600020829080600181540180825580915050600190039060005260206000200160009091909190915055505b50565b6000600c60008373ffffffffffffffffffffffffffffffffffffffff1673ffffffffffffffffffffffffffffffffffffffff1681526020019081526020016000205490506000600b60003373ffffffffffffffffffffffffffffffffffffffff1673ffffffffffffffffffffffffffffffffffffffff16815260200190815260200160002054905060005b6011600083815260200190815260200160002080549050811015611b8e5782601160008481526020019081526020016000208281548110611b6357611b626163b5565b5b906000526020600020015403611b7b57505050611bcc565b8080611b8690616027565b915050611b1f565b506011600082815260200190815260200160002082908060018154018082558091505060019003906000526020600020016000909190919091505550505b50565b6040518060a001604052803373ffffffffffffffffffffffffffffffffffffffff168152602001858152602001848152602001838152602001828152506007600060026000815480929190611c2390616027565b91905055815260200190815260200160002060008201518160000160006101000a81548173ffffffffffffffffffffffffffffffffffffffff021916908373ffffffffffffffffffffffffffffffffffffffff1602179055506020820151816001019081611c91919061627b565b506040820151816002019081611ca7919061627b565b506060820151816003019081611cbd919061627b565b506080820151816004019081611cd3919061627b565b509050506001600254611ce6919061634d565b600c60003373ffffffffffffffffffffffffffffffffffffffff1673ffffffffffffffffffffffffffffffffffffffff168152602001908152602001600020819055506001600f60003373ffffffffffffffffffffffffffffffffffffffff1673ffffffffffffffffffffffffffffffffffffffff16815260200190815260200160002060006101000a81548160ff02191690831515021790555050505050565b60606000600b60003373ffffffffffffffffffffffffffffffffffffffff1673ffffffffffffffffffffffffffffffffffffffff1681526020019081526020016000205490506000601260008381526020019081526020016000208054905067ffffffffffffffff811115611dff57611dfe615081565b5b604051908082528060200260200182016040528015611e3857816020015b611e25614e70565b815260200190600190039081611e1d5790505b50905060005b60126000848152602001908152602001600020805490508110156120f6576000600a6000601260008781526020019081526020016000208481548110611e8757611e866163b5565b5b906000526020600020015481526020019081526020016000209050806040518060a0016040529081600082015481526020016001820160009054906101000a900473ffffffffffffffffffffffffffffffffffffffff1673ffffffffffffffffffffffffffffffffffffffff1673ffffffffffffffffffffffffffffffffffffffff168152602001600282018054611f1e9061609e565b80601f0160208091040260200160405190810160405280929190818152602001828054611f4a9061609e565b8015611f975780601f10611f6c57610100808354040283529160200191611f97565b820191906000526020600020905b815481529060010190602001808311611f7a57829003601f168201915b50505050508152602001600382018054611fb09061609e565b80601f0160208091040260200160405190810160405280929190818152602001828054611fdc9061609e565b80156120295780601f10611ffe57610100808354040283529160200191612029565b820191906000526020600020905b81548152906001019060200180831161200c57829003601f168201915b505050505081526020016004820180546120429061609e565b80601f016020809104026020016040519081016040528092919081815260200182805461206e9061609e565b80156120bb5780601f10612090576101008083540402835291602001916120bb565b820191906000526020600020905b81548152906001019060200180831161209e57829003601f168201915b5050505050815250508383815181106120d7576120d66163b5565b5b60200260200101819052505080806120ee90616027565b915050611e3e565b50809250505090565b6000600b60003373ffffffffffffffffffffffffffffffffffffffff1673ffffffffffffffffffffffffffffffffffffffff16815260200190815260200160002054905060005b601260008381526020019081526020016000208054905081101561226c578260126000848152602001908152602001600020828154811061218a576121896163b5565b5b9060005260206000200154036122595760126000838152602001908152602001600020600160126000858152602001908152602001600020805490506121d0919061634d565b815481106121e1576121e06163b5565b5b9060005260206000200154601260008481526020019081526020016000208281548110612211576122106163b5565b5b906000526020600020018190555060126000838152602001908152602001600020805480612242576122416163e4565b5b600190038181906000526020600020016000905590555b808061226490616027565b915050612146565b505050565b6040518060a0016040528060055481526020013373ffffffffffffffffffffffffffffffffffffffff16815260200184815260200183815260200182815250600a600060055481526020019081526020016000206000820151816000015560208201518160010160006101000a81548173ffffffffffffffffffffffffffffffffffffffff021916908373ffffffffffffffffffffffffffffffffffffffff160217905550604082015181600201908161232b919061627b565b506060820151816003019081612341919061627b565b506080820151816004019081612357919061627b565b5090505060016005600082825461236e9190616381565b92505081905550505050565b60606001151561238a8333614ca1565b1515146123cc576040517f08c379a00000000000000000000000000000000000000000000000000000000081526004016123c390616496565b60405180910390fd5b600080600090505b60035481101561246a578373ffffffffffffffffffffffffffffffffffffffff166008600083815260200190815260200160002060000160009054906101000a900473ffffffffffffffffffffffffffffffffffffffff1673ffffffffffffffffffffffffffffffffffffffff1603612457576001826124549190616381565b91505b808061246290616027565b9150506123d4565b5060008167ffffffffffffffff81111561248757612486615081565b5b6040519080825280602002602001820160405280156124c057816020015b6124ad614eb5565b8152602001906001900390816124a55790505b50905060005b60035481101561292a578473ffffffffffffffffffffffffffffffffffffffff166008600083815260200190815260200160002060000160009054906101000a900473ffffffffffffffffffffffffffffffffffffffff1673ffffffffffffffffffffffffffffffffffffffff16036129175760008190506000600860008381526020019081526020016000209050806040518060e00160405290816000820160009054906101000a900473ffffffffffffffffffffffffffffffffffffffff1673ffffffffffffffffffffffffffffffffffffffff1673ffffffffffffffffffffffffffffffffffffffff1681526020016001820160009054906101000a900473ffffffffffffffffffffffffffffffffffffffff1673ffffffffffffffffffffffffffffffffffffffff1673ffffffffffffffffffffffffffffffffffffffff16815260200160028201805461261d9061609e565b80601f01602080910402602001604051908101604052809291908181526020018280546126499061609e565b80156126965780601f1061266b57610100808354040283529160200191612696565b820191906000526020600020905b81548152906001019060200180831161267957829003601f168201915b505050505081526020016003820180546126af9061609e565b80601f01602080910402602001604051908101604052809291908181526020018280546126db9061609e565b80156127285780601f106126fd57610100808354040283529160200191612728565b820191906000526020600020905b81548152906001019060200180831161270b57829003601f168201915b505050505081526020016004820180546127419061609e565b80601f016020809104026020016040519081016040528092919081815260200182805461276d9061609e565b80156127ba5780601f1061278f576101008083540402835291602001916127ba565b820191906000526020600020905b81548152906001019060200180831161279d57829003601f168201915b505050505081526020016005820180546127d39061609e565b80601f01602080910402602001604051908101604052809291908181526020018280546127ff9061609e565b801561284c5780601f106128215761010080835404028352916020019161284c565b820191906000526020600020905b81548152906001019060200180831161282f57829003601f168201915b505050505081526020016006820180546128659061609e565b80601f01602080910402602001604051908101604052809291908181526020018280546128919061609e565b80156128de5780601f106128b3576101008083540402835291602001916128de565b820191906000526020600020905b8154815290600101906020018083116128c157829003601f168201915b5050505050815250508483815181106128fa576128f96163b5565b5b60200260200101819052506001826129129190616381565b915050505b808061292290616027565b9150506124c6565b508092505050919050565b60606000600b60003373ffffffffffffffffffffffffffffffffffffffff1673ffffffffffffffffffffffffffffffffffffffff1681526020019081526020016000205490506000601160008381526020019081526020016000208054905067ffffffffffffffff8111156129ad576129ac615081565b5b6040519080825280602002602001820160405280156129e657816020015b6129d3614f1e565b8152602001906001900390816129cb5790505b50905060005b6011600084815260200190815260200160002080549050811015612d2c57600060076000601160008781526020019081526020016000208481548110612a3557612a346163b5565b5b906000526020600020015481526020019081526020016000209050806040518060a00160405290816000820160009054906101000a900473ffffffffffffffffffffffffffffffffffffffff1673ffffffffffffffffffffffffffffffffffffffff1673ffffffffffffffffffffffffffffffffffffffff168152602001600182018054612ac29061609e565b80601f0160208091040260200160405190810160405280929190818152602001828054612aee9061609e565b8015612b3b5780601f10612b1057610100808354040283529160200191612b3b565b820191906000526020600020905b815481529060010190602001808311612b1e57829003601f168201915b50505050508152602001600282018054612b549061609e565b80601f0160208091040260200160405190810160405280929190818152602001828054612b809061609e565b8015612bcd5780601f10612ba257610100808354040283529160200191612bcd565b820191906000526020600020905b815481529060010190602001808311612bb057829003601f168201915b50505050508152602001600382018054612be69061609e565b80601f0160208091040260200160405190810160405280929190818152602001828054612c129061609e565b8015612c5f5780601f10612c3457610100808354040283529160200191612c5f565b820191906000526020600020905b815481529060010190602001808311612c4257829003601f168201915b50505050508152602001600482018054612c789061609e565b80601f0160208091040260200160405190810160405280929190818152602001828054612ca49061609e565b8015612cf15780601f10612cc657610100808354040283529160200191612cf1565b820191906000526020600020905b815481529060010190602001808311612cd457829003601f168201915b505050505081525050838381518110612d0d57612d0c6163b5565b5b6020026020010181905250508080612d2490616027565b9150506129ec565b50809250505090565b600080600b60008573ffffffffffffffffffffffffffffffffffffffff1673ffffffffffffffffffffffffffffffffffffffff16815260200190815260200160002054905060005b6012600083815260200190815260200160002080549050811015612def5783601260008481526020019081526020016000208281548110612dc157612dc06163b5565b5b906000526020600020015403612ddc57600192505050612df6565b8080612de790616027565b915050612d7d565b5060009150505b92915050565b612e04614f63565b60096000600d60008573ffffffffffffffffffffffffffffffffffffffff1673ffffffffffffffffffffffffffffffffffffffff1681526020019081526020016000205481526020019081526020016000206040518060800160405290816000820160009054906101000a900473ffffffffffffffffffffffffffffffffffffffff1673ffffffffffffffffffffffffffffffffffffffff1673ffffffffffffffffffffffffffffffffffffffff168152602001600182018054612ec79061609e565b80601f0160208091040260200160405190810160405280929190818152602001828054612ef39061609e565b8015612f405780601f10612f1557610100808354040283529160200191612f40565b820191906000526020600020905b815481529060010190602001808311612f2357829003601f168201915b50505050508152602001600282018054612f599061609e565b80601f0160208091040260200160405190810160405280929190818152602001828054612f859061609e565b8015612fd25780601f10612fa757610100808354040283529160200191612fd2565b820191906000526020600020905b815481529060010190602001808311612fb557829003601f168201915b50505050508152602001600382018054612feb9061609e565b80601f01602080910402602001604051908101604052809291908181526020018280546130179061609e565b80156130645780601f1061303957610100808354040283529160200191613064565b820191906000526020600020905b81548152906001019060200180831161304757829003601f168201915b5050505050815250509050919050565b61307c614fa1565b60066000600b60008573ffffffffffffffffffffffffffffffffffffffff1673ffffffffffffffffffffffffffffffffffffffff1681526020019081526020016000205481526020019081526020016000206040518060e00160405290816000820160009054906101000a900473ffffffffffffffffffffffffffffffffffffffff1673ffffffffffffffffffffffffffffffffffffffff1673ffffffffffffffffffffffffffffffffffffffff16815260200160018201805461313f9061609e565b80601f016020809104026020016040519081016040528092919081815260200182805461316b9061609e565b80156131b85780601f1061318d576101008083540402835291602001916131b8565b820191906000526020600020905b81548152906001019060200180831161319b57829003601f168201915b505050505081526020016002820180546131d19061609e565b80601f01602080910402602001604051908101604052809291908181526020018280546131fd9061609e565b801561324a5780601f1061321f5761010080835404028352916020019161324a565b820191906000526020600020905b81548152906001019060200180831161322d57829003601f168201915b505050505081526020016003820180546132639061609e565b80601f016020809104026020016040519081016040528092919081815260200182805461328f9061609e565b80156132dc5780601f106132b1576101008083540402835291602001916132dc565b820191906000526020600020905b8154815290600101906020018083116132bf57829003601f168201915b505050505081526020016004820180546132f59061609e565b80601f01602080910402602001604051908101604052809291908181526020018280546133219061609e565b801561336e5780601f106133435761010080835404028352916020019161336e565b820191906000526020600020905b81548152906001019060200180831161335157829003601f168201915b50505050508152602001600582015481526020016006820180546133919061609e565b80601f01602080910402602001604051908101604052809291908181526020018280546133bd9061609e565b801561340a5780601f106133df5761010080835404028352916020019161340a565b820191906000526020600020905b8154815290600101906020018083116133ed57829003601f168201915b5050505050815250509050919050565b613422614f1e565b60076000600c60008573ffffffffffffffffffffffffffffffffffffffff1673ffffffffffffffffffffffffffffffffffffffff1681526020019081526020016000205481526020019081526020016000206040518060a00160405290816000820160009054906101000a900473ffffffffffffffffffffffffffffffffffffffff1673ffffffffffffffffffffffffffffffffffffffff1673ffffffffffffffffffffffffffffffffffffffff1681526020016001820180546134e59061609e565b80601f01602080910402602001604051908101604052809291908181526020018280546135119061609e565b801561355e5780601f106135335761010080835404028352916020019161355e565b820191906000526020600020905b81548152906001019060200180831161354157829003601f168201915b505050505081526020016002820180546135779061609e565b80601f01602080910402602001604051908101604052809291908181526020018280546135a39061609e565b80156135f05780601f106135c5576101008083540402835291602001916135f0565b820191906000526020600020905b8154815290600101906020018083116135d357829003601f168201915b505050505081526020016003820180546136099061609e565b80601f01602080910402602001604051908101604052809291908181526020018280546136359061609e565b80156136825780601f1061365757610100808354040283529160200191613682565b820191906000526020600020905b81548152906001019060200180831161366557829003601f168201915b5050505050815260200160048201805461369b9061609e565b80601f01602080910402602001604051908101604052809291908181526020018280546136c79061609e565b80156137145780601f106136e957610100808354040283529160200191613714565b820191906000526020600020905b8154815290600101906020018083116136f757829003601f168201915b5050505050815250509050919050565b6060600060025467ffffffffffffffff81111561374457613743615081565b5b60405190808252806020026020018201604052801561377d57816020015b61376a614f1e565b8152602001906001900390816137625790505b50905060005b600254811015613a80576000600760008381526020019081526020016000209050806040518060a00160405290816000820160009054906101000a900473ffffffffffffffffffffffffffffffffffffffff1673ffffffffffffffffffffffffffffffffffffffff1673ffffffffffffffffffffffffffffffffffffffff1681526020016001820180546138169061609e565b80601f01602080910402602001604051908101604052809291908181526020018280546138429061609e565b801561388f5780601f106138645761010080835404028352916020019161388f565b820191906000526020600020905b81548152906001019060200180831161387257829003601f168201915b505050505081526020016002820180546138a89061609e565b80601f01602080910402602001604051908101604052809291908181526020018280546138d49061609e565b80156139215780601f106138f657610100808354040283529160200191613921565b820191906000526020600020905b81548152906001019060200180831161390457829003601f168201915b5050505050815260200160038201805461393a9061609e565b80601f01602080910402602001604051908101604052809291908181526020018280546139669061609e565b80156139b35780601f10613988576101008083540402835291602001916139b3565b820191906000526020600020905b81548152906001019060200180831161399657829003601f168201915b505050505081526020016004820180546139cc9061609e565b80601f01602080910402602001604051908101604052809291908181526020018280546139f89061609e565b8015613a455780601f10613a1a57610100808354040283529160200191613a45565b820191906000526020600020905b815481529060010190602001808311613a2857829003601f168201915b505050505081525050838381518110613a6157613a606163b5565b5b6020026020010181905250508080613a7890616027565b915050613783565b508091505090565b606060011515613a988484612d35565b151514613ada576040517f08c379a0000000000000000000000000000000000000000000000000000000008152600401613ad190616496565b60405180910390fd5b600080600090505b600354811015613b78578473ffffffffffffffffffffffffffffffffffffffff166008600083815260200190815260200160002060000160009054906101000a900473ffffffffffffffffffffffffffffffffffffffff1673ffffffffffffffffffffffffffffffffffffffff1603613b6557600182613b629190616381565b91505b8080613b7090616027565b915050613ae2565b5060008167ffffffffffffffff811115613b9557613b94615081565b5b604051908082528060200260200182016040528015613bce57816020015b613bbb614eb5565b815260200190600190039081613bb35790505b50905060005b600354811015614038578573ffffffffffffffffffffffffffffffffffffffff166008600083815260200190815260200160002060000160009054906101000a900473ffffffffffffffffffffffffffffffffffffffff1673ffffffffffffffffffffffffffffffffffffffff16036140255760008190506000600860008381526020019081526020016000209050806040518060e00160405290816000820160009054906101000a900473ffffffffffffffffffffffffffffffffffffffff1673ffffffffffffffffffffffffffffffffffffffff1673ffffffffffffffffffffffffffffffffffffffff1681526020016001820160009054906101000a900473ffffffffffffffffffffffffffffffffffffffff1673ffffffffffffffffffffffffffffffffffffffff1673ffffffffffffffffffffffffffffffffffffffff168152602001600282018054613d2b9061609e565b80601f0160208091040260200160405190810160405280929190818152602001828054613d579061609e565b8015613da45780601f10613d7957610100808354040283529160200191613da4565b820191906000526020600020905b815481529060010190602001808311613d8757829003601f168201915b50505050508152602001600382018054613dbd9061609e565b80601f0160208091040260200160405190810160405280929190818152602001828054613de99061609e565b8015613e365780601f10613e0b57610100808354040283529160200191613e36565b820191906000526020600020905b815481529060010190602001808311613e1957829003601f168201915b50505050508152602001600482018054613e4f9061609e565b80601f0160208091040260200160405190810160405280929190818152602001828054613e7b9061609e565b8015613ec85780601f10613e9d57610100808354040283529160200191613ec8565b820191906000526020600020905b815481529060010190602001808311613eab57829003601f168201915b50505050508152602001600582018054613ee19061609e565b80601f0160208091040260200160405190810160405280929190818152602001828054613f0d9061609e565b8015613f5a5780601f10613f2f57610100808354040283529160200191613f5a565b820191906000526020600020905b815481529060010190602001808311613f3d57829003601f168201915b50505050508152602001600682018054613f739061609e565b80601f0160208091040260200160405190810160405280929190818152602001828054613f9f9061609e565b8015613fec5780601f10613fc157610100808354040283529160200191613fec565b820191906000526020600020905b815481529060010190602001808311613fcf57829003601f168201915b505050505081525050848381518110614008576140076163b5565b5b60200260200101819052506001826140209190616381565b915050505b808061403090616027565b915050613bd4565b50809250505092915050565b6060600080600090505b6001548110156140ea5760005b60126000838152602001908152602001600020805490508110156140d6578460126000848152602001908152602001600020828154811061409f5761409e6163b5565b5b9060005260206000200154036140c3576001836140bc9190616381565b92506140d6565b80806140ce90616027565b91505061405b565b5080806140e290616027565b91505061404e565b5060008167ffffffffffffffff81111561410757614106615081565b5b60405190808252806020026020018201604052801561414057816020015b61412d614fa1565b8152602001906001900390816141255790505b5090506000915060005b6001548110156145625760005b601260008381526020019081526020016000208054905081101561454e578560126000848152602001908152602001600020828154811061419b5761419a6163b5565b5b90600052602060002001540361453b576000600660008481526020019081526020016000209050806040518060e00160405290816000820160009054906101000a900473ffffffffffffffffffffffffffffffffffffffff1673ffffffffffffffffffffffffffffffffffffffff1673ffffffffffffffffffffffffffffffffffffffff1681526020016001820180546142349061609e565b80601f01602080910402602001604051908101604052809291908181526020018280546142609061609e565b80156142ad5780601f10614282576101008083540402835291602001916142ad565b820191906000526020600020905b81548152906001019060200180831161429057829003601f168201915b505050505081526020016002820180546142c69061609e565b80601f01602080910402602001604051908101604052809291908181526020018280546142f29061609e565b801561433f5780601f106143145761010080835404028352916020019161433f565b820191906000526020600020905b81548152906001019060200180831161432257829003601f168201915b505050505081526020016003820180546143589061609e565b80601f01602080910402602001604051908101604052809291908181526020018280546143849061609e565b80156143d15780601f106143a6576101008083540402835291602001916143d1565b820191906000526020600020905b8154815290600101906020018083116143b457829003601f168201915b505050505081526020016004820180546143ea9061609e565b80601f01602080910402602001604051908101604052809291908181526020018280546144169061609e565b80156144635780601f1061443857610100808354040283529160200191614463565b820191906000526020600020905b81548152906001019060200180831161444657829003601f168201915b50505050508152602001600582015481526020016006820180546144869061609e565b80601f01602080910402602001604051908101604052809291908181526020018280546144b29061609e565b80156144ff5780601f106144d4576101008083540402835291602001916144ff565b820191906000526020600020905b8154815290600101906020018083116144e257829003601f168201915b50505050508152505084868151811061451b5761451a6163b5565b5b60200260200101819052506001856145339190616381565b94505061454e565b808061454690616027565b915050614157565b50808061455a90616027565b91505061414a565b508092505050919050565b6000600c60008373ffffffffffffffffffffffffffffffffffffffff1673ffffffffffffffffffffffffffffffffffffffff1681526020019081526020016000205490506000600b60003373ffffffffffffffffffffffffffffffffffffffff1673ffffffffffffffffffffffffffffffffffffffff16815260200190815260200160002054905060005b601160008381526020019081526020016000208054905081101561471e578260116000848152602001908152602001600020828154811061463c5761463b6163b5565b5b90600052602060002001540361470b576011600083815260200190815260200160002060016011600085815260200190815260200160002080549050614682919061634d565b81548110614693576146926163b5565b5b90600052602060002001546011600084815260200190815260200160002082815481106146c3576146c26163b5565b5b9060005260206000200181905550601160008381526020019081526020016000208054806146f4576146f36163e4565b5b600190038181906000526020600020016000905590555b808061471690616027565b9150506145f8565b50505050565b6060600080600090505b6003548110156147c4573373ffffffffffffffffffffffffffffffffffffffff166008600083815260200190815260200160002060000160009054906101000a900473ffffffffffffffffffffffffffffffffffffffff1673ffffffffffffffffffffffffffffffffffffffff16036147b1576001826147ae9190616381565b91505b80806147bc90616027565b91505061472e565b506147ce81614dae565b6147d9600354614dae565b60008167ffffffffffffffff8111156147f5576147f4615081565b5b60405190808252806020026020018201604052801561482e57816020015b61481b614eb5565b8152602001906001900390816148135790505b50905060005b600354811015614c98573373ffffffffffffffffffffffffffffffffffffffff166008600083815260200190815260200160002060000160009054906101000a900473ffffffffffffffffffffffffffffffffffffffff1673ffffffffffffffffffffffffffffffffffffffff1603614c855760008190506000600860008381526020019081526020016000209050806040518060e00160405290816000820160009054906101000a900473ffffffffffffffffffffffffffffffffffffffff1673ffffffffffffffffffffffffffffffffffffffff1673ffffffffffffffffffffffffffffffffffffffff1681526020016001820160009054906101000a900473ffffffffffffffffffffffffffffffffffffffff1673ffffffffffffffffffffffffffffffffffffffff1673ffffffffffffffffffffffffffffffffffffffff16815260200160028201805461498b9061609e565b80601f01602080910402602001604051908101604052809291908181526020018280546149b79061609e565b8015614a045780601f106149d957610100808354040283529160200191614a04565b820191906000526020600020905b8154815290600101906020018083116149e757829003601f168201915b50505050508152602001600382018054614a1d9061609e565b80601f0160208091040260200160405190810160405280929190818152602001828054614a499061609e565b8015614a965780601f10614a6b57610100808354040283529160200191614a96565b820191906000526020600020905b815481529060010190602001808311614a7957829003601f168201915b50505050508152602001600482018054614aaf9061609e565b80601f0160208091040260200160405190810160405280929190818152602001828054614adb9061609e565b8015614b285780601f10614afd57610100808354040283529160200191614b28565b820191906000526020600020905b815481529060010190602001808311614b0b57829003601f168201915b50505050508152602001600582018054614b419061609e565b80601f0160208091040260200160405190810160405280929190818152602001828054614b6d9061609e565b8015614bba5780601f10614b8f57610100808354040283529160200191614bba565b820191906000526020600020905b815481529060010190602001808311614b9d57829003601f168201915b50505050508152602001600682018054614bd39061609e565b80601f0160208091040260200160405190810160405280929190818152602001828054614bff9061609e565b8015614c4c5780601f10614c2157610100808354040283529160200191614c4c565b820191906000526020600020905b815481529060010190602001808311614c2f57829003601f168201915b505050505081525050848381518110614c6857614c676163b5565b5b6020026020010181905250600182614c809190616381565b915050505b8080614c9090616027565b915050614834565b50809250505090565b600080600b60008573ffffffffffffffffffffffffffffffffffffffff1673ffffffffffffffffffffffffffffffffffffffff1681526020019081526020016000205490506000600c60008573ffffffffffffffffffffffffffffffffffffffff1673ffffffffffffffffffffffffffffffffffffffff16815260200190815260200160002054905060005b6011600084815260200190815260200160002080549050811015614da05781601160008581526020019081526020016000208281548110614d7157614d706163b5565b5b906000526020600020015403614d8d5760019350505050614da8565b8080614d9890616027565b915050614d2d565b506000925050505b92915050565b614e4481604051602401614dc291906152de565b6040516020818303038152906040527ff82c50f1000000000000000000000000000000000000000000000000000000007bffffffffffffffffffffffffffffffffffffffffffffffffffffffff19166020820180517bffffffffffffffffffffffffffffffffffffffffffffffffffffffff8381831617835250505050614e47565b50565b60008151905060006a636f6e736f6c652e6c6f679050602083016000808483855afa5050505050565b6040518060a0016040528060008152602001600073ffffffffffffffffffffffffffffffffffffffff1681526020016060815260200160608152602001606081525090565b6040518060e00160405280600073ffffffffffffffffffffffffffffffffffffffff168152602001600073ffffffffffffffffffffffffffffffffffffffff16815260200160608152602001606081526020016060815260200160608152602001606081525090565b6040518060a00160405280600073ffffffffffffffffffffffffffffffffffffffff168152602001606081526020016060815260200160608152602001606081525090565b6040518060800160405280600073ffffffffffffffffffffffffffffffffffffffff1681526020016060815260200160608152602001606081525090565b6040518060e00160405280600073ffffffffffffffffffffffffffffffffffffffff1681526020016060815260200160608152602001606081526020016060815260200160008152602001606081525090565b6000604051905090565b600080fd5b600080fd5b600073ffffffffffffffffffffffffffffffffffffffff82169050919050565b600061503382615008565b9050919050565b61504381615028565b811461504e57600080fd5b50565b6000813590506150608161503a565b92915050565b600080fd5b600080fd5b6000601f19601f8301169050919050565b7f4e487b7100000000000000000000000000000000000000000000000000000000600052604160045260246000fd5b6150b982615070565b810181811067ffffffffffffffff821117156150d8576150d7615081565b5b80604052505050565b60006150eb614ff4565b90506150f782826150b0565b919050565b600067ffffffffffffffff82111561511757615116615081565b5b61512082615070565b9050602081019050919050565b82818337600083830152505050565b600061514f61514a846150fc565b6150e1565b90508281526020810184848401111561516b5761516a61506b565b5b61517684828561512d565b509392505050565b600082601f83011261519357615192615066565b5b81356151a384826020860161513c565b91505092915050565b60008060008060008060c087890312156151c9576151c8614ffe565b5b60006151d789828a01615051565b965050602087013567ffffffffffffffff8111156151f8576151f7615003565b5b61520489828a0161517e565b955050604087013567ffffffffffffffff81111561522557615224615003565b5b61523189828a0161517e565b945050606087013567ffffffffffffffff81111561525257615251615003565b5b61525e89828a0161517e565b935050608087013567ffffffffffffffff81111561527f5761527e615003565b5b61528b89828a0161517e565b92505060a087013567ffffffffffffffff8111156152ac576152ab615003565b5b6152b889828a0161517e565b9150509295509295509295565b6000819050919050565b6152d8816152c5565b82525050565b60006020820190506152f360008301846152cf565b92915050565b615302816152c5565b811461530d57600080fd5b50565b60008135905061531f816152f9565b92915050565b60008060008060008060c0878903121561534257615341614ffe565b5b600087013567ffffffffffffffff8111156153605761535f615003565b5b61536c89828a0161517e565b965050602087013567ffffffffffffffff81111561538d5761538c615003565b5b61539989828a0161517e565b955050604087013567ffffffffffffffff8111156153ba576153b9615003565b5b6153c689828a0161517e565b945050606087013567ffffffffffffffff8111156153e7576153e6615003565b5b6153f389828a0161517e565b935050608061540489828a01615310565b92505060a087013567ffffffffffffffff81111561542557615424615003565b5b61543189828a0161517e565b9150509295509295509295565b600081519050919050565b600082825260208201905092915050565b6000819050602082019050919050565b615473816152c5565b82525050565b61548281615028565b82525050565b600081519050919050565b600082825260208201905092915050565b60005b838110156154c25780820151818401526020810190506154a7565b60008484015250505050565b60006154d982615488565b6154e38185615493565b93506154f38185602086016154a4565b6154fc81615070565b840191505092915050565b600060a08301600083015161551f600086018261546a565b5060208301516155326020860182615479565b506040830151848203604086015261554a82826154ce565b9150506060830151848203606086015261556482826154ce565b9150506080830151848203608086015261557e82826154ce565b9150508091505092915050565b60006155978383615507565b905092915050565b6000602082019050919050565b60006155b78261543e565b6155c18185615449565b9350836020820285016155d38561545a565b8060005b8581101561560f57848403895281516155f0858261558b565b94506155fb8361559f565b925060208a019950506001810190506155d7565b50829750879550505050505092915050565b6000602082019050818103600083015261563b81846155ac565b905092915050565b60008060006060848603121561565c5761565b614ffe565b5b600084013567ffffffffffffffff81111561567a57615679615003565b5b6156868682870161517e565b935050602084013567ffffffffffffffff8111156156a7576156a6615003565b5b6156b38682870161517e565b925050604084013567ffffffffffffffff8111156156d4576156d3615003565b5b6156e08682870161517e565b9150509250925092565b600081519050919050565b600082825260208201905092915050565b6000819050602082019050919050565b600060e08301600083015161572e6000860182615479565b5060208301516157416020860182615479565b506040830151848203604086015261575982826154ce565b9150506060830151848203606086015261577382826154ce565b9150506080830151848203608086015261578d82826154ce565b91505060a083015184820360a08601526157a782826154ce565b91505060c083015184820360c08601526157c182826154ce565b9150508091505092915050565b60006157da8383615716565b905092915050565b6000602082019050919050565b60006157fa826156ea565b61580481856156f5565b93508360208202850161581685615706565b8060005b85811015615852578484038952815161583385826157ce565b945061583e836157e2565b925060208a0199505060018101905061581a565b50829750879550505050505092915050565b6000602082019050818103600083015261587e81846157ef565b905092915050565b60006020828403121561589c5761589b614ffe565b5b60006158aa84828501615310565b91505092915050565b600060a0830160008301516158cb600086018261546a565b5060208301516158de6020860182615479565b50604083015184820360408601526158f682826154ce565b9150506060830151848203606086015261591082826154ce565b9150506080830151848203608086015261592a82826154ce565b9150508091505092915050565b6000602082019050818103600083015261595181846158b3565b905092915050565b60006020828403121561596f5761596e614ffe565b5b600061597d84828501615051565b91505092915050565b600080600080608085870312156159a05761599f614ffe565b5b600085013567ffffffffffffffff8111156159be576159bd615003565b5b6159ca8782880161517e565b945050602085013567ffffffffffffffff8111156159eb576159ea615003565b5b6159f78782880161517e565b935050604085013567ffffffffffffffff811115615a1857615a17615003565b5b615a248782880161517e565b925050606085013567ffffffffffffffff811115615a4557615a44615003565b5b615a518782880161517e565b91505092959194509250565b600081519050919050565b600082825260208201905092915050565b6000819050602082019050919050565b600060a083016000830151615aa16000860182615479565b5060208301518482036020860152615ab982826154ce565b91505060408301518482036040860152615ad382826154ce565b91505060608301518482036060860152615aed82826154ce565b91505060808301518482036080860152615b0782826154ce565b9150508091505092915050565b6000615b208383615a89565b905092915050565b6000602082019050919050565b6000615b4082615a5d565b615b4a8185615a68565b935083602082028501615b5c85615a79565b8060005b85811015615b985784840389528151615b798582615b14565b9450615b8483615b28565b925060208a01995050600181019050615b60565b50829750879550505050505092915050565b60006020820190508181036000830152615bc48184615b35565b905092915050565b60008060408385031215615be357615be2614ffe565b5b6000615bf185828601615051565b9250506020615c0285828601615310565b9150509250929050565b60008115159050919050565b615c2181615c0c565b82525050565b6000602082019050615c3c6000830184615c18565b92915050565b6000608083016000830151615c5a6000860182615479565b5060208301518482036020860152615c7282826154ce565b91505060408301518482036040860152615c8c82826154ce565b91505060608301518482036060860152615ca682826154ce565b9150508091505092915050565b60006020820190508181036000830152615ccd8184615c42565b905092915050565b600060e083016000830151615ced6000860182615479565b5060208301518482036020860152615d0582826154ce565b91505060408301518482036040860152615d1f82826154ce565b91505060608301518482036060860152615d3982826154ce565b91505060808301518482036080860152615d5382826154ce565b91505060a0830151615d6860a086018261546a565b5060c083015184820360c0860152615d8082826154ce565b9150508091505092915050565b60006020820190508181036000830152615da78184615cd5565b905092915050565b600060a083016000830151615dc76000860182615479565b5060208301518482036020860152615ddf82826154ce565b91505060408301518482036040860152615df982826154ce565b91505060608301518482036060860152615e1382826154ce565b91505060808301518482036080860152615e2d82826154ce565b9150508091505092915050565b60006020820190508181036000830152615e548184615daf565b905092915050565b600081519050919050565b600082825260208201905092915050565b6000819050602082019050919050565b600060e083016000830151615ea06000860182615479565b5060208301518482036020860152615eb882826154ce565b91505060408301518482036040860152615ed282826154ce565b91505060608301518482036060860152615eec82826154ce565b91505060808301518482036080860152615f0682826154ce565b91505060a0830151615f1b60a086018261546a565b5060c083015184820360c0860152615f3382826154ce565b9150508091505092915050565b6000615f4c8383615e88565b905092915050565b6000602082019050919050565b6000615f6c82615e5c565b615f768185615e67565b935083602082028501615f8885615e78565b8060005b85811015615fc45784840389528151615fa58582615f40565b9450615fb083615f54565b925060208a01995050600181019050615f8c565b50829750879550505050505092915050565b60006020820190508181036000830152615ff08184615f61565b905092915050565b7f4e487b7100000000000000000000000000000000000000000000000000000000600052601160045260246000fd5b6000616032826152c5565b91507fffffffffffffffffffffffffffffffffffffffffffffffffffffffffffffffff820361606457616063615ff8565b5b600182019050919050565b7f4e487b7100000000000000000000000000000000000000000000000000000000600052602260045260246000fd5b600060028204905060018216806160b657607f821691505b6020821081036160c9576160c861606f565b5b50919050565b60008190508160005260206000209050919050565b60006020601f8301049050919050565b600082821b905092915050565b6000600883026161317fffffffffffffffffffffffffffffffffffffffffffffffffffffffffffffffff826160f4565b61613b86836160f4565b95508019841693508086168417925050509392505050565b6000819050919050565b600061617861617361616e846152c5565b616153565b6152c5565b9050919050565b6000819050919050565b6161928361615d565b6161a661619e8261617f565b848454616101565b825550505050565b600090565b6161bb6161ae565b6161c6818484616189565b505050565b5b818110156161ea576161df6000826161b3565b6001810190506161cc565b5050565b601f82111561622f57616200816160cf565b616209846160e4565b81016020851015616218578190505b61622c616224856160e4565b8301826161cb565b50505b505050565b600082821c905092915050565b600061625260001984600802616234565b1980831691505092915050565b600061626b8383616241565b9150826002028217905092915050565b61628482615488565b67ffffffffffffffff81111561629d5761629c615081565b5b6162a7825461609e565b6162b28282856161ee565b600060209050601f8311600181146162e557600084156162d3578287015190505b6162dd858261625f565b865550616345565b601f1984166162f3866160cf565b60005b8281101561631b578489015182556001820191506020850194506020810190506162f6565b868310156163385784890151616334601f891682616241565b8355505b6001600288020188555050505b505050505050565b6000616358826152c5565b9150616363836152c5565b925082820390508181111561637b5761637a615ff8565b5b92915050565b600061638c826152c5565b9150616397836152c5565b92508282019050808211156163af576163ae615ff8565b5b92915050565b7f4e487b7100000000000000000000000000000000000000000000000000000000600052603260045260246000fd5b7f4e487b7100000000000000000000000000000000000000000000000000000000600052603160045260246000fd5b600082825260208201905092915050565b7f446f6573206e6f7420686173207468652061636365737320746f20666574636860008201527f2074686520646f63756d656e7473000000000000000000000000000000000000602082015250565b6000616480602e83616413565b915061648b82616424565b604082019050919050565b600060208201905081810360008301526164af81616473565b905091905056fea2646970667358221220a824eab504b51b85c78f868c018d3147a4a3fe6d731fb7f48593c5ab97c57d6064736f6c63430008110033",
  "linkReferences": {},
  "deployedLinkReferences": {}
}