{
	"_format": "hh-sol-artifact-1",
	"contractName": "EHR",
	"sourceName": "contracts/EHR.sol",
	"abi": [
		{
			"inputs": [],
			"stateMutability": "nonpayable",
			"type": "constructor"
		},
		{
			"inputs": [
				{
					"internalType": "address",
					"name": "userAdd",
					"type": "address"
				},
				{
					"internalType": "string",
					"name": "docName",
					"type": "string"
				},
				{
					"internalType": "string",
					"name": "recordHash",
					"type": "string"
				},
				{
					"internalType": "string",
					"name": "recordName",
					"type": "string"
				},
				{
					"internalType": "string",
					"name": "issueDate",
					"type": "string"
				},
				{
					"internalType": "string",
					"name": "testSuggested",
					"type": "string"
				}
			],
			"name": "createNewRecord",
			"outputs": [],
			"stateMutability": "nonpayable",
			"type": "function"
		},
		{
			"inputs": [
				{
					"internalType": "string",
					"name": "name",
					"type": "string"
				},
				{
					"internalType": "string",
					"name": "description",
					"type": "string"
				},
				{
					"internalType": "string",
					"name": "cid",
					"type": "string"
				}
			],
			"name": "createNewResearch",
			"outputs": [],
			"stateMutability": "nonpayable",
			"type": "function"
		},
		{
			"inputs": [],
			"name": "fetchAllHospitals",
			"outputs": [
				{
					"components": [
						{
							"internalType": "address",
							"name": "hosAdd",
							"type": "address"
						},
						{
							"internalType": "string",
							"name": "name",
							"type": "string"
						},
						{
							"internalType": "string",
							"name": "personalAdd",
							"type": "string"
						},
						{
							"internalType": "string",
							"name": "emailId",
							"type": "string"
						},
						{
							"internalType": "string",
							"name": "contactNo",
							"type": "string"
						}
					],
					"internalType": "struct EHR.Hospital[]",
					"name": "",
					"type": "tuple[]"
				}
			],
			"stateMutability": "view",
			"type": "function"
		},
		{
			"inputs": [],
			"name": "fetchAllResearchs",
			"outputs": [
				{
					"components": [
						{
							"internalType": "uint256",
							"name": "id",
							"type": "uint256"
						},
						{
							"internalType": "address",
							"name": "orgAdd",
							"type": "address"
						},
						{
							"internalType": "string",
							"name": "name",
							"type": "string"
						},
						{
							"internalType": "string",
							"name": "description",
							"type": "string"
						},
						{
							"internalType": "string",
							"name": "cid",
							"type": "string"
						}
					],
					"internalType": "struct EHR.Research[]",
					"name": "",
					"type": "tuple[]"
				}
			],
			"stateMutability": "view",
			"type": "function"
		},
		{
			"inputs": [
				{
					"internalType": "uint256",
					"name": "researchId",
					"type": "uint256"
				}
			],
			"name": "fetchAllUsersForResearch",
			"outputs": [
				{
					"components": [
						{
							"internalType": "address",
							"name": "userAdd",
							"type": "address"
						},
						{
							"internalType": "string",
							"name": "name",
							"type": "string"
						},
						{
							"internalType": "string",
							"name": "personalAdd",
							"type": "string"
						},
						{
							"internalType": "string",
							"name": "emailId",
							"type": "string"
						},
						{
							"internalType": "string",
							"name": "mobileNo",
							"type": "string"
						},
						{
							"internalType": "uint256",
							"name": "gender",
							"type": "uint256"
						},
						{
							"internalType": "string",
							"name": "dob",
							"type": "string"
						}
					],
					"internalType": "struct EHR.User[]",
					"name": "",
					"type": "tuple[]"
				}
			],
			"stateMutability": "view",
			"type": "function"
		},
		{
			"inputs": [
				{
					"internalType": "address",
					"name": "hospitalAddress",
					"type": "address"
				}
			],
			"name": "fetchHospitalByAddress",
			"outputs": [
				{
					"components": [
						{
							"internalType": "address",
							"name": "hosAdd",
							"type": "address"
						},
						{
							"internalType": "string",
							"name": "name",
							"type": "string"
						},
						{
							"internalType": "string",
							"name": "personalAdd",
							"type": "string"
						},
						{
							"internalType": "string",
							"name": "emailId",
							"type": "string"
						},
						{
							"internalType": "string",
							"name": "contactNo",
							"type": "string"
						}
					],
					"internalType": "struct EHR.Hospital",
					"name": "",
					"type": "tuple"
				}
			],
			"stateMutability": "view",
			"type": "function"
		},
		{
			"inputs": [],
			"name": "fetchMyDocuments",
			"outputs": [
				{
					"components": [
						{
							"internalType": "address",
							"name": "userAdd",
							"type": "address"
						},
						{
							"internalType": "address",
							"name": "hosAdd",
							"type": "address"
						},
						{
							"internalType": "string",
							"name": "docName",
							"type": "string"
						},
						{
							"internalType": "string",
							"name": "recordHash",
							"type": "string"
						},
						{
							"internalType": "string",
							"name": "recordName",
							"type": "string"
						},
						{
							"internalType": "string",
							"name": "issueDate",
							"type": "string"
						},
						{
							"internalType": "string",
							"name": "testSuggested",
							"type": "string"
						}
					],
					"internalType": "struct EHR.Record[]",
					"name": "",
					"type": "tuple[]"
				}
			],
			"stateMutability": "view",
			"type": "function"
		},
		{
			"inputs": [],
			"name": "fetchMyHospitalAccessList",
			"outputs": [
				{
					"components": [
						{
							"internalType": "address",
							"name": "hosAdd",
							"type": "address"
						},
						{
							"internalType": "string",
							"name": "name",
							"type": "string"
						},
						{
							"internalType": "string",
							"name": "personalAdd",
							"type": "string"
						},
						{
							"internalType": "string",
							"name": "emailId",
							"type": "string"
						},
						{
							"internalType": "string",
							"name": "contactNo",
							"type": "string"
						}
					],
					"internalType": "struct EHR.Hospital[]",
					"name": "",
					"type": "tuple[]"
				}
			],
			"stateMutability": "view",
			"type": "function"
		},
		{
			"inputs": [],
			"name": "fetchMyResearchAccessList",
			"outputs": [
				{
					"components": [
						{
							"internalType": "uint256",
							"name": "id",
							"type": "uint256"
						},
						{
							"internalType": "address",
							"name": "orgAdd",
							"type": "address"
						},
						{
							"internalType": "string",
							"name": "name",
							"type": "string"
						},
						{
							"internalType": "string",
							"name": "description",
							"type": "string"
						},
						{
							"internalType": "string",
							"name": "cid",
							"type": "string"
						}
					],
					"internalType": "struct EHR.Research[]",
					"name": "",
					"type": "tuple[]"
				}
			],
			"stateMutability": "view",
			"type": "function"
		},
		{
			"inputs": [],
			"name": "fetchMyResearchs",
			"outputs": [
				{
					"components": [
						{
							"internalType": "uint256",
							"name": "id",
							"type": "uint256"
						},
						{
							"internalType": "address",
							"name": "orgAdd",
							"type": "address"
						},
						{
							"internalType": "string",
							"name": "name",
							"type": "string"
						},
						{
							"internalType": "string",
							"name": "description",
							"type": "string"
						},
						{
							"internalType": "string",
							"name": "cid",
							"type": "string"
						}
					],
					"internalType": "struct EHR.Research[]",
					"name": "",
					"type": "tuple[]"
				}
			],
			"stateMutability": "view",
			"type": "function"
		},
		{
			"inputs": [
				{
					"internalType": "address",
					"name": "orgAddress",
					"type": "address"
				}
			],
			"name": "fetchOrganizationByAddress",
			"outputs": [
				{
					"components": [
						{
							"internalType": "address",
							"name": "orgAdd",
							"type": "address"
						},
						{
							"internalType": "string",
							"name": "name",
							"type": "string"
						},
						{
							"internalType": "string",
							"name": "emailId",
							"type": "string"
						},
						{
							"internalType": "string",
							"name": "contactNo",
							"type": "string"
						}
					],
					"internalType": "struct EHR.ResearchOrg",
					"name": "",
					"type": "tuple"
				}
			],
			"stateMutability": "view",
			"type": "function"
		},
		{
			"inputs": [
				{
					"internalType": "uint256",
					"name": "id",
					"type": "uint256"
				}
			],
			"name": "fetchResearchById",
			"outputs": [
				{
					"components": [
						{
							"internalType": "uint256",
							"name": "id",
							"type": "uint256"
						},
						{
							"internalType": "address",
							"name": "orgAdd",
							"type": "address"
						},
						{
							"internalType": "string",
							"name": "name",
							"type": "string"
						},
						{
							"internalType": "string",
							"name": "description",
							"type": "string"
						},
						{
							"internalType": "string",
							"name": "cid",
							"type": "string"
						}
					],
					"internalType": "struct EHR.Research",
					"name": "",
					"type": "tuple"
				}
			],
			"stateMutability": "view",
			"type": "function"
		},
		{
			"inputs": [
				{
					"internalType": "address",
					"name": "userAddress",
					"type": "address"
				}
			],
			"name": "fetchUserByAddress",
			"outputs": [
				{
					"components": [
						{
							"internalType": "address",
							"name": "userAdd",
							"type": "address"
						},
						{
							"internalType": "string",
							"name": "name",
							"type": "string"
						},
						{
							"internalType": "string",
							"name": "personalAdd",
							"type": "string"
						},
						{
							"internalType": "string",
							"name": "emailId",
							"type": "string"
						},
						{
							"internalType": "string",
							"name": "mobileNo",
							"type": "string"
						},
						{
							"internalType": "uint256",
							"name": "gender",
							"type": "uint256"
						},
						{
							"internalType": "string",
							"name": "dob",
							"type": "string"
						}
					],
					"internalType": "struct EHR.User",
					"name": "",
					"type": "tuple"
				}
			],
			"stateMutability": "view",
			"type": "function"
		},
		{
			"inputs": [
				{
					"internalType": "address",
					"name": "userAddress",
					"type": "address"
				}
			],
			"name": "fetchUserDocumentsForHospital",
			"outputs": [
				{
					"components": [
						{
							"internalType": "address",
							"name": "userAdd",
							"type": "address"
						},
						{
							"internalType": "address",
							"name": "hosAdd",
							"type": "address"
						},
						{
							"internalType": "string",
							"name": "docName",
							"type": "string"
						},
						{
							"internalType": "string",
							"name": "recordHash",
							"type": "string"
						},
						{
							"internalType": "string",
							"name": "recordName",
							"type": "string"
						},
						{
							"internalType": "string",
							"name": "issueDate",
							"type": "string"
						},
						{
							"internalType": "string",
							"name": "testSuggested",
							"type": "string"
						}
					],
					"internalType": "struct EHR.Record[]",
					"name": "",
					"type": "tuple[]"
				}
			],
			"stateMutability": "view",
			"type": "function"
		},
		{
			"inputs": [
				{
					"internalType": "address",
					"name": "userAddress",
					"type": "address"
				},
				{
					"internalType": "uint256",
					"name": "researchId",
					"type": "uint256"
				}
			],
			"name": "fetchUserDocumentsForResearch",
			"outputs": [
				{
					"components": [
						{
							"internalType": "address",
							"name": "userAdd",
							"type": "address"
						},
						{
							"internalType": "address",
							"name": "hosAdd",
							"type": "address"
						},
						{
							"internalType": "string",
							"name": "docName",
							"type": "string"
						},
						{
							"internalType": "string",
							"name": "recordHash",
							"type": "string"
						},
						{
							"internalType": "string",
							"name": "recordName",
							"type": "string"
						},
						{
							"internalType": "string",
							"name": "issueDate",
							"type": "string"
						},
						{
							"internalType": "string",
							"name": "testSuggested",
							"type": "string"
						}
					],
					"internalType": "struct EHR.Record[]",
					"name": "",
					"type": "tuple[]"
				}
			],
			"stateMutability": "view",
			"type": "function"
		},
		{
			"inputs": [],
			"name": "getAllHospitalRecords",
			"outputs": [
				{
					"components": [
						{
							"internalType": "address",
							"name": "userAdd",
							"type": "address"
						},
						{
							"internalType": "address",
							"name": "hosAdd",
							"type": "address"
						},
						{
							"internalType": "string",
							"name": "docName",
							"type": "string"
						},
						{
							"internalType": "string",
							"name": "recordHash",
							"type": "string"
						},
						{
							"internalType": "string",
							"name": "recordName",
							"type": "string"
						},
						{
							"internalType": "string",
							"name": "issueDate",
							"type": "string"
						},
						{
							"internalType": "string",
							"name": "testSuggested",
							"type": "string"
						}
					],
					"internalType": "struct EHR.Record[]",
					"name": "",
					"type": "tuple[]"
				}
			],
			"stateMutability": "view",
			"type": "function"
		},
		{
			"inputs": [
				{
					"internalType": "address",
					"name": "hospitalAddress",
					"type": "address"
				}
			],
			"name": "grantAccessToHospital",
			"outputs": [],
			"stateMutability": "nonpayable",
			"type": "function"
		},
		{
			"inputs": [
				{
					"internalType": "uint256",
					"name": "researchId",
					"type": "uint256"
				}
			],
			"name": "grantAccessToResearch",
			"outputs": [],
			"stateMutability": "nonpayable",
			"type": "function"
		},
		{
			"inputs": [
				{
					"internalType": "address",
					"name": "userAddress",
					"type": "address"
				},
				{
					"internalType": "uint256",
					"name": "researchId",
					"type": "uint256"
				}
			],
			"name": "hasUserRecordAccessForResearch",
			"outputs": [
				{
					"internalType": "bool",
					"name": "",
					"type": "bool"
				}
			],
			"stateMutability": "view",
			"type": "function"
		},
		{
			"inputs": [
				{
					"internalType": "string",
					"name": "name",
					"type": "string"
				},
				{
					"internalType": "string",
					"name": "personalAdd",
					"type": "string"
				},
				{
					"internalType": "string",
					"name": "emailId",
					"type": "string"
				},
				{
					"internalType": "string",
					"name": "mobileNo",
					"type": "string"
				}
			],
			"name": "registerHospital",
			"outputs": [],
			"stateMutability": "nonpayable",
			"type": "function"
		},
		{
			"inputs": [
				{
					"internalType": "string",
					"name": "name",
					"type": "string"
				},
				{
					"internalType": "string",
					"name": "emailId",
					"type": "string"
				},
				{
					"internalType": "string",
					"name": "mobileNo",
					"type": "string"
				}
			],
			"name": "registerResearchOrg",
			"outputs": [],
			"stateMutability": "nonpayable",
			"type": "function"
		},
		{
			"inputs": [
				{
					"internalType": "string",
					"name": "name",
					"type": "string"
				},
				{
					"internalType": "string",
					"name": "personalAdd",
					"type": "string"
				},
				{
					"internalType": "string",
					"name": "emailId",
					"type": "string"
				},
				{
					"internalType": "string",
					"name": "mobileNo",
					"type": "string"
				},
				{
					"internalType": "uint256",
					"name": "gender",
					"type": "uint256"
				},
				{
					"internalType": "string",
					"name": "dob",
					"type": "string"
				}
			],
			"name": "registerUser",
			"outputs": [],
			"stateMutability": "nonpayable",
			"type": "function"
		},
		{
			"inputs": [
				{
					"internalType": "address",
					"name": "hospitalAddress",
					"type": "address"
				}
			],
			"name": "removeAccessFromHospital",
			"outputs": [],
			"stateMutability": "nonpayable",
			"type": "function"
		},
		{
			"inputs": [
				{
					"internalType": "uint256",
					"name": "researchId",
					"type": "uint256"
				}
			],
			"name": "removeAccessFromResearch",
			"outputs": [],
			"stateMutability": "nonpayable",
			"type": "function"
		}
	],
	"bytecode": "0x608060405234801561001057600080fd5b50336000806101000a81548173ffffffffffffffffffffffffffffffffffffffff021916908373ffffffffffffffffffffffffffffffffffffffff16021790555061617e80620000616000396000f3fe608060405234801561001057600080fd5b50600436106101585760003560e01c80638280c16c116100c3578063b41531761161007c578063b4153176146103c3578063baa719dc146103f3578063c444411d14610411578063da8da73114610441578063edf9e00a14610471578063f95ad8fd1461048d57610158565b80638280c16c146102c9578063849326f2146102e55780638aeab380146103155780639d27643b146103335780639ea271d5146103635780639f900a181461039357610158565b80633c51fad5116101155780633c51fad51461021d57806341bd117c1461023b5780634630d73b146102575780634df6f28d1461027357806354053ea81461028f578063684217a6146102ad57610158565b806302539bd81461015d578063166fb618146101795780631be8530e14610195578063223a6d34146101b3578063245e7f95146101cf578063272620b9146101ed575b600080fd5b61017760048036038101906101729190614e68565b6104ab565b005b610193600480360381019061018e9190614fb7565b61063a565b005b61019d6107c7565b6040516101aa91906152b3565b60405180910390f35b6101cd60048036038101906101c891906152d5565b610bbe565b005b6101d7610d01565b6040516101e491906154f6565b60405180910390f35b61020760048036038101906102029190615518565b61126a565b60405161021491906155c9565b60405180910390f35b6102256114ad565b60405161023291906152b3565b60405180910390f35b61025560048036038101906102509190615518565b611789565b005b610271600480360381019061026c91906155eb565b61187e565b005b61028d60048036038101906102889190615618565b6119b9565b005b610297611b19565b6040516102a491906152b3565b60405180910390f35b6102c760048036038101906102c29190615518565b611e91565b005b6102e360048036038101906102de91906152d5565b612003565b005b6102ff60048036038101906102fa91906155eb565b61210c565b60405161030c91906154f6565b60405180910390f35b61031d6126c7565b60405161032a919061583c565b60405180910390f35b61034d6004803603810190610348919061585e565b612ac7565b60405161035a91906158b9565b60405180910390f35b61037d600480360381019061037891906155eb565b612b8e565b60405161038a9190615945565b60405180910390f35b6103ad60048036038101906103a891906155eb565b612e06565b6040516103ba9190615a1f565b60405180910390f35b6103dd60048036038101906103d891906155eb565b6131ac565b6040516103ea9190615acc565b60405180910390f35b6103fb6134b6565b604051610408919061583c565b60405180910390f35b61042b6004803603810190610426919061585e565b61381a565b60405161043891906154f6565b60405180910390f35b61045b60048036038101906104569190615518565b613dd6565b6040516104689190615c68565b60405180910390f35b61048b600480360381019061048691906155eb565b6142ff565b005b6104956144b6565b6040516104a291906154f6565b60405180910390f35b6040518060e001604052808773ffffffffffffffffffffffffffffffffffffffff1681526020013373ffffffffffffffffffffffffffffffffffffffff16815260200186815260200185815260200184815260200183815260200182815250600860006003600081548092919061052190615cb9565b91905055815260200190815260200160002060008201518160000160006101000a81548173ffffffffffffffffffffffffffffffffffffffff021916908373ffffffffffffffffffffffffffffffffffffffff16021790555060208201518160010160006101000a81548173ffffffffffffffffffffffffffffffffffffffff021916908373ffffffffffffffffffffffffffffffffffffffff16021790555060408201518160020190816105d69190615f0d565b5060608201518160030190816105ec9190615f0d565b5060808201518160040190816106029190615f0d565b5060a08201518160050190816106189190615f0d565b5060c082015181600601908161062e9190615f0d565b50905050505050505050565b6040518060e001604052803373ffffffffffffffffffffffffffffffffffffffff16815260200187815260200186815260200185815260200184815260200183815260200182815250600660006001600081548092919061069a90615cb9565b91905055815260200190815260200160002060008201518160000160006101000a81548173ffffffffffffffffffffffffffffffffffffffff021916908373ffffffffffffffffffffffffffffffffffffffff16021790555060208201518160010190816107089190615f0d565b50604082015181600201908161071e9190615f0d565b5060608201518160030190816107349190615f0d565b50608082015181600401908161074a9190615f0d565b5060a0820151816005015560c082015181600601908161076a9190615f0d565b509050506001805461077c9190615fdf565b600b60003373ffffffffffffffffffffffffffffffffffffffff1673ffffffffffffffffffffffffffffffffffffffff16815260200190815260200160002081905550505050505050565b6060600080600090505b600554811015610867573373ffffffffffffffffffffffffffffffffffffffff16600a600083815260200190815260200160002060010160009054906101000a900473ffffffffffffffffffffffffffffffffffffffff1673ffffffffffffffffffffffffffffffffffffffff1603610854576001826108519190616013565b91505b808061085f90615cb9565b9150506107d1565b5060008167ffffffffffffffff81111561088457610883614d3d565b5b6040519080825280602002602001820160405280156108bd57816020015b6108aa614b2c565b8152602001906001900390816108a25790505b5090506000915060005b600554811015610bb5573373ffffffffffffffffffffffffffffffffffffffff16600a600083815260200190815260200160002060010160009054906101000a900473ffffffffffffffffffffffffffffffffffffffff1673ffffffffffffffffffffffffffffffffffffffff1603610ba2576000600a60008381526020019081526020016000209050806040518060a0016040529081600082015481526020016001820160009054906101000a900473ffffffffffffffffffffffffffffffffffffffff1673ffffffffffffffffffffffffffffffffffffffff1673ffffffffffffffffffffffffffffffffffffffff1681526020016002820180546109cd90615d30565b80601f01602080910402602001604051908101604052809291908181526020018280546109f990615d30565b8015610a465780601f10610a1b57610100808354040283529160200191610a46565b820191906000526020600020905b815481529060010190602001808311610a2957829003601f168201915b50505050508152602001600382018054610a5f90615d30565b80601f0160208091040260200160405190810160405280929190818152602001828054610a8b90615d30565b8015610ad85780601f10610aad57610100808354040283529160200191610ad8565b820191906000526020600020905b815481529060010190602001808311610abb57829003601f168201915b50505050508152602001600482018054610af190615d30565b80601f0160208091040260200160405190810160405280929190818152602001828054610b1d90615d30565b8015610b6a5780601f10610b3f57610100808354040283529160200191610b6a565b820191906000526020600020905b815481529060010190602001808311610b4d57829003601f168201915b505050505081525050838581518110610b8657610b85616047565b5b6020026020010181905250600184610b9e9190616013565b9350505b8080610bad90615cb9565b9150506108c7565b50809250505090565b60405180608001604052803373ffffffffffffffffffffffffffffffffffffffff168152602001848152602001838152602001828152506009600060046000815480929190610c0c90615cb9565b91905055815260200190815260200160002060008201518160000160006101000a81548173ffffffffffffffffffffffffffffffffffffffff021916908373ffffffffffffffffffffffffffffffffffffffff1602179055506020820151816001019081610c7a9190615f0d565b506040820151816002019081610c909190615f0d565b506060820151816003019081610ca69190615f0d565b509050506001600454610cb99190615fdf565b600d60003373ffffffffffffffffffffffffffffffffffffffff1673ffffffffffffffffffffffffffffffffffffffff16815260200190815260200160002081905550505050565b6060600080600090505b600354811015610da1573373ffffffffffffffffffffffffffffffffffffffff166008600083815260200190815260200160002060010160009054906101000a900473ffffffffffffffffffffffffffffffffffffffff1673ffffffffffffffffffffffffffffffffffffffff1603610d8e57600182610d8b9190616013565b91505b8080610d9990615cb9565b915050610d0b565b5060008167ffffffffffffffff811115610dbe57610dbd614d3d565b5b604051908082528060200260200182016040528015610df757816020015b610de4614b71565b815260200190600190039081610ddc5790505b50905060005b600354811015611261573373ffffffffffffffffffffffffffffffffffffffff166008600083815260200190815260200160002060010160009054906101000a900473ffffffffffffffffffffffffffffffffffffffff1673ffffffffffffffffffffffffffffffffffffffff160361124e5760008190506000600860008381526020019081526020016000209050806040518060e00160405290816000820160009054906101000a900473ffffffffffffffffffffffffffffffffffffffff1673ffffffffffffffffffffffffffffffffffffffff1673ffffffffffffffffffffffffffffffffffffffff1681526020016001820160009054906101000a900473ffffffffffffffffffffffffffffffffffffffff1673ffffffffffffffffffffffffffffffffffffffff1673ffffffffffffffffffffffffffffffffffffffff168152602001600282018054610f5490615d30565b80601f0160208091040260200160405190810160405280929190818152602001828054610f8090615d30565b8015610fcd5780601f10610fa257610100808354040283529160200191610fcd565b820191906000526020600020905b815481529060010190602001808311610fb057829003601f168201915b50505050508152602001600382018054610fe690615d30565b80601f016020809104026020016040519081016040528092919081815260200182805461101290615d30565b801561105f5780601f106110345761010080835404028352916020019161105f565b820191906000526020600020905b81548152906001019060200180831161104257829003601f168201915b5050505050815260200160048201805461107890615d30565b80601f01602080910402602001604051908101604052809291908181526020018280546110a490615d30565b80156110f15780601f106110c6576101008083540402835291602001916110f1565b820191906000526020600020905b8154815290600101906020018083116110d457829003601f168201915b5050505050815260200160058201805461110a90615d30565b80601f016020809104026020016040519081016040528092919081815260200182805461113690615d30565b80156111835780601f1061115857610100808354040283529160200191611183565b820191906000526020600020905b81548152906001019060200180831161116657829003601f168201915b5050505050815260200160068201805461119c90615d30565b80601f01602080910402602001604051908101604052809291908181526020018280546111c890615d30565b80156112155780601f106111ea57610100808354040283529160200191611215565b820191906000526020600020905b8154815290600101906020018083116111f857829003601f168201915b50505050508152505084838151811061123157611230616047565b5b60200260200101819052506001826112499190616013565b915050505b808061125990615cb9565b915050610dfd565b50809250505090565b611272614b2c565b600a60008381526020019081526020016000206040518060a0016040529081600082015481526020016001820160009054906101000a900473ffffffffffffffffffffffffffffffffffffffff1673ffffffffffffffffffffffffffffffffffffffff1673ffffffffffffffffffffffffffffffffffffffff16815260200160028201805461130090615d30565b80601f016020809104026020016040519081016040528092919081815260200182805461132c90615d30565b80156113795780601f1061134e57610100808354040283529160200191611379565b820191906000526020600020905b81548152906001019060200180831161135c57829003601f168201915b5050505050815260200160038201805461139290615d30565b80601f01602080910402602001604051908101604052809291908181526020018280546113be90615d30565b801561140b5780601f106113e05761010080835404028352916020019161140b565b820191906000526020600020905b8154815290600101906020018083116113ee57829003601f168201915b5050505050815260200160048201805461142490615d30565b80601f016020809104026020016040519081016040528092919081815260200182805461145090615d30565b801561149d5780601f106114725761010080835404028352916020019161149d565b820191906000526020600020905b81548152906001019060200180831161148057829003601f168201915b5050505050815250509050919050565b6060600060055467ffffffffffffffff8111156114cd576114cc614d3d565b5b60405190808252806020026020018201604052801561150657816020015b6114f3614b2c565b8152602001906001900390816114eb5790505b50905060005b600554811015611781576000600a60008381526020019081526020016000209050806040518060a0016040529081600082015481526020016001820160009054906101000a900473ffffffffffffffffffffffffffffffffffffffff1673ffffffffffffffffffffffffffffffffffffffff1673ffffffffffffffffffffffffffffffffffffffff1681526020016002820180546115a990615d30565b80601f01602080910402602001604051908101604052809291908181526020018280546115d590615d30565b80156116225780601f106115f757610100808354040283529160200191611622565b820191906000526020600020905b81548152906001019060200180831161160557829003601f168201915b5050505050815260200160038201805461163b90615d30565b80601f016020809104026020016040519081016040528092919081815260200182805461166790615d30565b80156116b45780601f10611689576101008083540402835291602001916116b4565b820191906000526020600020905b81548152906001019060200180831161169757829003601f168201915b505050505081526020016004820180546116cd90615d30565b80601f01602080910402602001604051908101604052809291908181526020018280546116f990615d30565b80156117465780601f1061171b57610100808354040283529160200191611746565b820191906000526020600020905b81548152906001019060200180831161172957829003601f168201915b50505050508152505083838151811061176257611761616047565b5b602002602001018190525050808061177990615cb9565b91505061150c565b508091505090565b6000600b60003373ffffffffffffffffffffffffffffffffffffffff1673ffffffffffffffffffffffffffffffffffffffff16815260200190815260200160002054905060005b600f60008381526020019081526020016000208054905081101561183e5782600f6000848152602001908152602001600020828154811061181457611813616047565b5b90600052602060002001540361182b57505061187b565b808061183690615cb9565b9150506117d0565b50600f6000828152602001908152602001600020829080600181540180825580915050600190039060005260206000200160009091909190915055505b50565b6000600c60008373ffffffffffffffffffffffffffffffffffffffff1673ffffffffffffffffffffffffffffffffffffffff1681526020019081526020016000205490506000600b60003373ffffffffffffffffffffffffffffffffffffffff1673ffffffffffffffffffffffffffffffffffffffff16815260200190815260200160002054905060005b600e6000838152602001908152602001600020805490508110156119785782600e6000848152602001908152602001600020828154811061194d5761194c616047565b5b906000526020600020015403611965575050506119b6565b808061197090615cb9565b915050611909565b50600e600082815260200190815260200160002082908060018154018082558091505060019003906000526020600020016000909190919091505550505b50565b6040518060a001604052803373ffffffffffffffffffffffffffffffffffffffff168152602001858152602001848152602001838152602001828152506007600060026000815480929190611a0d90615cb9565b91905055815260200190815260200160002060008201518160000160006101000a81548173ffffffffffffffffffffffffffffffffffffffff021916908373ffffffffffffffffffffffffffffffffffffffff1602179055506020820151816001019081611a7b9190615f0d565b506040820151816002019081611a919190615f0d565b506060820151816003019081611aa79190615f0d565b506080820151816004019081611abd9190615f0d565b509050506001600254611ad09190615fdf565b600c60003373ffffffffffffffffffffffffffffffffffffffff1673ffffffffffffffffffffffffffffffffffffffff1681526020019081526020016000208190555050505050565b60606000600b60003373ffffffffffffffffffffffffffffffffffffffff1673ffffffffffffffffffffffffffffffffffffffff1681526020019081526020016000205490506000600f60008381526020019081526020016000208054905067ffffffffffffffff811115611b9157611b90614d3d565b5b604051908082528060200260200182016040528015611bca57816020015b611bb7614b2c565b815260200190600190039081611baf5790505b50905060005b600f600084815260200190815260200160002080549050811015611e88576000600a6000600f60008781526020019081526020016000208481548110611c1957611c18616047565b5b906000526020600020015481526020019081526020016000209050806040518060a0016040529081600082015481526020016001820160009054906101000a900473ffffffffffffffffffffffffffffffffffffffff1673ffffffffffffffffffffffffffffffffffffffff1673ffffffffffffffffffffffffffffffffffffffff168152602001600282018054611cb090615d30565b80601f0160208091040260200160405190810160405280929190818152602001828054611cdc90615d30565b8015611d295780601f10611cfe57610100808354040283529160200191611d29565b820191906000526020600020905b815481529060010190602001808311611d0c57829003601f168201915b50505050508152602001600382018054611d4290615d30565b80601f0160208091040260200160405190810160405280929190818152602001828054611d6e90615d30565b8015611dbb5780601f10611d9057610100808354040283529160200191611dbb565b820191906000526020600020905b815481529060010190602001808311611d9e57829003601f168201915b50505050508152602001600482018054611dd490615d30565b80601f0160208091040260200160405190810160405280929190818152602001828054611e0090615d30565b8015611e4d5780601f10611e2257610100808354040283529160200191611e4d565b820191906000526020600020905b815481529060010190602001808311611e3057829003601f168201915b505050505081525050838381518110611e6957611e68616047565b5b6020026020010181905250508080611e8090615cb9565b915050611bd0565b50809250505090565b6000600b60003373ffffffffffffffffffffffffffffffffffffffff1673ffffffffffffffffffffffffffffffffffffffff16815260200190815260200160002054905060005b600f600083815260200190815260200160002080549050811015611ffe5782600f60008481526020019081526020016000208281548110611f1c57611f1b616047565b5b906000526020600020015403611feb57600f60008381526020019081526020016000206001600f600085815260200190815260200160002080549050611f629190615fdf565b81548110611f7357611f72616047565b5b9060005260206000200154600f60008481526020019081526020016000208281548110611fa357611fa2616047565b5b9060005260206000200181905550600f6000838152602001908152602001600020805480611fd457611fd3616076565b5b600190038181906000526020600020016000905590555b8080611ff690615cb9565b915050611ed8565b505050565b6040518060a0016040528060055481526020013373ffffffffffffffffffffffffffffffffffffffff16815260200184815260200183815260200182815250600a600060055481526020019081526020016000206000820151816000015560208201518160010160006101000a81548173ffffffffffffffffffffffffffffffffffffffff021916908373ffffffffffffffffffffffffffffffffffffffff16021790555060408201518160020190816120bd9190615f0d565b5060608201518160030190816120d39190615f0d565b5060808201518160040190816120e99190615f0d565b509050506001600560008282546121009190616013565b92505081905550505050565b60606001151561211c8333614a1f565b15151461215e576040517f08c379a000000000000000000000000000000000000000000000000000000000815260040161215590616128565b60405180910390fd5b600080600090505b6003548110156121fc578373ffffffffffffffffffffffffffffffffffffffff166008600083815260200190815260200160002060000160009054906101000a900473ffffffffffffffffffffffffffffffffffffffff1673ffffffffffffffffffffffffffffffffffffffff16036121e9576001826121e69190616013565b91505b80806121f490615cb9565b915050612166565b5060008167ffffffffffffffff81111561221957612218614d3d565b5b60405190808252806020026020018201604052801561225257816020015b61223f614b71565b8152602001906001900390816122375790505b50905060005b6003548110156126bc578473ffffffffffffffffffffffffffffffffffffffff166008600083815260200190815260200160002060000160009054906101000a900473ffffffffffffffffffffffffffffffffffffffff1673ffffffffffffffffffffffffffffffffffffffff16036126a95760008190506000600860008381526020019081526020016000209050806040518060e00160405290816000820160009054906101000a900473ffffffffffffffffffffffffffffffffffffffff1673ffffffffffffffffffffffffffffffffffffffff1673ffffffffffffffffffffffffffffffffffffffff1681526020016001820160009054906101000a900473ffffffffffffffffffffffffffffffffffffffff1673ffffffffffffffffffffffffffffffffffffffff1673ffffffffffffffffffffffffffffffffffffffff1681526020016002820180546123af90615d30565b80601f01602080910402602001604051908101604052809291908181526020018280546123db90615d30565b80156124285780601f106123fd57610100808354040283529160200191612428565b820191906000526020600020905b81548152906001019060200180831161240b57829003601f168201915b5050505050815260200160038201805461244190615d30565b80601f016020809104026020016040519081016040528092919081815260200182805461246d90615d30565b80156124ba5780601f1061248f576101008083540402835291602001916124ba565b820191906000526020600020905b81548152906001019060200180831161249d57829003601f168201915b505050505081526020016004820180546124d390615d30565b80601f01602080910402602001604051908101604052809291908181526020018280546124ff90615d30565b801561254c5780601f106125215761010080835404028352916020019161254c565b820191906000526020600020905b81548152906001019060200180831161252f57829003601f168201915b5050505050815260200160058201805461256590615d30565b80601f016020809104026020016040519081016040528092919081815260200182805461259190615d30565b80156125de5780601f106125b3576101008083540402835291602001916125de565b820191906000526020600020905b8154815290600101906020018083116125c157829003601f168201915b505050505081526020016006820180546125f790615d30565b80601f016020809104026020016040519081016040528092919081815260200182805461262390615d30565b80156126705780601f1061264557610100808354040283529160200191612670565b820191906000526020600020905b81548152906001019060200180831161265357829003601f168201915b50505050508152505084838151811061268c5761268b616047565b5b60200260200101819052506001826126a49190616013565b915050505b80806126b490615cb9565b915050612258565b508092505050919050565b60606000600b60003373ffffffffffffffffffffffffffffffffffffffff1673ffffffffffffffffffffffffffffffffffffffff1681526020019081526020016000205490506000600e60008381526020019081526020016000208054905067ffffffffffffffff81111561273f5761273e614d3d565b5b60405190808252806020026020018201604052801561277857816020015b612765614bda565b81526020019060019003908161275d5790505b50905060005b600e600084815260200190815260200160002080549050811015612abe57600060076000600e600087815260200190815260200160002084815481106127c7576127c6616047565b5b906000526020600020015481526020019081526020016000209050806040518060a00160405290816000820160009054906101000a900473ffffffffffffffffffffffffffffffffffffffff1673ffffffffffffffffffffffffffffffffffffffff1673ffffffffffffffffffffffffffffffffffffffff16815260200160018201805461285490615d30565b80601f016020809104026020016040519081016040528092919081815260200182805461288090615d30565b80156128cd5780601f106128a2576101008083540402835291602001916128cd565b820191906000526020600020905b8154815290600101906020018083116128b057829003601f168201915b505050505081526020016002820180546128e690615d30565b80601f016020809104026020016040519081016040528092919081815260200182805461291290615d30565b801561295f5780601f106129345761010080835404028352916020019161295f565b820191906000526020600020905b81548152906001019060200180831161294257829003601f168201915b5050505050815260200160038201805461297890615d30565b80601f01602080910402602001604051908101604052809291908181526020018280546129a490615d30565b80156129f15780601f106129c6576101008083540402835291602001916129f1565b820191906000526020600020905b8154815290600101906020018083116129d457829003601f168201915b50505050508152602001600482018054612a0a90615d30565b80601f0160208091040260200160405190810160405280929190818152602001828054612a3690615d30565b8015612a835780601f10612a5857610100808354040283529160200191612a83565b820191906000526020600020905b815481529060010190602001808311612a6657829003601f168201915b505050505081525050838381518110612a9f57612a9e616047565b5b6020026020010181905250508080612ab690615cb9565b91505061277e565b50809250505090565b600080600b60008573ffffffffffffffffffffffffffffffffffffffff1673ffffffffffffffffffffffffffffffffffffffff16815260200190815260200160002054905060005b600f600083815260200190815260200160002080549050811015612b815783600f60008481526020019081526020016000208281548110612b5357612b52616047565b5b906000526020600020015403612b6e57600192505050612b88565b8080612b7990615cb9565b915050612b0f565b5060009150505b92915050565b612b96614c1f565b60096000600d60008573ffffffffffffffffffffffffffffffffffffffff1673ffffffffffffffffffffffffffffffffffffffff1681526020019081526020016000205481526020019081526020016000206040518060800160405290816000820160009054906101000a900473ffffffffffffffffffffffffffffffffffffffff1673ffffffffffffffffffffffffffffffffffffffff1673ffffffffffffffffffffffffffffffffffffffff168152602001600182018054612c5990615d30565b80601f0160208091040260200160405190810160405280929190818152602001828054612c8590615d30565b8015612cd25780601f10612ca757610100808354040283529160200191612cd2565b820191906000526020600020905b815481529060010190602001808311612cb557829003601f168201915b50505050508152602001600282018054612ceb90615d30565b80601f0160208091040260200160405190810160405280929190818152602001828054612d1790615d30565b8015612d645780601f10612d3957610100808354040283529160200191612d64565b820191906000526020600020905b815481529060010190602001808311612d4757829003601f168201915b50505050508152602001600382018054612d7d90615d30565b80601f0160208091040260200160405190810160405280929190818152602001828054612da990615d30565b8015612df65780601f10612dcb57610100808354040283529160200191612df6565b820191906000526020600020905b815481529060010190602001808311612dd957829003601f168201915b5050505050815250509050919050565b612e0e614c5d565b60066000600b60008573ffffffffffffffffffffffffffffffffffffffff1673ffffffffffffffffffffffffffffffffffffffff1681526020019081526020016000205481526020019081526020016000206040518060e00160405290816000820160009054906101000a900473ffffffffffffffffffffffffffffffffffffffff1673ffffffffffffffffffffffffffffffffffffffff1673ffffffffffffffffffffffffffffffffffffffff168152602001600182018054612ed190615d30565b80601f0160208091040260200160405190810160405280929190818152602001828054612efd90615d30565b8015612f4a5780601f10612f1f57610100808354040283529160200191612f4a565b820191906000526020600020905b815481529060010190602001808311612f2d57829003601f168201915b50505050508152602001600282018054612f6390615d30565b80601f0160208091040260200160405190810160405280929190818152602001828054612f8f90615d30565b8015612fdc5780601f10612fb157610100808354040283529160200191612fdc565b820191906000526020600020905b815481529060010190602001808311612fbf57829003601f168201915b50505050508152602001600382018054612ff590615d30565b80601f016020809104026020016040519081016040528092919081815260200182805461302190615d30565b801561306e5780601f106130435761010080835404028352916020019161306e565b820191906000526020600020905b81548152906001019060200180831161305157829003601f168201915b5050505050815260200160048201805461308790615d30565b80601f01602080910402602001604051908101604052809291908181526020018280546130b390615d30565b80156131005780601f106130d557610100808354040283529160200191613100565b820191906000526020600020905b8154815290600101906020018083116130e357829003601f168201915b505050505081526020016005820154815260200160068201805461312390615d30565b80601f016020809104026020016040519081016040528092919081815260200182805461314f90615d30565b801561319c5780601f106131715761010080835404028352916020019161319c565b820191906000526020600020905b81548152906001019060200180831161317f57829003601f168201915b5050505050815250509050919050565b6131b4614bda565b60076000600c60008573ffffffffffffffffffffffffffffffffffffffff1673ffffffffffffffffffffffffffffffffffffffff1681526020019081526020016000205481526020019081526020016000206040518060a00160405290816000820160009054906101000a900473ffffffffffffffffffffffffffffffffffffffff1673ffffffffffffffffffffffffffffffffffffffff1673ffffffffffffffffffffffffffffffffffffffff16815260200160018201805461327790615d30565b80601f01602080910402602001604051908101604052809291908181526020018280546132a390615d30565b80156132f05780601f106132c5576101008083540402835291602001916132f0565b820191906000526020600020905b8154815290600101906020018083116132d357829003601f168201915b5050505050815260200160028201805461330990615d30565b80601f016020809104026020016040519081016040528092919081815260200182805461333590615d30565b80156133825780601f1061335757610100808354040283529160200191613382565b820191906000526020600020905b81548152906001019060200180831161336557829003601f168201915b5050505050815260200160038201805461339b90615d30565b80601f01602080910402602001604051908101604052809291908181526020018280546133c790615d30565b80156134145780601f106133e957610100808354040283529160200191613414565b820191906000526020600020905b8154815290600101906020018083116133f757829003601f168201915b5050505050815260200160048201805461342d90615d30565b80601f016020809104026020016040519081016040528092919081815260200182805461345990615d30565b80156134a65780601f1061347b576101008083540402835291602001916134a6565b820191906000526020600020905b81548152906001019060200180831161348957829003601f168201915b5050505050815250509050919050565b6060600060025467ffffffffffffffff8111156134d6576134d5614d3d565b5b60405190808252806020026020018201604052801561350f57816020015b6134fc614bda565b8152602001906001900390816134f45790505b50905060005b600254811015613812576000600760008381526020019081526020016000209050806040518060a00160405290816000820160009054906101000a900473ffffffffffffffffffffffffffffffffffffffff1673ffffffffffffffffffffffffffffffffffffffff1673ffffffffffffffffffffffffffffffffffffffff1681526020016001820180546135a890615d30565b80601f01602080910402602001604051908101604052809291908181526020018280546135d490615d30565b80156136215780601f106135f657610100808354040283529160200191613621565b820191906000526020600020905b81548152906001019060200180831161360457829003601f168201915b5050505050815260200160028201805461363a90615d30565b80601f016020809104026020016040519081016040528092919081815260200182805461366690615d30565b80156136b35780601f10613688576101008083540402835291602001916136b3565b820191906000526020600020905b81548152906001019060200180831161369657829003601f168201915b505050505081526020016003820180546136cc90615d30565b80601f01602080910402602001604051908101604052809291908181526020018280546136f890615d30565b80156137455780601f1061371a57610100808354040283529160200191613745565b820191906000526020600020905b81548152906001019060200180831161372857829003601f168201915b5050505050815260200160048201805461375e90615d30565b80601f016020809104026020016040519081016040528092919081815260200182805461378a90615d30565b80156137d75780601f106137ac576101008083540402835291602001916137d7565b820191906000526020600020905b8154815290600101906020018083116137ba57829003601f168201915b5050505050815250508383815181106137f3576137f2616047565b5b602002602001018190525050808061380a90615cb9565b915050613515565b508091505090565b60606001151561382a8484612ac7565b15151461386c576040517f08c379a000000000000000000000000000000000000000000000000000000000815260040161386390616128565b60405180910390fd5b600080600090505b60035481101561390a578473ffffffffffffffffffffffffffffffffffffffff166008600083815260200190815260200160002060000160009054906101000a900473ffffffffffffffffffffffffffffffffffffffff1673ffffffffffffffffffffffffffffffffffffffff16036138f7576001826138f49190616013565b91505b808061390290615cb9565b915050613874565b5060008167ffffffffffffffff81111561392757613926614d3d565b5b60405190808252806020026020018201604052801561396057816020015b61394d614b71565b8152602001906001900390816139455790505b50905060005b600354811015613dca578573ffffffffffffffffffffffffffffffffffffffff166008600083815260200190815260200160002060000160009054906101000a900473ffffffffffffffffffffffffffffffffffffffff1673ffffffffffffffffffffffffffffffffffffffff1603613db75760008190506000600860008381526020019081526020016000209050806040518060e00160405290816000820160009054906101000a900473ffffffffffffffffffffffffffffffffffffffff1673ffffffffffffffffffffffffffffffffffffffff1673ffffffffffffffffffffffffffffffffffffffff1681526020016001820160009054906101000a900473ffffffffffffffffffffffffffffffffffffffff1673ffffffffffffffffffffffffffffffffffffffff1673ffffffffffffffffffffffffffffffffffffffff168152602001600282018054613abd90615d30565b80601f0160208091040260200160405190810160405280929190818152602001828054613ae990615d30565b8015613b365780601f10613b0b57610100808354040283529160200191613b36565b820191906000526020600020905b815481529060010190602001808311613b1957829003601f168201915b50505050508152602001600382018054613b4f90615d30565b80601f0160208091040260200160405190810160405280929190818152602001828054613b7b90615d30565b8015613bc85780601f10613b9d57610100808354040283529160200191613bc8565b820191906000526020600020905b815481529060010190602001808311613bab57829003601f168201915b50505050508152602001600482018054613be190615d30565b80601f0160208091040260200160405190810160405280929190818152602001828054613c0d90615d30565b8015613c5a5780601f10613c2f57610100808354040283529160200191613c5a565b820191906000526020600020905b815481529060010190602001808311613c3d57829003601f168201915b50505050508152602001600582018054613c7390615d30565b80601f0160208091040260200160405190810160405280929190818152602001828054613c9f90615d30565b8015613cec5780601f10613cc157610100808354040283529160200191613cec565b820191906000526020600020905b815481529060010190602001808311613ccf57829003601f168201915b50505050508152602001600682018054613d0590615d30565b80601f0160208091040260200160405190810160405280929190818152602001828054613d3190615d30565b8015613d7e5780601f10613d5357610100808354040283529160200191613d7e565b820191906000526020600020905b815481529060010190602001808311613d6157829003601f168201915b505050505081525050848381518110613d9a57613d99616047565b5b6020026020010181905250600182613db29190616013565b915050505b8080613dc290615cb9565b915050613966565b50809250505092915050565b6060600080600090505b600154811015613e7c5760005b600f600083815260200190815260200160002080549050811015613e685784600f60008481526020019081526020016000208281548110613e3157613e30616047565b5b906000526020600020015403613e5557600183613e4e9190616013565b9250613e68565b8080613e6090615cb9565b915050613ded565b508080613e7490615cb9565b915050613de0565b5060008167ffffffffffffffff811115613e9957613e98614d3d565b5b604051908082528060200260200182016040528015613ed257816020015b613ebf614c5d565b815260200190600190039081613eb75790505b5090506000915060005b6001548110156142f45760005b600f6000838152602001908152602001600020805490508110156142e05785600f60008481526020019081526020016000208281548110613f2d57613f2c616047565b5b9060005260206000200154036142cd576000600660008481526020019081526020016000209050806040518060e00160405290816000820160009054906101000a900473ffffffffffffffffffffffffffffffffffffffff1673ffffffffffffffffffffffffffffffffffffffff1673ffffffffffffffffffffffffffffffffffffffff168152602001600182018054613fc690615d30565b80601f0160208091040260200160405190810160405280929190818152602001828054613ff290615d30565b801561403f5780601f106140145761010080835404028352916020019161403f565b820191906000526020600020905b81548152906001019060200180831161402257829003601f168201915b5050505050815260200160028201805461405890615d30565b80601f016020809104026020016040519081016040528092919081815260200182805461408490615d30565b80156140d15780601f106140a6576101008083540402835291602001916140d1565b820191906000526020600020905b8154815290600101906020018083116140b457829003601f168201915b505050505081526020016003820180546140ea90615d30565b80601f016020809104026020016040519081016040528092919081815260200182805461411690615d30565b80156141635780601f1061413857610100808354040283529160200191614163565b820191906000526020600020905b81548152906001019060200180831161414657829003601f168201915b5050505050815260200160048201805461417c90615d30565b80601f01602080910402602001604051908101604052809291908181526020018280546141a890615d30565b80156141f55780601f106141ca576101008083540402835291602001916141f5565b820191906000526020600020905b8154815290600101906020018083116141d857829003601f168201915b505050505081526020016005820154815260200160068201805461421890615d30565b80601f016020809104026020016040519081016040528092919081815260200182805461424490615d30565b80156142915780601f1061426657610100808354040283529160200191614291565b820191906000526020600020905b81548152906001019060200180831161427457829003601f168201915b5050505050815250508486815181106142ad576142ac616047565b5b60200260200101819052506001856142c59190616013565b9450506142e0565b80806142d890615cb9565b915050613ee9565b5080806142ec90615cb9565b915050613edc565b508092505050919050565b6000600c60008373ffffffffffffffffffffffffffffffffffffffff1673ffffffffffffffffffffffffffffffffffffffff1681526020019081526020016000205490506000600b60003373ffffffffffffffffffffffffffffffffffffffff1673ffffffffffffffffffffffffffffffffffffffff16815260200190815260200160002054905060005b600e6000838152602001908152602001600020805490508110156144b05782600e600084815260200190815260200160002082815481106143ce576143cd616047565b5b90600052602060002001540361449d57600e60008381526020019081526020016000206001600e6000858152602001908152602001600020805490506144149190615fdf565b8154811061442557614424616047565b5b9060005260206000200154600e6000848152602001908152602001600020828154811061445557614454616047565b5b9060005260206000200181905550600e600083815260200190815260200160002080548061448657614485616076565b5b600190038181906000526020600020016000905590555b80806144a890615cb9565b91505061438a565b50505050565b6060600080600090505b600354811015614556573373ffffffffffffffffffffffffffffffffffffffff166008600083815260200190815260200160002060000160009054906101000a900473ffffffffffffffffffffffffffffffffffffffff1673ffffffffffffffffffffffffffffffffffffffff1603614543576001826145409190616013565b91505b808061454e90615cb9565b9150506144c0565b5060008167ffffffffffffffff81111561457357614572614d3d565b5b6040519080825280602002602001820160405280156145ac57816020015b614599614b71565b8152602001906001900390816145915790505b50905060005b600354811015614a16573373ffffffffffffffffffffffffffffffffffffffff166008600083815260200190815260200160002060000160009054906101000a900473ffffffffffffffffffffffffffffffffffffffff1673ffffffffffffffffffffffffffffffffffffffff1603614a035760008190506000600860008381526020019081526020016000209050806040518060e00160405290816000820160009054906101000a900473ffffffffffffffffffffffffffffffffffffffff1673ffffffffffffffffffffffffffffffffffffffff1673ffffffffffffffffffffffffffffffffffffffff1681526020016001820160009054906101000a900473ffffffffffffffffffffffffffffffffffffffff1673ffffffffffffffffffffffffffffffffffffffff1673ffffffffffffffffffffffffffffffffffffffff16815260200160028201805461470990615d30565b80601f016020809104026020016040519081016040528092919081815260200182805461473590615d30565b80156147825780601f1061475757610100808354040283529160200191614782565b820191906000526020600020905b81548152906001019060200180831161476557829003601f168201915b5050505050815260200160038201805461479b90615d30565b80601f01602080910402602001604051908101604052809291908181526020018280546147c790615d30565b80156148145780601f106147e957610100808354040283529160200191614814565b820191906000526020600020905b8154815290600101906020018083116147f757829003601f168201915b5050505050815260200160048201805461482d90615d30565b80601f016020809104026020016040519081016040528092919081815260200182805461485990615d30565b80156148a65780601f1061487b576101008083540402835291602001916148a6565b820191906000526020600020905b81548152906001019060200180831161488957829003601f168201915b505050505081526020016005820180546148bf90615d30565b80601f01602080910402602001604051908101604052809291908181526020018280546148eb90615d30565b80156149385780601f1061490d57610100808354040283529160200191614938565b820191906000526020600020905b81548152906001019060200180831161491b57829003601f168201915b5050505050815260200160068201805461495190615d30565b80601f016020809104026020016040519081016040528092919081815260200182805461497d90615d30565b80156149ca5780601f1061499f576101008083540402835291602001916149ca565b820191906000526020600020905b8154815290600101906020018083116149ad57829003601f168201915b5050505050815250508483815181106149e6576149e5616047565b5b60200260200101819052506001826149fe9190616013565b915050505b8080614a0e90615cb9565b9150506145b2565b50809250505090565b600080600b60008573ffffffffffffffffffffffffffffffffffffffff1673ffffffffffffffffffffffffffffffffffffffff1681526020019081526020016000205490506000600c60008573ffffffffffffffffffffffffffffffffffffffff1673ffffffffffffffffffffffffffffffffffffffff16815260200190815260200160002054905060005b600e600084815260200190815260200160002080549050811015614b1e5781600e60008581526020019081526020016000208281548110614aef57614aee616047565b5b906000526020600020015403614b0b5760019350505050614b26565b8080614b1690615cb9565b915050614aab565b506000925050505b92915050565b6040518060a0016040528060008152602001600073ffffffffffffffffffffffffffffffffffffffff1681526020016060815260200160608152602001606081525090565b6040518060e00160405280600073ffffffffffffffffffffffffffffffffffffffff168152602001600073ffffffffffffffffffffffffffffffffffffffff16815260200160608152602001606081526020016060815260200160608152602001606081525090565b6040518060a00160405280600073ffffffffffffffffffffffffffffffffffffffff168152602001606081526020016060815260200160608152602001606081525090565b6040518060800160405280600073ffffffffffffffffffffffffffffffffffffffff1681526020016060815260200160608152602001606081525090565b6040518060e00160405280600073ffffffffffffffffffffffffffffffffffffffff1681526020016060815260200160608152602001606081526020016060815260200160008152602001606081525090565b6000604051905090565b600080fd5b600080fd5b600073ffffffffffffffffffffffffffffffffffffffff82169050919050565b6000614cef82614cc4565b9050919050565b614cff81614ce4565b8114614d0a57600080fd5b50565b600081359050614d1c81614cf6565b92915050565b600080fd5b600080fd5b6000601f19601f8301169050919050565b7f4e487b7100000000000000000000000000000000000000000000000000000000600052604160045260246000fd5b614d7582614d2c565b810181811067ffffffffffffffff82111715614d9457614d93614d3d565b5b80604052505050565b6000614da7614cb0565b9050614db38282614d6c565b919050565b600067ffffffffffffffff821115614dd357614dd2614d3d565b5b614ddc82614d2c565b9050602081019050919050565b82818337600083830152505050565b6000614e0b614e0684614db8565b614d9d565b905082815260208101848484011115614e2757614e26614d27565b5b614e32848285614de9565b509392505050565b600082601f830112614e4f57614e4e614d22565b5b8135614e5f848260208601614df8565b91505092915050565b60008060008060008060c08789031215614e8557614e84614cba565b5b6000614e9389828a01614d0d565b965050602087013567ffffffffffffffff811115614eb457614eb3614cbf565b5b614ec089828a01614e3a565b955050604087013567ffffffffffffffff811115614ee157614ee0614cbf565b5b614eed89828a01614e3a565b945050606087013567ffffffffffffffff811115614f0e57614f0d614cbf565b5b614f1a89828a01614e3a565b935050608087013567ffffffffffffffff811115614f3b57614f3a614cbf565b5b614f4789828a01614e3a565b92505060a087013567ffffffffffffffff811115614f6857614f67614cbf565b5b614f7489828a01614e3a565b9150509295509295509295565b6000819050919050565b614f9481614f81565b8114614f9f57600080fd5b50565b600081359050614fb181614f8b565b92915050565b60008060008060008060c08789031215614fd457614fd3614cba565b5b600087013567ffffffffffffffff811115614ff257614ff1614cbf565b5b614ffe89828a01614e3a565b965050602087013567ffffffffffffffff81111561501f5761501e614cbf565b5b61502b89828a01614e3a565b955050604087013567ffffffffffffffff81111561504c5761504b614cbf565b5b61505889828a01614e3a565b945050606087013567ffffffffffffffff81111561507957615078614cbf565b5b61508589828a01614e3a565b935050608061509689828a01614fa2565b92505060a087013567ffffffffffffffff8111156150b7576150b6614cbf565b5b6150c389828a01614e3a565b9150509295509295509295565b600081519050919050565b600082825260208201905092915050565b6000819050602082019050919050565b61510581614f81565b82525050565b61511481614ce4565b82525050565b600081519050919050565b600082825260208201905092915050565b60005b83811015615154578082015181840152602081019050615139565b60008484015250505050565b600061516b8261511a565b6151758185615125565b9350615185818560208601615136565b61518e81614d2c565b840191505092915050565b600060a0830160008301516151b160008601826150fc565b5060208301516151c4602086018261510b565b50604083015184820360408601526151dc8282615160565b915050606083015184820360608601526151f68282615160565b915050608083015184820360808601526152108282615160565b9150508091505092915050565b60006152298383615199565b905092915050565b6000602082019050919050565b6000615249826150d0565b61525381856150db565b935083602082028501615265856150ec565b8060005b858110156152a15784840389528151615282858261521d565b945061528d83615231565b925060208a01995050600181019050615269565b50829750879550505050505092915050565b600060208201905081810360008301526152cd818461523e565b905092915050565b6000806000606084860312156152ee576152ed614cba565b5b600084013567ffffffffffffffff81111561530c5761530b614cbf565b5b61531886828701614e3a565b935050602084013567ffffffffffffffff81111561533957615338614cbf565b5b61534586828701614e3a565b925050604084013567ffffffffffffffff81111561536657615365614cbf565b5b61537286828701614e3a565b9150509250925092565b600081519050919050565b600082825260208201905092915050565b6000819050602082019050919050565b600060e0830160008301516153c0600086018261510b565b5060208301516153d3602086018261510b565b50604083015184820360408601526153eb8282615160565b915050606083015184820360608601526154058282615160565b9150506080830151848203608086015261541f8282615160565b91505060a083015184820360a08601526154398282615160565b91505060c083015184820360c08601526154538282615160565b9150508091505092915050565b600061546c83836153a8565b905092915050565b6000602082019050919050565b600061548c8261537c565b6154968185615387565b9350836020820285016154a885615398565b8060005b858110156154e457848403895281516154c58582615460565b94506154d083615474565b925060208a019950506001810190506154ac565b50829750879550505050505092915050565b600060208201905081810360008301526155108184615481565b905092915050565b60006020828403121561552e5761552d614cba565b5b600061553c84828501614fa2565b91505092915050565b600060a08301600083015161555d60008601826150fc565b506020830151615570602086018261510b565b50604083015184820360408601526155888282615160565b915050606083015184820360608601526155a28282615160565b915050608083015184820360808601526155bc8282615160565b9150508091505092915050565b600060208201905081810360008301526155e38184615545565b905092915050565b60006020828403121561560157615600614cba565b5b600061560f84828501614d0d565b91505092915050565b6000806000806080858703121561563257615631614cba565b5b600085013567ffffffffffffffff8111156156505761564f614cbf565b5b61565c87828801614e3a565b945050602085013567ffffffffffffffff81111561567d5761567c614cbf565b5b61568987828801614e3a565b935050604085013567ffffffffffffffff8111156156aa576156a9614cbf565b5b6156b687828801614e3a565b925050606085013567ffffffffffffffff8111156156d7576156d6614cbf565b5b6156e387828801614e3a565b91505092959194509250565b600081519050919050565b600082825260208201905092915050565b6000819050602082019050919050565b600060a083016000830151615733600086018261510b565b506020830151848203602086015261574b8282615160565b915050604083015184820360408601526157658282615160565b9150506060830151848203606086015261577f8282615160565b915050608083015184820360808601526157998282615160565b9150508091505092915050565b60006157b2838361571b565b905092915050565b6000602082019050919050565b60006157d2826156ef565b6157dc81856156fa565b9350836020820285016157ee8561570b565b8060005b8581101561582a578484038952815161580b85826157a6565b9450615816836157ba565b925060208a019950506001810190506157f2565b50829750879550505050505092915050565b6000602082019050818103600083015261585681846157c7565b905092915050565b6000806040838503121561587557615874614cba565b5b600061588385828601614d0d565b925050602061589485828601614fa2565b9150509250929050565b60008115159050919050565b6158b38161589e565b82525050565b60006020820190506158ce60008301846158aa565b92915050565b60006080830160008301516158ec600086018261510b565b50602083015184820360208601526159048282615160565b9150506040830151848203604086015261591e8282615160565b915050606083015184820360608601526159388282615160565b9150508091505092915050565b6000602082019050818103600083015261595f81846158d4565b905092915050565b600060e08301600083015161597f600086018261510b565b50602083015184820360208601526159978282615160565b915050604083015184820360408601526159b18282615160565b915050606083015184820360608601526159cb8282615160565b915050608083015184820360808601526159e58282615160565b91505060a08301516159fa60a08601826150fc565b5060c083015184820360c0860152615a128282615160565b9150508091505092915050565b60006020820190508181036000830152615a398184615967565b905092915050565b600060a083016000830151615a59600086018261510b565b5060208301518482036020860152615a718282615160565b91505060408301518482036040860152615a8b8282615160565b91505060608301518482036060860152615aa58282615160565b91505060808301518482036080860152615abf8282615160565b9150508091505092915050565b60006020820190508181036000830152615ae68184615a41565b905092915050565b600081519050919050565b600082825260208201905092915050565b6000819050602082019050919050565b600060e083016000830151615b32600086018261510b565b5060208301518482036020860152615b4a8282615160565b91505060408301518482036040860152615b648282615160565b91505060608301518482036060860152615b7e8282615160565b91505060808301518482036080860152615b988282615160565b91505060a0830151615bad60a08601826150fc565b5060c083015184820360c0860152615bc58282615160565b9150508091505092915050565b6000615bde8383615b1a565b905092915050565b6000602082019050919050565b6000615bfe82615aee565b615c088185615af9565b935083602082028501615c1a85615b0a565b8060005b85811015615c565784840389528151615c378582615bd2565b9450615c4283615be6565b925060208a01995050600181019050615c1e565b50829750879550505050505092915050565b60006020820190508181036000830152615c828184615bf3565b905092915050565b7f4e487b7100000000000000000000000000000000000000000000000000000000600052601160045260246000fd5b6000615cc482614f81565b91507fffffffffffffffffffffffffffffffffffffffffffffffffffffffffffffffff8203615cf657615cf5615c8a565b5b600182019050919050565b7f4e487b7100000000000000000000000000000000000000000000000000000000600052602260045260246000fd5b60006002820490506001821680615d4857607f821691505b602082108103615d5b57615d5a615d01565b5b50919050565b60008190508160005260206000209050919050565b60006020601f8301049050919050565b600082821b905092915050565b600060088302615dc37fffffffffffffffffffffffffffffffffffffffffffffffffffffffffffffffff82615d86565b615dcd8683615d86565b95508019841693508086168417925050509392505050565b6000819050919050565b6000615e0a615e05615e0084614f81565b615de5565b614f81565b9050919050565b6000819050919050565b615e2483615def565b615e38615e3082615e11565b848454615d93565b825550505050565b600090565b615e4d615e40565b615e58818484615e1b565b505050565b5b81811015615e7c57615e71600082615e45565b600181019050615e5e565b5050565b601f821115615ec157615e9281615d61565b615e9b84615d76565b81016020851015615eaa578190505b615ebe615eb685615d76565b830182615e5d565b50505b505050565b600082821c905092915050565b6000615ee460001984600802615ec6565b1980831691505092915050565b6000615efd8383615ed3565b9150826002028217905092915050565b615f168261511a565b67ffffffffffffffff811115615f2f57615f2e614d3d565b5b615f398254615d30565b615f44828285615e80565b600060209050601f831160018114615f775760008415615f65578287015190505b615f6f8582615ef1565b865550615fd7565b601f198416615f8586615d61565b60005b82811015615fad57848901518255600182019150602085019450602081019050615f88565b86831015615fca5784890151615fc6601f891682615ed3565b8355505b6001600288020188555050505b505050505050565b6000615fea82614f81565b9150615ff583614f81565b925082820390508181111561600d5761600c615c8a565b5b92915050565b600061601e82614f81565b915061602983614f81565b925082820190508082111561604157616040615c8a565b5b92915050565b7f4e487b7100000000000000000000000000000000000000000000000000000000600052603260045260246000fd5b7f4e487b7100000000000000000000000000000000000000000000000000000000600052603160045260246000fd5b600082825260208201905092915050565b7f446f6573206e6f7420686173207468652061636365737320746f20666574636860008201527f2074686520646f63756d656e7473000000000000000000000000000000000000602082015250565b6000616112602e836160a5565b915061611d826160b6565b604082019050919050565b6000602082019050818103600083015261614181616105565b905091905056fea2646970667358221220ba71b7d84a3b8cf7a9849de8247c3fbc51401b6c964645a9d9f1f7ace1d8048264736f6c63430008110033",
	"linkReferences": {},
	"deployedLinkReferences": {}
}