{
	"_format": "hh-sol-artifact-1",
	"contractName": "EHR",
	"sourceName": "contracts/EHR.sol",
	"abi": [
		{
			"inputs": [],
			"stateMutability": "nonpayable",
			"type": "constructor"
		},
		{
			"inputs": [
				{
					"internalType": "address",
					"name": "userAdd",
					"type": "address"
				},
				{
					"internalType": "string",
					"name": "docName",
					"type": "string"
				},
				{
					"internalType": "string",
					"name": "recordHash",
					"type": "string"
				},
				{
					"internalType": "string",
					"name": "recordName",
					"type": "string"
				},
				{
					"internalType": "string",
					"name": "issueDate",
					"type": "string"
				},
				{
					"internalType": "string",
					"name": "testSuggested",
					"type": "string"
				}
			],
			"name": "createNewRecord",
			"outputs": [],
			"stateMutability": "nonpayable",
			"type": "function"
		},
		{
			"inputs": [
				{
					"internalType": "string",
					"name": "name",
					"type": "string"
				},
				{
					"internalType": "string",
					"name": "description",
					"type": "string"
				},
				{
					"internalType": "string",
					"name": "cid",
					"type": "string"
				}
			],
			"name": "createNewResearch",
			"outputs": [],
			"stateMutability": "nonpayable",
			"type": "function"
		},
		{
			"inputs": [],
			"name": "fetchAllHospitals",
			"outputs": [
				{
					"components": [
						{
							"internalType": "address",
							"name": "hosAdd",
							"type": "address"
						},
						{
							"internalType": "string",
							"name": "name",
							"type": "string"
						},
						{
							"internalType": "string",
							"name": "personalAdd",
							"type": "string"
						},
						{
							"internalType": "string",
							"name": "emailId",
							"type": "string"
						},
						{
							"internalType": "string",
							"name": "contactNo",
							"type": "string"
						}
					],
					"internalType": "struct EHR.Hospital[]",
					"name": "",
					"type": "tuple[]"
				}
			],
			"stateMutability": "view",
			"type": "function"
		},
		{
			"inputs": [
				{
					"internalType": "uint256",
					"name": "researchId",
					"type": "uint256"
				}
			],
			"name": "fetchAllUsersForResearch",
			"outputs": [
				{
					"components": [
						{
							"internalType": "address",
							"name": "userAdd",
							"type": "address"
						},
						{
							"internalType": "string",
							"name": "name",
							"type": "string"
						},
						{
							"internalType": "string",
							"name": "personalAdd",
							"type": "string"
						},
						{
							"internalType": "string",
							"name": "emailId",
							"type": "string"
						},
						{
							"internalType": "string",
							"name": "mobileNo",
							"type": "string"
						},
						{
							"internalType": "uint256",
							"name": "gender",
							"type": "uint256"
						},
						{
							"internalType": "string",
							"name": "dob",
							"type": "string"
						}
					],
					"internalType": "struct EHR.User[]",
					"name": "",
					"type": "tuple[]"
				}
			],
			"stateMutability": "view",
			"type": "function"
		},
		{
			"inputs": [],
			"name": "fetchMyDocuments",
			"outputs": [
				{
					"components": [
						{
							"internalType": "address",
							"name": "userAdd",
							"type": "address"
						},
						{
							"internalType": "address",
							"name": "hosAdd",
							"type": "address"
						},
						{
							"internalType": "string",
							"name": "docName",
							"type": "string"
						},
						{
							"internalType": "string",
							"name": "recordHash",
							"type": "string"
						},
						{
							"internalType": "string",
							"name": "recordName",
							"type": "string"
						},
						{
							"internalType": "string",
							"name": "issueDate",
							"type": "string"
						},
						{
							"internalType": "string",
							"name": "testSuggested",
							"type": "string"
						}
					],
					"internalType": "struct EHR.Record[]",
					"name": "",
					"type": "tuple[]"
				}
			],
			"stateMutability": "view",
			"type": "function"
		},
		{
			"inputs": [],
			"name": "fetchMyHospitalAccessList",
			"outputs": [
				{
					"components": [
						{
							"internalType": "address",
							"name": "hosAdd",
							"type": "address"
						},
						{
							"internalType": "string",
							"name": "name",
							"type": "string"
						},
						{
							"internalType": "string",
							"name": "personalAdd",
							"type": "string"
						},
						{
							"internalType": "string",
							"name": "emailId",
							"type": "string"
						},
						{
							"internalType": "string",
							"name": "contactNo",
							"type": "string"
						}
					],
					"internalType": "struct EHR.Hospital[]",
					"name": "",
					"type": "tuple[]"
				}
			],
			"stateMutability": "view",
			"type": "function"
		},
		{
			"inputs": [],
			"name": "fetchMyResearchAccessList",
			"outputs": [
				{
					"components": [
						{
							"internalType": "address",
							"name": "orgAdd",
							"type": "address"
						},
						{
							"internalType": "string",
							"name": "name",
							"type": "string"
						},
						{
							"internalType": "string",
							"name": "description",
							"type": "string"
						},
						{
							"internalType": "string",
							"name": "cid",
							"type": "string"
						}
					],
					"internalType": "struct EHR.Research[]",
					"name": "",
					"type": "tuple[]"
				}
			],
			"stateMutability": "view",
			"type": "function"
		},
		{
			"inputs": [],
			"name": "fetchMyResearchs",
			"outputs": [
				{
					"components": [
						{
							"internalType": "address",
							"name": "orgAdd",
							"type": "address"
						},
						{
							"internalType": "string",
							"name": "name",
							"type": "string"
						},
						{
							"internalType": "string",
							"name": "description",
							"type": "string"
						},
						{
							"internalType": "string",
							"name": "cid",
							"type": "string"
						}
					],
					"internalType": "struct EHR.Research[]",
					"name": "",
					"type": "tuple[]"
				}
			],
			"stateMutability": "view",
			"type": "function"
		},
		{
			"inputs": [
				{
					"internalType": "address",
					"name": "userAddress",
					"type": "address"
				}
			],
			"name": "fetchUserByAddress",
			"outputs": [
				{
					"components": [
						{
							"internalType": "address",
							"name": "userAdd",
							"type": "address"
						},
						{
							"internalType": "string",
							"name": "name",
							"type": "string"
						},
						{
							"internalType": "string",
							"name": "personalAdd",
							"type": "string"
						},
						{
							"internalType": "string",
							"name": "emailId",
							"type": "string"
						},
						{
							"internalType": "string",
							"name": "mobileNo",
							"type": "string"
						},
						{
							"internalType": "uint256",
							"name": "gender",
							"type": "uint256"
						},
						{
							"internalType": "string",
							"name": "dob",
							"type": "string"
						}
					],
					"internalType": "struct EHR.User",
					"name": "",
					"type": "tuple"
				}
			],
			"stateMutability": "view",
			"type": "function"
		},
		{
			"inputs": [
				{
					"internalType": "address",
					"name": "userAddress",
					"type": "address"
				}
			],
			"name": "fetchUserDocumentsForHospital",
			"outputs": [
				{
					"components": [
						{
							"internalType": "address",
							"name": "userAdd",
							"type": "address"
						},
						{
							"internalType": "address",
							"name": "hosAdd",
							"type": "address"
						},
						{
							"internalType": "string",
							"name": "docName",
							"type": "string"
						},
						{
							"internalType": "string",
							"name": "recordHash",
							"type": "string"
						},
						{
							"internalType": "string",
							"name": "recordName",
							"type": "string"
						},
						{
							"internalType": "string",
							"name": "issueDate",
							"type": "string"
						},
						{
							"internalType": "string",
							"name": "testSuggested",
							"type": "string"
						}
					],
					"internalType": "struct EHR.Record[]",
					"name": "",
					"type": "tuple[]"
				}
			],
			"stateMutability": "view",
			"type": "function"
		},
		{
			"inputs": [
				{
					"internalType": "address",
					"name": "userAddress",
					"type": "address"
				},
				{
					"internalType": "uint256",
					"name": "researchId",
					"type": "uint256"
				}
			],
			"name": "fetchUserDocumentsForResearch",
			"outputs": [
				{
					"components": [
						{
							"internalType": "address",
							"name": "userAdd",
							"type": "address"
						},
						{
							"internalType": "address",
							"name": "hosAdd",
							"type": "address"
						},
						{
							"internalType": "string",
							"name": "docName",
							"type": "string"
						},
						{
							"internalType": "string",
							"name": "recordHash",
							"type": "string"
						},
						{
							"internalType": "string",
							"name": "recordName",
							"type": "string"
						},
						{
							"internalType": "string",
							"name": "issueDate",
							"type": "string"
						},
						{
							"internalType": "string",
							"name": "testSuggested",
							"type": "string"
						}
					],
					"internalType": "struct EHR.Record[]",
					"name": "",
					"type": "tuple[]"
				}
			],
			"stateMutability": "view",
			"type": "function"
		},
		{
			"inputs": [],
			"name": "getAllHospitalRecords",
			"outputs": [
				{
					"components": [
						{
							"internalType": "address",
							"name": "userAdd",
							"type": "address"
						},
						{
							"internalType": "address",
							"name": "hosAdd",
							"type": "address"
						},
						{
							"internalType": "string",
							"name": "docName",
							"type": "string"
						},
						{
							"internalType": "string",
							"name": "recordHash",
							"type": "string"
						},
						{
							"internalType": "string",
							"name": "recordName",
							"type": "string"
						},
						{
							"internalType": "string",
							"name": "issueDate",
							"type": "string"
						},
						{
							"internalType": "string",
							"name": "testSuggested",
							"type": "string"
						}
					],
					"internalType": "struct EHR.Record[]",
					"name": "",
					"type": "tuple[]"
				}
			],
			"stateMutability": "view",
			"type": "function"
		},
		{
			"inputs": [
				{
					"internalType": "address",
					"name": "hospitalAddress",
					"type": "address"
				}
			],
			"name": "grantAccessToHospital",
			"outputs": [],
			"stateMutability": "nonpayable",
			"type": "function"
		},
		{
			"inputs": [
				{
					"internalType": "uint256",
					"name": "researchId",
					"type": "uint256"
				}
			],
			"name": "grantAccessToResearch",
			"outputs": [],
			"stateMutability": "nonpayable",
			"type": "function"
		},
		{
			"inputs": [
				{
					"internalType": "string",
					"name": "name",
					"type": "string"
				},
				{
					"internalType": "string",
					"name": "personalAdd",
					"type": "string"
				},
				{
					"internalType": "string",
					"name": "emailId",
					"type": "string"
				},
				{
					"internalType": "string",
					"name": "mobileNo",
					"type": "string"
				}
			],
			"name": "registerHospital",
			"outputs": [],
			"stateMutability": "nonpayable",
			"type": "function"
		},
		{
			"inputs": [
				{
					"internalType": "string",
					"name": "name",
					"type": "string"
				},
				{
					"internalType": "string",
					"name": "emailId",
					"type": "string"
				},
				{
					"internalType": "string",
					"name": "mobileNo",
					"type": "string"
				}
			],
			"name": "registerResearchOrg",
			"outputs": [],
			"stateMutability": "nonpayable",
			"type": "function"
		},
		{
			"inputs": [
				{
					"internalType": "string",
					"name": "name",
					"type": "string"
				},
				{
					"internalType": "string",
					"name": "personalAdd",
					"type": "string"
				},
				{
					"internalType": "string",
					"name": "emailId",
					"type": "string"
				},
				{
					"internalType": "string",
					"name": "mobileNo",
					"type": "string"
				},
				{
					"internalType": "uint256",
					"name": "gender",
					"type": "uint256"
				},
				{
					"internalType": "string",
					"name": "dob",
					"type": "string"
				}
			],
			"name": "registerUser",
			"outputs": [],
			"stateMutability": "nonpayable",
			"type": "function"
		},
		{
			"inputs": [
				{
					"internalType": "address",
					"name": "hospitalAddress",
					"type": "address"
				}
			],
			"name": "removeAccessFromHospital",
			"outputs": [],
			"stateMutability": "nonpayable",
			"type": "function"
		},
		{
			"inputs": [
				{
					"internalType": "uint256",
					"name": "researchId",
					"type": "uint256"
				}
			],
			"name": "removeAccessFromResearch",
			"outputs": [],
			"stateMutability": "nonpayable",
			"type": "function"
		}
	],
	"bytecode": "0x608060405234801561001057600080fd5b50336000806101000a81548173ffffffffffffffffffffffffffffffffffffffff021916908373ffffffffffffffffffffffffffffffffffffffff160217905550615328806100606000396000f3fe608060405234801561001057600080fd5b50600436106101215760003560e01c8063684217a6116100ad578063baa719dc11610071578063baa719dc146102de578063c444411d146102fc578063da8da7311461032c578063edf9e00a1461035c578063f95ad8fd1461037857610121565b8063684217a6146102285780638280c16c14610244578063849326f2146102605780638aeab380146102905780639f900a18146102ae57610121565b8063245e7f95116100f4578063245e7f951461019857806341bd117c146101b65780634630d73b146101d25780634df6f28d146101ee57806354053ea81461020a57610121565b806302539bd814610126578063166fb618146101425780631be8530e1461015e578063223a6d341461017c575b600080fd5b610140600480360381019061013b9190614241565b610396565b005b61015c60048036038101906101579190614390565b610525565b005b6101666106b2565b604051610173919061466a565b60405180910390f35b6101966004803603810190610191919061468c565b610a9f565b005b6101a0610be2565b6040516101ad91906148ad565b60405180910390f35b6101d060048036038101906101cb91906148cf565b61114b565b005b6101ec60048036038101906101e791906148fc565b611240565b005b61020860048036038101906102039190614929565b61137b565b005b6102126114db565b60405161021f919061466a565b60405180910390f35b610242600480360381019061023d91906148cf565b611849565b005b61025e6004803603810190610259919061468c565b6119bb565b005b61027a600480360381019061027591906148fc565b611aac565b60405161028791906148ad565b60405180910390f35b610298612067565b6040516102a59190614b4d565b60405180910390f35b6102c860048036038101906102c391906148fc565b612467565b6040516102d59190614c36565b60405180910390f35b6102e661280d565b6040516102f39190614b4d565b60405180910390f35b61031660048036038101906103119190614c58565b612b71565b60405161032391906148ad565b60405180910390f35b610346600480360381019061034191906148cf565b61312d565b6040516103539190614e12565b60405180910390f35b610376600480360381019061037191906148fc565b613656565b005b61038061380d565b60405161038d91906148ad565b60405180910390f35b6040518060e001604052808773ffffffffffffffffffffffffffffffffffffffff1681526020013373ffffffffffffffffffffffffffffffffffffffff16815260200186815260200185815260200184815260200183815260200182815250600860006003600081548092919061040c90614e63565b91905055815260200190815260200160002060008201518160000160006101000a81548173ffffffffffffffffffffffffffffffffffffffff021916908373ffffffffffffffffffffffffffffffffffffffff16021790555060208201518160010160006101000a81548173ffffffffffffffffffffffffffffffffffffffff021916908373ffffffffffffffffffffffffffffffffffffffff16021790555060408201518160020190816104c191906150b7565b5060608201518160030190816104d791906150b7565b5060808201518160040190816104ed91906150b7565b5060a082015181600501908161050391906150b7565b5060c082015181600601908161051991906150b7565b50905050505050505050565b6040518060e001604052803373ffffffffffffffffffffffffffffffffffffffff16815260200187815260200186815260200185815260200184815260200183815260200182815250600660006001600081548092919061058590614e63565b91905055815260200190815260200160002060008201518160000160006101000a81548173ffffffffffffffffffffffffffffffffffffffff021916908373ffffffffffffffffffffffffffffffffffffffff16021790555060208201518160010190816105f391906150b7565b50604082015181600201908161060991906150b7565b50606082015181600301908161061f91906150b7565b50608082015181600401908161063591906150b7565b5060a0820151816005015560c082015181600601908161065591906150b7565b50905050600180546106679190615189565b600b60003373ffffffffffffffffffffffffffffffffffffffff1673ffffffffffffffffffffffffffffffffffffffff16815260200190815260200160002081905550505050505050565b6060600080600090505b600554811015610752573373ffffffffffffffffffffffffffffffffffffffff16600a600083815260200190815260200160002060000160009054906101000a900473ffffffffffffffffffffffffffffffffffffffff1673ffffffffffffffffffffffffffffffffffffffff160361073f5760018261073c91906151bd565b91505b808061074a90614e63565b9150506106bc565b5060008167ffffffffffffffff81111561076f5761076e614116565b5b6040519080825280602002602001820160405280156107a857816020015b610795613f4a565b81526020019060019003908161078d5790505b5090506000915060005b600554811015610a96573373ffffffffffffffffffffffffffffffffffffffff16600a600083815260200190815260200160002060000160009054906101000a900473ffffffffffffffffffffffffffffffffffffffff1673ffffffffffffffffffffffffffffffffffffffff1603610a83576000600a60008381526020019081526020016000209050806040518060800160405290816000820160009054906101000a900473ffffffffffffffffffffffffffffffffffffffff1673ffffffffffffffffffffffffffffffffffffffff1673ffffffffffffffffffffffffffffffffffffffff1681526020016001820180546108ae90614eda565b80601f01602080910402602001604051908101604052809291908181526020018280546108da90614eda565b80156109275780601f106108fc57610100808354040283529160200191610927565b820191906000526020600020905b81548152906001019060200180831161090a57829003601f168201915b5050505050815260200160028201805461094090614eda565b80601f016020809104026020016040519081016040528092919081815260200182805461096c90614eda565b80156109b95780601f1061098e576101008083540402835291602001916109b9565b820191906000526020600020905b81548152906001019060200180831161099c57829003601f168201915b505050505081526020016003820180546109d290614eda565b80601f01602080910402602001604051908101604052809291908181526020018280546109fe90614eda565b8015610a4b5780601f10610a2057610100808354040283529160200191610a4b565b820191906000526020600020905b815481529060010190602001808311610a2e57829003601f168201915b505050505081525050838581518110610a6757610a666151f1565b5b6020026020010181905250600184610a7f91906151bd565b9350505b8080610a8e90614e63565b9150506107b2565b50809250505090565b60405180608001604052803373ffffffffffffffffffffffffffffffffffffffff168152602001848152602001838152602001828152506009600060046000815480929190610aed90614e63565b91905055815260200190815260200160002060008201518160000160006101000a81548173ffffffffffffffffffffffffffffffffffffffff021916908373ffffffffffffffffffffffffffffffffffffffff1602179055506020820151816001019081610b5b91906150b7565b506040820151816002019081610b7191906150b7565b506060820151816003019081610b8791906150b7565b509050506001600454610b9a9190615189565b600d60003373ffffffffffffffffffffffffffffffffffffffff1673ffffffffffffffffffffffffffffffffffffffff16815260200190815260200160002081905550505050565b6060600080600090505b600354811015610c82573373ffffffffffffffffffffffffffffffffffffffff166008600083815260200190815260200160002060010160009054906101000a900473ffffffffffffffffffffffffffffffffffffffff1673ffffffffffffffffffffffffffffffffffffffff1603610c6f57600182610c6c91906151bd565b91505b8080610c7a90614e63565b915050610bec565b5060008167ffffffffffffffff811115610c9f57610c9e614116565b5b604051908082528060200260200182016040528015610cd857816020015b610cc5613f88565b815260200190600190039081610cbd5790505b50905060005b600354811015611142573373ffffffffffffffffffffffffffffffffffffffff166008600083815260200190815260200160002060010160009054906101000a900473ffffffffffffffffffffffffffffffffffffffff1673ffffffffffffffffffffffffffffffffffffffff160361112f5760008190506000600860008381526020019081526020016000209050806040518060e00160405290816000820160009054906101000a900473ffffffffffffffffffffffffffffffffffffffff1673ffffffffffffffffffffffffffffffffffffffff1673ffffffffffffffffffffffffffffffffffffffff1681526020016001820160009054906101000a900473ffffffffffffffffffffffffffffffffffffffff1673ffffffffffffffffffffffffffffffffffffffff1673ffffffffffffffffffffffffffffffffffffffff168152602001600282018054610e3590614eda565b80601f0160208091040260200160405190810160405280929190818152602001828054610e6190614eda565b8015610eae5780601f10610e8357610100808354040283529160200191610eae565b820191906000526020600020905b815481529060010190602001808311610e9157829003601f168201915b50505050508152602001600382018054610ec790614eda565b80601f0160208091040260200160405190810160405280929190818152602001828054610ef390614eda565b8015610f405780601f10610f1557610100808354040283529160200191610f40565b820191906000526020600020905b815481529060010190602001808311610f2357829003601f168201915b50505050508152602001600482018054610f5990614eda565b80601f0160208091040260200160405190810160405280929190818152602001828054610f8590614eda565b8015610fd25780601f10610fa757610100808354040283529160200191610fd2565b820191906000526020600020905b815481529060010190602001808311610fb557829003601f168201915b50505050508152602001600582018054610feb90614eda565b80601f016020809104026020016040519081016040528092919081815260200182805461101790614eda565b80156110645780601f1061103957610100808354040283529160200191611064565b820191906000526020600020905b81548152906001019060200180831161104757829003601f168201915b5050505050815260200160068201805461107d90614eda565b80601f01602080910402602001604051908101604052809291908181526020018280546110a990614eda565b80156110f65780601f106110cb576101008083540402835291602001916110f6565b820191906000526020600020905b8154815290600101906020018083116110d957829003601f168201915b505050505081525050848381518110611112576111116151f1565b5b602002602001018190525060018261112a91906151bd565b915050505b808061113a90614e63565b915050610cde565b50809250505090565b6000600b60003373ffffffffffffffffffffffffffffffffffffffff1673ffffffffffffffffffffffffffffffffffffffff16815260200190815260200160002054905060005b600f6000838152602001908152602001600020805490508110156112005782600f600084815260200190815260200160002082815481106111d6576111d56151f1565b5b9060005260206000200154036111ed57505061123d565b80806111f890614e63565b915050611192565b50600f6000828152602001908152602001600020829080600181540180825580915050600190039060005260206000200160009091909190915055505b50565b6000600c60008373ffffffffffffffffffffffffffffffffffffffff1673ffffffffffffffffffffffffffffffffffffffff1681526020019081526020016000205490506000600b60003373ffffffffffffffffffffffffffffffffffffffff1673ffffffffffffffffffffffffffffffffffffffff16815260200190815260200160002054905060005b600e60008381526020019081526020016000208054905081101561133a5782600e6000848152602001908152602001600020828154811061130f5761130e6151f1565b5b90600052602060002001540361132757505050611378565b808061133290614e63565b9150506112cb565b50600e600082815260200190815260200160002082908060018154018082558091505060019003906000526020600020016000909190919091505550505b50565b6040518060a001604052803373ffffffffffffffffffffffffffffffffffffffff1681526020018581526020018481526020018381526020018281525060076000600260008154809291906113cf90614e63565b91905055815260200190815260200160002060008201518160000160006101000a81548173ffffffffffffffffffffffffffffffffffffffff021916908373ffffffffffffffffffffffffffffffffffffffff160217905550602082015181600101908161143d91906150b7565b50604082015181600201908161145391906150b7565b50606082015181600301908161146991906150b7565b50608082015181600401908161147f91906150b7565b5090505060016002546114929190615189565b600c60003373ffffffffffffffffffffffffffffffffffffffff1673ffffffffffffffffffffffffffffffffffffffff1681526020019081526020016000208190555050505050565b60606000600b60003373ffffffffffffffffffffffffffffffffffffffff1673ffffffffffffffffffffffffffffffffffffffff1681526020019081526020016000205490506000600f60008381526020019081526020016000208054905067ffffffffffffffff81111561155357611552614116565b5b60405190808252806020026020018201604052801561158c57816020015b611579613f4a565b8152602001906001900390816115715790505b50905060005b600f600084815260200190815260200160002080549050811015611840576000600a6000600f600087815260200190815260200160002084815481106115db576115da6151f1565b5b906000526020600020015481526020019081526020016000209050806040518060800160405290816000820160009054906101000a900473ffffffffffffffffffffffffffffffffffffffff1673ffffffffffffffffffffffffffffffffffffffff1673ffffffffffffffffffffffffffffffffffffffff16815260200160018201805461166890614eda565b80601f016020809104026020016040519081016040528092919081815260200182805461169490614eda565b80156116e15780601f106116b6576101008083540402835291602001916116e1565b820191906000526020600020905b8154815290600101906020018083116116c457829003601f168201915b505050505081526020016002820180546116fa90614eda565b80601f016020809104026020016040519081016040528092919081815260200182805461172690614eda565b80156117735780601f1061174857610100808354040283529160200191611773565b820191906000526020600020905b81548152906001019060200180831161175657829003601f168201915b5050505050815260200160038201805461178c90614eda565b80601f01602080910402602001604051908101604052809291908181526020018280546117b890614eda565b80156118055780601f106117da57610100808354040283529160200191611805565b820191906000526020600020905b8154815290600101906020018083116117e857829003601f168201915b505050505081525050838381518110611821576118206151f1565b5b602002602001018190525050808061183890614e63565b915050611592565b50809250505090565b6000600b60003373ffffffffffffffffffffffffffffffffffffffff1673ffffffffffffffffffffffffffffffffffffffff16815260200190815260200160002054905060005b600f6000838152602001908152602001600020805490508110156119b65782600f600084815260200190815260200160002082815481106118d4576118d36151f1565b5b9060005260206000200154036119a357600f60008381526020019081526020016000206001600f60008581526020019081526020016000208054905061191a9190615189565b8154811061192b5761192a6151f1565b5b9060005260206000200154600f6000848152602001908152602001600020828154811061195b5761195a6151f1565b5b9060005260206000200181905550600f600083815260200190815260200160002080548061198c5761198b615220565b5b600190038181906000526020600020016000905590555b80806119ae90614e63565b915050611890565b505050565b60405180608001604052803373ffffffffffffffffffffffffffffffffffffffff16815260200184815260200183815260200182815250600a600060056000815480929190611a0990614e63565b91905055815260200190815260200160002060008201518160000160006101000a81548173ffffffffffffffffffffffffffffffffffffffff021916908373ffffffffffffffffffffffffffffffffffffffff1602179055506020820151816001019081611a7791906150b7565b506040820151816002019081611a8d91906150b7565b506060820151816003019081611aa391906150b7565b50905050505050565b606060011515611abc8333613d76565b151514611afe576040517f08c379a0000000000000000000000000000000000000000000000000000000008152600401611af5906152d2565b60405180910390fd5b600080600090505b600354811015611b9c578373ffffffffffffffffffffffffffffffffffffffff166008600083815260200190815260200160002060000160009054906101000a900473ffffffffffffffffffffffffffffffffffffffff1673ffffffffffffffffffffffffffffffffffffffff1603611b8957600182611b8691906151bd565b91505b8080611b9490614e63565b915050611b06565b5060008167ffffffffffffffff811115611bb957611bb8614116565b5b604051908082528060200260200182016040528015611bf257816020015b611bdf613f88565b815260200190600190039081611bd75790505b50905060005b60035481101561205c578473ffffffffffffffffffffffffffffffffffffffff166008600083815260200190815260200160002060000160009054906101000a900473ffffffffffffffffffffffffffffffffffffffff1673ffffffffffffffffffffffffffffffffffffffff16036120495760008190506000600860008381526020019081526020016000209050806040518060e00160405290816000820160009054906101000a900473ffffffffffffffffffffffffffffffffffffffff1673ffffffffffffffffffffffffffffffffffffffff1673ffffffffffffffffffffffffffffffffffffffff1681526020016001820160009054906101000a900473ffffffffffffffffffffffffffffffffffffffff1673ffffffffffffffffffffffffffffffffffffffff1673ffffffffffffffffffffffffffffffffffffffff168152602001600282018054611d4f90614eda565b80601f0160208091040260200160405190810160405280929190818152602001828054611d7b90614eda565b8015611dc85780601f10611d9d57610100808354040283529160200191611dc8565b820191906000526020600020905b815481529060010190602001808311611dab57829003601f168201915b50505050508152602001600382018054611de190614eda565b80601f0160208091040260200160405190810160405280929190818152602001828054611e0d90614eda565b8015611e5a5780601f10611e2f57610100808354040283529160200191611e5a565b820191906000526020600020905b815481529060010190602001808311611e3d57829003601f168201915b50505050508152602001600482018054611e7390614eda565b80601f0160208091040260200160405190810160405280929190818152602001828054611e9f90614eda565b8015611eec5780601f10611ec157610100808354040283529160200191611eec565b820191906000526020600020905b815481529060010190602001808311611ecf57829003601f168201915b50505050508152602001600582018054611f0590614eda565b80601f0160208091040260200160405190810160405280929190818152602001828054611f3190614eda565b8015611f7e5780601f10611f5357610100808354040283529160200191611f7e565b820191906000526020600020905b815481529060010190602001808311611f6157829003601f168201915b50505050508152602001600682018054611f9790614eda565b80601f0160208091040260200160405190810160405280929190818152602001828054611fc390614eda565b80156120105780601f10611fe557610100808354040283529160200191612010565b820191906000526020600020905b815481529060010190602001808311611ff357829003601f168201915b50505050508152505084838151811061202c5761202b6151f1565b5b602002602001018190525060018261204491906151bd565b915050505b808061205490614e63565b915050611bf8565b508092505050919050565b60606000600b60003373ffffffffffffffffffffffffffffffffffffffff1673ffffffffffffffffffffffffffffffffffffffff1681526020019081526020016000205490506000600e60008381526020019081526020016000208054905067ffffffffffffffff8111156120df576120de614116565b5b60405190808252806020026020018201604052801561211857816020015b612105613ff1565b8152602001906001900390816120fd5790505b50905060005b600e60008481526020019081526020016000208054905081101561245e57600060076000600e60008781526020019081526020016000208481548110612167576121666151f1565b5b906000526020600020015481526020019081526020016000209050806040518060a00160405290816000820160009054906101000a900473ffffffffffffffffffffffffffffffffffffffff1673ffffffffffffffffffffffffffffffffffffffff1673ffffffffffffffffffffffffffffffffffffffff1681526020016001820180546121f490614eda565b80601f016020809104026020016040519081016040528092919081815260200182805461222090614eda565b801561226d5780601f106122425761010080835404028352916020019161226d565b820191906000526020600020905b81548152906001019060200180831161225057829003601f168201915b5050505050815260200160028201805461228690614eda565b80601f01602080910402602001604051908101604052809291908181526020018280546122b290614eda565b80156122ff5780601f106122d4576101008083540402835291602001916122ff565b820191906000526020600020905b8154815290600101906020018083116122e257829003601f168201915b5050505050815260200160038201805461231890614eda565b80601f016020809104026020016040519081016040528092919081815260200182805461234490614eda565b80156123915780601f1061236657610100808354040283529160200191612391565b820191906000526020600020905b81548152906001019060200180831161237457829003601f168201915b505050505081526020016004820180546123aa90614eda565b80601f01602080910402602001604051908101604052809291908181526020018280546123d690614eda565b80156124235780601f106123f857610100808354040283529160200191612423565b820191906000526020600020905b81548152906001019060200180831161240657829003601f168201915b50505050508152505083838151811061243f5761243e6151f1565b5b602002602001018190525050808061245690614e63565b91505061211e565b50809250505090565b61246f614036565b60066000600b60008573ffffffffffffffffffffffffffffffffffffffff1673ffffffffffffffffffffffffffffffffffffffff1681526020019081526020016000205481526020019081526020016000206040518060e00160405290816000820160009054906101000a900473ffffffffffffffffffffffffffffffffffffffff1673ffffffffffffffffffffffffffffffffffffffff1673ffffffffffffffffffffffffffffffffffffffff16815260200160018201805461253290614eda565b80601f016020809104026020016040519081016040528092919081815260200182805461255e90614eda565b80156125ab5780601f10612580576101008083540402835291602001916125ab565b820191906000526020600020905b81548152906001019060200180831161258e57829003601f168201915b505050505081526020016002820180546125c490614eda565b80601f01602080910402602001604051908101604052809291908181526020018280546125f090614eda565b801561263d5780601f106126125761010080835404028352916020019161263d565b820191906000526020600020905b81548152906001019060200180831161262057829003601f168201915b5050505050815260200160038201805461265690614eda565b80601f016020809104026020016040519081016040528092919081815260200182805461268290614eda565b80156126cf5780601f106126a4576101008083540402835291602001916126cf565b820191906000526020600020905b8154815290600101906020018083116126b257829003601f168201915b505050505081526020016004820180546126e890614eda565b80601f016020809104026020016040519081016040528092919081815260200182805461271490614eda565b80156127615780601f1061273657610100808354040283529160200191612761565b820191906000526020600020905b81548152906001019060200180831161274457829003601f168201915b505050505081526020016005820154815260200160068201805461278490614eda565b80601f01602080910402602001604051908101604052809291908181526020018280546127b090614eda565b80156127fd5780601f106127d2576101008083540402835291602001916127fd565b820191906000526020600020905b8154815290600101906020018083116127e057829003601f168201915b5050505050815250509050919050565b6060600060025467ffffffffffffffff81111561282d5761282c614116565b5b60405190808252806020026020018201604052801561286657816020015b612853613ff1565b81526020019060019003908161284b5790505b50905060005b600254811015612b69576000600760008381526020019081526020016000209050806040518060a00160405290816000820160009054906101000a900473ffffffffffffffffffffffffffffffffffffffff1673ffffffffffffffffffffffffffffffffffffffff1673ffffffffffffffffffffffffffffffffffffffff1681526020016001820180546128ff90614eda565b80601f016020809104026020016040519081016040528092919081815260200182805461292b90614eda565b80156129785780601f1061294d57610100808354040283529160200191612978565b820191906000526020600020905b81548152906001019060200180831161295b57829003601f168201915b5050505050815260200160028201805461299190614eda565b80601f01602080910402602001604051908101604052809291908181526020018280546129bd90614eda565b8015612a0a5780601f106129df57610100808354040283529160200191612a0a565b820191906000526020600020905b8154815290600101906020018083116129ed57829003601f168201915b50505050508152602001600382018054612a2390614eda565b80601f0160208091040260200160405190810160405280929190818152602001828054612a4f90614eda565b8015612a9c5780601f10612a7157610100808354040283529160200191612a9c565b820191906000526020600020905b815481529060010190602001808311612a7f57829003601f168201915b50505050508152602001600482018054612ab590614eda565b80601f0160208091040260200160405190810160405280929190818152602001828054612ae190614eda565b8015612b2e5780601f10612b0357610100808354040283529160200191612b2e565b820191906000526020600020905b815481529060010190602001808311612b1157829003601f168201915b505050505081525050838381518110612b4a57612b496151f1565b5b6020026020010181905250508080612b6190614e63565b91505061286c565b508091505090565b606060011515612b818484613e83565b151514612bc3576040517f08c379a0000000000000000000000000000000000000000000000000000000008152600401612bba906152d2565b60405180910390fd5b600080600090505b600354811015612c61578473ffffffffffffffffffffffffffffffffffffffff166008600083815260200190815260200160002060000160009054906101000a900473ffffffffffffffffffffffffffffffffffffffff1673ffffffffffffffffffffffffffffffffffffffff1603612c4e57600182612c4b91906151bd565b91505b8080612c5990614e63565b915050612bcb565b5060008167ffffffffffffffff811115612c7e57612c7d614116565b5b604051908082528060200260200182016040528015612cb757816020015b612ca4613f88565b815260200190600190039081612c9c5790505b50905060005b600354811015613121578573ffffffffffffffffffffffffffffffffffffffff166008600083815260200190815260200160002060000160009054906101000a900473ffffffffffffffffffffffffffffffffffffffff1673ffffffffffffffffffffffffffffffffffffffff160361310e5760008190506000600860008381526020019081526020016000209050806040518060e00160405290816000820160009054906101000a900473ffffffffffffffffffffffffffffffffffffffff1673ffffffffffffffffffffffffffffffffffffffff1673ffffffffffffffffffffffffffffffffffffffff1681526020016001820160009054906101000a900473ffffffffffffffffffffffffffffffffffffffff1673ffffffffffffffffffffffffffffffffffffffff1673ffffffffffffffffffffffffffffffffffffffff168152602001600282018054612e1490614eda565b80601f0160208091040260200160405190810160405280929190818152602001828054612e4090614eda565b8015612e8d5780601f10612e6257610100808354040283529160200191612e8d565b820191906000526020600020905b815481529060010190602001808311612e7057829003601f168201915b50505050508152602001600382018054612ea690614eda565b80601f0160208091040260200160405190810160405280929190818152602001828054612ed290614eda565b8015612f1f5780601f10612ef457610100808354040283529160200191612f1f565b820191906000526020600020905b815481529060010190602001808311612f0257829003601f168201915b50505050508152602001600482018054612f3890614eda565b80601f0160208091040260200160405190810160405280929190818152602001828054612f6490614eda565b8015612fb15780601f10612f8657610100808354040283529160200191612fb1565b820191906000526020600020905b815481529060010190602001808311612f9457829003601f168201915b50505050508152602001600582018054612fca90614eda565b80601f0160208091040260200160405190810160405280929190818152602001828054612ff690614eda565b80156130435780601f1061301857610100808354040283529160200191613043565b820191906000526020600020905b81548152906001019060200180831161302657829003601f168201915b5050505050815260200160068201805461305c90614eda565b80601f016020809104026020016040519081016040528092919081815260200182805461308890614eda565b80156130d55780601f106130aa576101008083540402835291602001916130d5565b820191906000526020600020905b8154815290600101906020018083116130b857829003601f168201915b5050505050815250508483815181106130f1576130f06151f1565b5b602002602001018190525060018261310991906151bd565b915050505b808061311990614e63565b915050612cbd565b50809250505092915050565b6060600080600090505b6001548110156131d35760005b600f6000838152602001908152602001600020805490508110156131bf5784600f60008481526020019081526020016000208281548110613188576131876151f1565b5b9060005260206000200154036131ac576001836131a591906151bd565b92506131bf565b80806131b790614e63565b915050613144565b5080806131cb90614e63565b915050613137565b5060008167ffffffffffffffff8111156131f0576131ef614116565b5b60405190808252806020026020018201604052801561322957816020015b613216614036565b81526020019060019003908161320e5790505b5090506000915060005b60015481101561364b5760005b600f6000838152602001908152602001600020805490508110156136375785600f60008481526020019081526020016000208281548110613284576132836151f1565b5b906000526020600020015403613624576000600660008481526020019081526020016000209050806040518060e00160405290816000820160009054906101000a900473ffffffffffffffffffffffffffffffffffffffff1673ffffffffffffffffffffffffffffffffffffffff1673ffffffffffffffffffffffffffffffffffffffff16815260200160018201805461331d90614eda565b80601f016020809104026020016040519081016040528092919081815260200182805461334990614eda565b80156133965780601f1061336b57610100808354040283529160200191613396565b820191906000526020600020905b81548152906001019060200180831161337957829003601f168201915b505050505081526020016002820180546133af90614eda565b80601f01602080910402602001604051908101604052809291908181526020018280546133db90614eda565b80156134285780601f106133fd57610100808354040283529160200191613428565b820191906000526020600020905b81548152906001019060200180831161340b57829003601f168201915b5050505050815260200160038201805461344190614eda565b80601f016020809104026020016040519081016040528092919081815260200182805461346d90614eda565b80156134ba5780601f1061348f576101008083540402835291602001916134ba565b820191906000526020600020905b81548152906001019060200180831161349d57829003601f168201915b505050505081526020016004820180546134d390614eda565b80601f01602080910402602001604051908101604052809291908181526020018280546134ff90614eda565b801561354c5780601f106135215761010080835404028352916020019161354c565b820191906000526020600020905b81548152906001019060200180831161352f57829003601f168201915b505050505081526020016005820154815260200160068201805461356f90614eda565b80601f016020809104026020016040519081016040528092919081815260200182805461359b90614eda565b80156135e85780601f106135bd576101008083540402835291602001916135e8565b820191906000526020600020905b8154815290600101906020018083116135cb57829003601f168201915b505050505081525050848681518110613604576136036151f1565b5b602002602001018190525060018561361c91906151bd565b945050613637565b808061362f90614e63565b915050613240565b50808061364390614e63565b915050613233565b508092505050919050565b6000600c60008373ffffffffffffffffffffffffffffffffffffffff1673ffffffffffffffffffffffffffffffffffffffff1681526020019081526020016000205490506000600b60003373ffffffffffffffffffffffffffffffffffffffff1673ffffffffffffffffffffffffffffffffffffffff16815260200190815260200160002054905060005b600e6000838152602001908152602001600020805490508110156138075782600e60008481526020019081526020016000208281548110613725576137246151f1565b5b9060005260206000200154036137f457600e60008381526020019081526020016000206001600e60008581526020019081526020016000208054905061376b9190615189565b8154811061377c5761377b6151f1565b5b9060005260206000200154600e600084815260200190815260200160002082815481106137ac576137ab6151f1565b5b9060005260206000200181905550600e60008381526020019081526020016000208054806137dd576137dc615220565b5b600190038181906000526020600020016000905590555b80806137ff90614e63565b9150506136e1565b50505050565b6060600080600090505b6003548110156138ad573373ffffffffffffffffffffffffffffffffffffffff166008600083815260200190815260200160002060000160009054906101000a900473ffffffffffffffffffffffffffffffffffffffff1673ffffffffffffffffffffffffffffffffffffffff160361389a5760018261389791906151bd565b91505b80806138a590614e63565b915050613817565b5060008167ffffffffffffffff8111156138ca576138c9614116565b5b60405190808252806020026020018201604052801561390357816020015b6138f0613f88565b8152602001906001900390816138e85790505b50905060005b600354811015613d6d573373ffffffffffffffffffffffffffffffffffffffff166008600083815260200190815260200160002060000160009054906101000a900473ffffffffffffffffffffffffffffffffffffffff1673ffffffffffffffffffffffffffffffffffffffff1603613d5a5760008190506000600860008381526020019081526020016000209050806040518060e00160405290816000820160009054906101000a900473ffffffffffffffffffffffffffffffffffffffff1673ffffffffffffffffffffffffffffffffffffffff1673ffffffffffffffffffffffffffffffffffffffff1681526020016001820160009054906101000a900473ffffffffffffffffffffffffffffffffffffffff1673ffffffffffffffffffffffffffffffffffffffff1673ffffffffffffffffffffffffffffffffffffffff168152602001600282018054613a6090614eda565b80601f0160208091040260200160405190810160405280929190818152602001828054613a8c90614eda565b8015613ad95780601f10613aae57610100808354040283529160200191613ad9565b820191906000526020600020905b815481529060010190602001808311613abc57829003601f168201915b50505050508152602001600382018054613af290614eda565b80601f0160208091040260200160405190810160405280929190818152602001828054613b1e90614eda565b8015613b6b5780601f10613b4057610100808354040283529160200191613b6b565b820191906000526020600020905b815481529060010190602001808311613b4e57829003601f168201915b50505050508152602001600482018054613b8490614eda565b80601f0160208091040260200160405190810160405280929190818152602001828054613bb090614eda565b8015613bfd5780601f10613bd257610100808354040283529160200191613bfd565b820191906000526020600020905b815481529060010190602001808311613be057829003601f168201915b50505050508152602001600582018054613c1690614eda565b80601f0160208091040260200160405190810160405280929190818152602001828054613c4290614eda565b8015613c8f5780601f10613c6457610100808354040283529160200191613c8f565b820191906000526020600020905b815481529060010190602001808311613c7257829003601f168201915b50505050508152602001600682018054613ca890614eda565b80601f0160208091040260200160405190810160405280929190818152602001828054613cd490614eda565b8015613d215780601f10613cf657610100808354040283529160200191613d21565b820191906000526020600020905b815481529060010190602001808311613d0457829003601f168201915b505050505081525050848381518110613d3d57613d3c6151f1565b5b6020026020010181905250600182613d5591906151bd565b915050505b8080613d6590614e63565b915050613909565b50809250505090565b600080600b60008573ffffffffffffffffffffffffffffffffffffffff1673ffffffffffffffffffffffffffffffffffffffff1681526020019081526020016000205490506000600c60008573ffffffffffffffffffffffffffffffffffffffff1673ffffffffffffffffffffffffffffffffffffffff16815260200190815260200160002054905060005b600e600084815260200190815260200160002080549050811015613e755781600e60008581526020019081526020016000208281548110613e4657613e456151f1565b5b906000526020600020015403613e625760019350505050613e7d565b8080613e6d90614e63565b915050613e02565b506000925050505b92915050565b600080600b60008573ffffffffffffffffffffffffffffffffffffffff1673ffffffffffffffffffffffffffffffffffffffff16815260200190815260200160002054905060005b600f600083815260200190815260200160002080549050811015613f3d5783600f60008481526020019081526020016000208281548110613f0f57613f0e6151f1565b5b906000526020600020015403613f2a57600192505050613f44565b8080613f3590614e63565b915050613ecb565b5060009150505b92915050565b6040518060800160405280600073ffffffffffffffffffffffffffffffffffffffff1681526020016060815260200160608152602001606081525090565b6040518060e00160405280600073ffffffffffffffffffffffffffffffffffffffff168152602001600073ffffffffffffffffffffffffffffffffffffffff16815260200160608152602001606081526020016060815260200160608152602001606081525090565b6040518060a00160405280600073ffffffffffffffffffffffffffffffffffffffff168152602001606081526020016060815260200160608152602001606081525090565b6040518060e00160405280600073ffffffffffffffffffffffffffffffffffffffff1681526020016060815260200160608152602001606081526020016060815260200160008152602001606081525090565b6000604051905090565b600080fd5b600080fd5b600073ffffffffffffffffffffffffffffffffffffffff82169050919050565b60006140c88261409d565b9050919050565b6140d8816140bd565b81146140e357600080fd5b50565b6000813590506140f5816140cf565b92915050565b600080fd5b600080fd5b6000601f19601f8301169050919050565b7f4e487b7100000000000000000000000000000000000000000000000000000000600052604160045260246000fd5b61414e82614105565b810181811067ffffffffffffffff8211171561416d5761416c614116565b5b80604052505050565b6000614180614089565b905061418c8282614145565b919050565b600067ffffffffffffffff8211156141ac576141ab614116565b5b6141b582614105565b9050602081019050919050565b82818337600083830152505050565b60006141e46141df84614191565b614176565b905082815260208101848484011115614200576141ff614100565b5b61420b8482856141c2565b509392505050565b600082601f830112614228576142276140fb565b5b81356142388482602086016141d1565b91505092915050565b60008060008060008060c0878903121561425e5761425d614093565b5b600061426c89828a016140e6565b965050602087013567ffffffffffffffff81111561428d5761428c614098565b5b61429989828a01614213565b955050604087013567ffffffffffffffff8111156142ba576142b9614098565b5b6142c689828a01614213565b945050606087013567ffffffffffffffff8111156142e7576142e6614098565b5b6142f389828a01614213565b935050608087013567ffffffffffffffff81111561431457614313614098565b5b61432089828a01614213565b92505060a087013567ffffffffffffffff81111561434157614340614098565b5b61434d89828a01614213565b9150509295509295509295565b6000819050919050565b61436d8161435a565b811461437857600080fd5b50565b60008135905061438a81614364565b92915050565b60008060008060008060c087890312156143ad576143ac614093565b5b600087013567ffffffffffffffff8111156143cb576143ca614098565b5b6143d789828a01614213565b965050602087013567ffffffffffffffff8111156143f8576143f7614098565b5b61440489828a01614213565b955050604087013567ffffffffffffffff81111561442557614424614098565b5b61443189828a01614213565b945050606087013567ffffffffffffffff81111561445257614451614098565b5b61445e89828a01614213565b935050608061446f89828a0161437b565b92505060a087013567ffffffffffffffff8111156144905761448f614098565b5b61449c89828a01614213565b9150509295509295509295565b600081519050919050565b600082825260208201905092915050565b6000819050602082019050919050565b6144de816140bd565b82525050565b600081519050919050565b600082825260208201905092915050565b60005b8381101561451e578082015181840152602081019050614503565b60008484015250505050565b6000614535826144e4565b61453f81856144ef565b935061454f818560208601614500565b61455881614105565b840191505092915050565b600060808301600083015161457b60008601826144d5565b5060208301518482036020860152614593828261452a565b915050604083015184820360408601526145ad828261452a565b915050606083015184820360608601526145c7828261452a565b9150508091505092915050565b60006145e08383614563565b905092915050565b6000602082019050919050565b6000614600826144a9565b61460a81856144b4565b93508360208202850161461c856144c5565b8060005b85811015614658578484038952815161463985826145d4565b9450614644836145e8565b925060208a01995050600181019050614620565b50829750879550505050505092915050565b6000602082019050818103600083015261468481846145f5565b905092915050565b6000806000606084860312156146a5576146a4614093565b5b600084013567ffffffffffffffff8111156146c3576146c2614098565b5b6146cf86828701614213565b935050602084013567ffffffffffffffff8111156146f0576146ef614098565b5b6146fc86828701614213565b925050604084013567ffffffffffffffff81111561471d5761471c614098565b5b61472986828701614213565b9150509250925092565b600081519050919050565b600082825260208201905092915050565b6000819050602082019050919050565b600060e08301600083015161477760008601826144d5565b50602083015161478a60208601826144d5565b50604083015184820360408601526147a2828261452a565b915050606083015184820360608601526147bc828261452a565b915050608083015184820360808601526147d6828261452a565b91505060a083015184820360a08601526147f0828261452a565b91505060c083015184820360c086015261480a828261452a565b9150508091505092915050565b6000614823838361475f565b905092915050565b6000602082019050919050565b600061484382614733565b61484d818561473e565b93508360208202850161485f8561474f565b8060005b8581101561489b578484038952815161487c8582614817565b94506148878361482b565b925060208a01995050600181019050614863565b50829750879550505050505092915050565b600060208201905081810360008301526148c78184614838565b905092915050565b6000602082840312156148e5576148e4614093565b5b60006148f38482850161437b565b91505092915050565b60006020828403121561491257614911614093565b5b6000614920848285016140e6565b91505092915050565b6000806000806080858703121561494357614942614093565b5b600085013567ffffffffffffffff81111561496157614960614098565b5b61496d87828801614213565b945050602085013567ffffffffffffffff81111561498e5761498d614098565b5b61499a87828801614213565b935050604085013567ffffffffffffffff8111156149bb576149ba614098565b5b6149c787828801614213565b925050606085013567ffffffffffffffff8111156149e8576149e7614098565b5b6149f487828801614213565b91505092959194509250565b600081519050919050565b600082825260208201905092915050565b6000819050602082019050919050565b600060a083016000830151614a4460008601826144d5565b5060208301518482036020860152614a5c828261452a565b91505060408301518482036040860152614a76828261452a565b91505060608301518482036060860152614a90828261452a565b91505060808301518482036080860152614aaa828261452a565b9150508091505092915050565b6000614ac38383614a2c565b905092915050565b6000602082019050919050565b6000614ae382614a00565b614aed8185614a0b565b935083602082028501614aff85614a1c565b8060005b85811015614b3b5784840389528151614b1c8582614ab7565b9450614b2783614acb565b925060208a01995050600181019050614b03565b50829750879550505050505092915050565b60006020820190508181036000830152614b678184614ad8565b905092915050565b614b788161435a565b82525050565b600060e083016000830151614b9660008601826144d5565b5060208301518482036020860152614bae828261452a565b91505060408301518482036040860152614bc8828261452a565b91505060608301518482036060860152614be2828261452a565b91505060808301518482036080860152614bfc828261452a565b91505060a0830151614c1160a0860182614b6f565b5060c083015184820360c0860152614c29828261452a565b9150508091505092915050565b60006020820190508181036000830152614c508184614b7e565b905092915050565b60008060408385031215614c6f57614c6e614093565b5b6000614c7d858286016140e6565b9250506020614c8e8582860161437b565b9150509250929050565b600081519050919050565b600082825260208201905092915050565b6000819050602082019050919050565b600060e083016000830151614cdc60008601826144d5565b5060208301518482036020860152614cf4828261452a565b91505060408301518482036040860152614d0e828261452a565b91505060608301518482036060860152614d28828261452a565b91505060808301518482036080860152614d42828261452a565b91505060a0830151614d5760a0860182614b6f565b5060c083015184820360c0860152614d6f828261452a565b9150508091505092915050565b6000614d888383614cc4565b905092915050565b6000602082019050919050565b6000614da882614c98565b614db28185614ca3565b935083602082028501614dc485614cb4565b8060005b85811015614e005784840389528151614de18582614d7c565b9450614dec83614d90565b925060208a01995050600181019050614dc8565b50829750879550505050505092915050565b60006020820190508181036000830152614e2c8184614d9d565b905092915050565b7f4e487b7100000000000000000000000000000000000000000000000000000000600052601160045260246000fd5b6000614e6e8261435a565b91507fffffffffffffffffffffffffffffffffffffffffffffffffffffffffffffffff8203614ea057614e9f614e34565b5b600182019050919050565b7f4e487b7100000000000000000000000000000000000000000000000000000000600052602260045260246000fd5b60006002820490506001821680614ef257607f821691505b602082108103614f0557614f04614eab565b5b50919050565b60008190508160005260206000209050919050565b60006020601f8301049050919050565b600082821b905092915050565b600060088302614f6d7fffffffffffffffffffffffffffffffffffffffffffffffffffffffffffffffff82614f30565b614f778683614f30565b95508019841693508086168417925050509392505050565b6000819050919050565b6000614fb4614faf614faa8461435a565b614f8f565b61435a565b9050919050565b6000819050919050565b614fce83614f99565b614fe2614fda82614fbb565b848454614f3d565b825550505050565b600090565b614ff7614fea565b615002818484614fc5565b505050565b5b818110156150265761501b600082614fef565b600181019050615008565b5050565b601f82111561506b5761503c81614f0b565b61504584614f20565b81016020851015615054578190505b61506861506085614f20565b830182615007565b50505b505050565b600082821c905092915050565b600061508e60001984600802615070565b1980831691505092915050565b60006150a7838361507d565b9150826002028217905092915050565b6150c0826144e4565b67ffffffffffffffff8111156150d9576150d8614116565b5b6150e38254614eda565b6150ee82828561502a565b600060209050601f831160018114615121576000841561510f578287015190505b615119858261509b565b865550615181565b601f19841661512f86614f0b565b60005b8281101561515757848901518255600182019150602085019450602081019050615132565b868310156151745784890151615170601f89168261507d565b8355505b6001600288020188555050505b505050505050565b60006151948261435a565b915061519f8361435a565b92508282039050818111156151b7576151b6614e34565b5b92915050565b60006151c88261435a565b91506151d38361435a565b92508282019050808211156151eb576151ea614e34565b5b92915050565b7f4e487b7100000000000000000000000000000000000000000000000000000000600052603260045260246000fd5b7f4e487b7100000000000000000000000000000000000000000000000000000000600052603160045260246000fd5b600082825260208201905092915050565b7f446f6573206e6f7420686173207468652061636365737320746f20666574636860008201527f2074686520646f63756d656e7473000000000000000000000000000000000000602082015250565b60006152bc602e8361524f565b91506152c782615260565b604082019050919050565b600060208201905081810360008301526152eb816152af565b905091905056fea26469706673582212209b12858c5d4b73f24c4321c74730316e31dbeaceee919454ab5780ee2bfb8c1e64736f6c63430008110033",
	"linkReferences": {},
	"deployedLinkReferences": {}
}